{
  "contractName": "ERC1155",
  "abi": [
    {
      "inputs": [
        {
          "internalType": "string",
          "name": "name_",
          "type": "string"
        },
        {
          "internalType": "string",
          "name": "symbol_",
          "type": "string"
        }
      ],
      "stateMutability": "nonpayable",
      "type": "constructor"
    },
    {
      "anonymous": false,
      "inputs": [
        {
          "indexed": true,
          "internalType": "address",
          "name": "account",
          "type": "address"
        },
        {
          "indexed": true,
          "internalType": "address",
          "name": "operator",
          "type": "address"
        },
        {
          "indexed": false,
          "internalType": "bool",
          "name": "approved",
          "type": "bool"
        }
      ],
      "name": "ApprovalForAll",
      "type": "event"
    },
    {
      "anonymous": false,
      "inputs": [
        {
          "indexed": true,
          "internalType": "address",
          "name": "operator",
          "type": "address"
        },
        {
          "indexed": true,
          "internalType": "address",
          "name": "from",
          "type": "address"
        },
        {
          "indexed": true,
          "internalType": "address",
          "name": "to",
          "type": "address"
        },
        {
          "indexed": false,
          "internalType": "uint256[]",
          "name": "ids",
          "type": "uint256[]"
        },
        {
          "indexed": false,
          "internalType": "uint256[]",
          "name": "values",
          "type": "uint256[]"
        }
      ],
      "name": "TransferBatch",
      "type": "event"
    },
    {
      "anonymous": false,
      "inputs": [
        {
          "indexed": true,
          "internalType": "address",
          "name": "operator",
          "type": "address"
        },
        {
          "indexed": true,
          "internalType": "address",
          "name": "from",
          "type": "address"
        },
        {
          "indexed": true,
          "internalType": "address",
          "name": "to",
          "type": "address"
        },
        {
          "indexed": false,
          "internalType": "uint256",
          "name": "id",
          "type": "uint256"
        },
        {
          "indexed": false,
          "internalType": "uint256",
          "name": "value",
          "type": "uint256"
        }
      ],
      "name": "TransferSingle",
      "type": "event"
    },
    {
      "anonymous": false,
      "inputs": [
        {
          "indexed": false,
          "internalType": "string",
          "name": "value",
          "type": "string"
        },
        {
          "indexed": true,
          "internalType": "uint256",
          "name": "id",
          "type": "uint256"
        }
      ],
      "name": "URI",
      "type": "event"
    },
    {
      "anonymous": false,
      "inputs": [
        {
          "indexed": false,
          "internalType": "string",
          "name": "value",
          "type": "string"
        }
      ],
      "name": "tokenBaseURI",
      "type": "event"
    },
    {
      "inputs": [
        {
          "internalType": "bytes4",
          "name": "interfaceId",
          "type": "bytes4"
        }
      ],
      "name": "supportsInterface",
      "outputs": [
        {
          "internalType": "bool",
          "name": "",
          "type": "bool"
        }
      ],
      "stateMutability": "view",
      "type": "function"
    },
    {
      "inputs": [],
      "name": "tokenURIPrefix",
      "outputs": [
        {
          "internalType": "string",
          "name": "",
          "type": "string"
        }
      ],
      "stateMutability": "view",
      "type": "function"
    },
    {
      "inputs": [],
      "name": "name",
      "outputs": [
        {
          "internalType": "string",
          "name": "",
          "type": "string"
        }
      ],
      "stateMutability": "view",
      "type": "function"
    },
    {
      "inputs": [],
      "name": "symbol",
      "outputs": [
        {
          "internalType": "string",
          "name": "",
          "type": "string"
        }
      ],
      "stateMutability": "view",
      "type": "function"
    },
    {
      "inputs": [
        {
          "internalType": "uint256",
          "name": "tokenId",
          "type": "uint256"
        }
      ],
      "name": "royaltyFee",
      "outputs": [
        {
          "internalType": "uint256",
          "name": "",
          "type": "uint256"
        }
      ],
      "stateMutability": "view",
      "type": "function"
    },
    {
      "inputs": [
        {
          "internalType": "uint256",
          "name": "tokenId",
          "type": "uint256"
        }
      ],
      "name": "getCreator",
      "outputs": [
        {
          "internalType": "address",
          "name": "",
          "type": "address"
        }
      ],
      "stateMutability": "view",
      "type": "function"
    },
    {
      "inputs": [
        {
          "internalType": "uint256",
          "name": "tokenId",
          "type": "uint256"
        }
      ],
      "name": "tokenURI",
      "outputs": [
        {
          "internalType": "string",
          "name": "",
          "type": "string"
        }
      ],
      "stateMutability": "view",
      "type": "function"
    },
    {
      "inputs": [
        {
          "internalType": "address",
          "name": "account",
          "type": "address"
        },
        {
          "internalType": "uint256",
          "name": "tokenId",
          "type": "uint256"
        }
      ],
      "name": "balanceOf",
      "outputs": [
        {
          "internalType": "uint256",
          "name": "",
          "type": "uint256"
        }
      ],
      "stateMutability": "view",
      "type": "function"
    },
    {
      "inputs": [
        {
          "internalType": "address[]",
          "name": "accounts",
          "type": "address[]"
        },
        {
          "internalType": "uint256[]",
          "name": "ids",
          "type": "uint256[]"
        }
      ],
      "name": "balanceOfBatch",
      "outputs": [
        {
          "internalType": "uint256[]",
          "name": "",
          "type": "uint256[]"
        }
      ],
      "stateMutability": "view",
      "type": "function"
    },
    {
      "inputs": [
        {
          "internalType": "address",
          "name": "operator",
          "type": "address"
        },
        {
          "internalType": "bool",
          "name": "approved",
          "type": "bool"
        }
      ],
      "name": "setApprovalForAll",
      "outputs": [],
      "stateMutability": "nonpayable",
      "type": "function"
    },
    {
      "inputs": [
        {
          "internalType": "address",
          "name": "account",
          "type": "address"
        },
        {
          "internalType": "address",
          "name": "operator",
          "type": "address"
        }
      ],
      "name": "isApprovedForAll",
      "outputs": [
        {
          "internalType": "bool",
          "name": "",
          "type": "bool"
        }
      ],
      "stateMutability": "view",
      "type": "function"
    },
    {
      "inputs": [
        {
          "internalType": "address",
          "name": "from",
          "type": "address"
        },
        {
          "internalType": "address",
          "name": "to",
          "type": "address"
        },
        {
          "internalType": "uint256",
          "name": "tokenId",
          "type": "uint256"
        },
        {
          "internalType": "uint256",
          "name": "amount",
          "type": "uint256"
        },
        {
          "internalType": "bytes",
          "name": "data",
          "type": "bytes"
        }
      ],
      "name": "safeTransferFrom",
      "outputs": [],
      "stateMutability": "nonpayable",
      "type": "function"
    },
    {
      "inputs": [
        {
          "internalType": "address",
          "name": "from",
          "type": "address"
        },
        {
          "internalType": "address",
          "name": "to",
          "type": "address"
        },
        {
          "internalType": "uint256[]",
          "name": "tokenIds",
          "type": "uint256[]"
        },
        {
          "internalType": "uint256[]",
          "name": "amounts",
          "type": "uint256[]"
        },
        {
          "internalType": "bytes",
          "name": "data",
          "type": "bytes"
        }
      ],
      "name": "safeBatchTransferFrom",
      "outputs": [],
      "stateMutability": "nonpayable",
      "type": "function"
    }
  ],
  "bytecode": "0x6080604052604051806060016040528060228152602001620037cc6022913960059080519060200190620000359291906200024e565b503480156200004357600080fd5b50604051620037ee380380620037ee833981810160405281019062000069919062000370565b620000a66301ffc9a77c0100000000000000000000000000000000000000000000000000000000026200015a640100000000026401000000009004565b8160099080519060200190620000be9291906200024e565b5080600a9080519060200190620000d79291906200024e565b506200011563d9b67a267c0100000000000000000000000000000000000000000000000000000000026200015a640100000000026401000000009004565b62000152630e89341c7c0100000000000000000000000000000000000000000000000000000000026200015a640100000000026401000000009004565b5050620005d6565b63ffffffff7c010000000000000000000000000000000000000000000000000000000002817bffffffffffffffffffffffffffffffffffffffffffffffffffffffff19161415620001e2576040517f08c379a0000000000000000000000000000000000000000000000000000000008152600401620001d9906200040a565b60405180910390fd5b6001600080837bffffffffffffffffffffffffffffffffffffffffffffffffffffffff19167bffffffffffffffffffffffffffffffffffffffffffffffffffffffff1916815260200190815260200160002060006101000a81548160ff02191690831515021790555050565b8280546200025c90620004d2565b90600052602060002090601f016020900481019282620002805760008555620002cc565b82601f106200029b57805160ff1916838001178555620002cc565b82800160010185558215620002cc579182015b82811115620002cb578251825591602001919060010190620002ae565b5b509050620002db9190620002df565b5090565b5b80821115620002fa576000816000905550600101620002e0565b5090565b6000620003156200030f8462000455565b6200042c565b9050828152602081018484840111156200032e57600080fd5b6200033b8482856200049c565b509392505050565b600082601f8301126200035557600080fd5b815162000367848260208601620002fe565b91505092915050565b600080604083850312156200038457600080fd5b600083015167ffffffffffffffff8111156200039f57600080fd5b620003ad8582860162000343565b925050602083015167ffffffffffffffff811115620003cb57600080fd5b620003d98582860162000343565b9150509250929050565b6000620003f2601c836200048b565b9150620003ff82620005ad565b602082019050919050565b600060208201905081810360008301526200042581620003e3565b9050919050565b6000620004386200044b565b905062000446828262000508565b919050565b6000604051905090565b600067ffffffffffffffff8211156200047357620004726200056d565b5b6200047e826200059c565b9050602081019050919050565b600082825260208201905092915050565b60005b83811015620004bc5780820151818401526020810190506200049f565b83811115620004cc576000848401525b50505050565b60006002820490506001821680620004eb57607f821691505b602082108114156200050257620005016200053e565b5b50919050565b62000513826200059c565b810181811067ffffffffffffffff821117156200053557620005346200056d565b5b80604052505050565b7f4e487b7100000000000000000000000000000000000000000000000000000000600052602260045260246000fd5b7f4e487b7100000000000000000000000000000000000000000000000000000000600052604160045260246000fd5b6000601f19601f8301169050919050565b7f4552433136353a20696e76616c696420696e7465726661636520696400000000600082015250565b6131e680620005e66000396000f3fe608060405234801561001057600080fd5b50600436106100eb576000357c010000000000000000000000000000000000000000000000000000000090048063a22cb465116100a9578063c87b56dd11610083578063c87b56dd14610242578063d48e638a14610272578063e985e9c5146102a2578063f242432a146102d2576100eb565b8063a22cb465146101d8578063c0ac9983146101f4578063c57dc23514610212576100eb565b8062fdd58e146100f057806301ffc9a71461012057806306fdde03146101505780632eb2c2d61461016e5780634e1273f41461018a57806395d89b41146101ba575b600080fd5b61010a6004803603810190610105919061206d565b6102ee565b60405161011791906127e3565b60405180910390f35b61013a60048036038101906101359190612115565b610401565b6040516101479190612606565b60405180910390f35b610158610468565b6040516101659190612621565b60405180910390f35b61018860048036038101906101839190611ee3565b6104fa565b005b6101a4600480360381019061019f91906120a9565b61091b565b6040516101b191906125ad565b60405180910390f35b6101c2610bc3565b6040516101cf9190612621565b60405180910390f35b6101f260048036038101906101ed9190612031565b610c55565b005b6101fc610dd6565b6040516102099190612621565b60405180910390f35b61022c60048036038101906102279190612167565b610e64565b60405161023991906127e3565b60405180910390f35b61025c60048036038101906102579190612167565b610e81565b6040516102699190612621565b60405180910390f35b61028c60048036038101906102879190612167565b611077565b60405161029991906124d0565b60405180910390f35b6102bc60048036038101906102b79190611ea7565b6110b4565b6040516102c99190612606565b60405180910390f35b6102ec60048036038101906102e79190611fa2565b611148565b005b60006102f98261148b565b610338576040517f08c379a000000000000000000000000000000000000000000000000000000000815260040161032f90612743565b60405180910390fd5b600073ffffffffffffffffffffffffffffffffffffffff168373ffffffffffffffffffffffffffffffffffffffff1614156103a8576040517f08c379a000000000000000000000000000000000000000000000000000000000815260040161039f90612683565b60405180910390fd5b6003600083815260200190815260200160002060008473ffffffffffffffffffffffffffffffffffffffff1673ffffffffffffffffffffffffffffffffffffffff16815260200190815260200160002054905092915050565b6000806000837bffffffffffffffffffffffffffffffffffffffffffffffffffffffff19167bffffffffffffffffffffffffffffffffffffffffffffffffffffffff1916815260200190815260200160002060009054906101000a900460ff169050919050565b60606009805461047790612ac2565b80601f01602080910402602001604051908101604052809291908181526020018280546104a390612ac2565b80156104f05780601f106104c5576101008083540402835291602001916104f0565b820191906000526020600020905b8154815290600101906020018083116104d357829003601f168201915b5050505050905090565b815183511461053e576040517f08c379a0000000000000000000000000000000000000000000000000000000008152600401610535906127c3565b60405180910390fd5b600073ffffffffffffffffffffffffffffffffffffffff168473ffffffffffffffffffffffffffffffffffffffff1614156105ae576040517f08c379a00000000000000000000000000000000000000000000000000000000081526004016105a590612703565b60405180910390fd5b6105b66114a8565b73ffffffffffffffffffffffffffffffffffffffff168573ffffffffffffffffffffffffffffffffffffffff1614806105fc57506105fb856105f66114a8565b6110b4565b5b61063b576040517f08c379a000000000000000000000000000000000000000000000000000000000815260040161063290612723565b60405180910390fd5b60006106456114a8565b90506106558187878787876114b0565b60005b845181101561088657600085828151811061069c577f4e487b7100000000000000000000000000000000000000000000000000000000600052603260045260246000fd5b6020026020010151905060008583815181106106e1577f4e487b7100000000000000000000000000000000000000000000000000000000600052603260045260246000fd5b60200260200101519050610768816040518060600160405280602a8152602001613187602a91396003600086815260200190815260200160002060008d73ffffffffffffffffffffffffffffffffffffffff1673ffffffffffffffffffffffffffffffffffffffff168152602001908152602001600020546114b89092919063ffffffff16565b6003600084815260200190815260200160002060008b73ffffffffffffffffffffffffffffffffffffffff1673ffffffffffffffffffffffffffffffffffffffff1681526020019081526020016000208190555061081f816003600085815260200190815260200160002060008b73ffffffffffffffffffffffffffffffffffffffff1673ffffffffffffffffffffffffffffffffffffffff1681526020019081526020016000205461151c90919063ffffffff16565b6003600084815260200190815260200160002060008a73ffffffffffffffffffffffffffffffffffffffff1673ffffffffffffffffffffffffffffffffffffffff1681526020019081526020016000208190555050508061087f90612b25565b9050610658565b508473ffffffffffffffffffffffffffffffffffffffff168673ffffffffffffffffffffffffffffffffffffffff168273ffffffffffffffffffffffffffffffffffffffff167f4a39dc06d4c0dbc64b70af90fd698a233a518aa5d07e595d983b8c0526c8f7fb87876040516108fd9291906125cf565b60405180910390a461091381878787878761157a565b505050505050565b60608151835114610961576040517f08c379a0000000000000000000000000000000000000000000000000000000008152600401610958906127a3565b60405180910390fd5b6000835167ffffffffffffffff8111156109a4577f4e487b7100000000000000000000000000000000000000000000000000000000600052604160045260246000fd5b6040519080825280602002602001820160405280156109d25781602001602082028036833780820191505090505b50905060005b8451811015610bb857600073ffffffffffffffffffffffffffffffffffffffff16858281518110610a32577f4e487b7100000000000000000000000000000000000000000000000000000000600052603260045260246000fd5b602002602001015173ffffffffffffffffffffffffffffffffffffffff161415610a91576040517f08c379a0000000000000000000000000000000000000000000000000000000008152600401610a88906126a3565b60405180910390fd5b60036000858381518110610ace577f4e487b7100000000000000000000000000000000000000000000000000000000600052603260045260246000fd5b602002602001015181526020019081526020016000206000868381518110610b1f577f4e487b7100000000000000000000000000000000000000000000000000000000600052603260045260246000fd5b602002602001015173ffffffffffffffffffffffffffffffffffffffff1673ffffffffffffffffffffffffffffffffffffffff16815260200190815260200160002054828281518110610b9b577f4e487b7100000000000000000000000000000000000000000000000000000000600052603260045260246000fd5b60200260200101818152505080610bb190612b25565b90506109d8565b508091505092915050565b6060600a8054610bd290612ac2565b80601f0160208091040260200160405190810160405280929190818152602001828054610bfe90612ac2565b8015610c4b5780601f10610c2057610100808354040283529160200191610c4b565b820191906000526020600020905b815481529060010190602001808311610c2e57829003601f168201915b5050505050905090565b8173ffffffffffffffffffffffffffffffffffffffff16610c746114a8565b73ffffffffffffffffffffffffffffffffffffffff161415610ccb576040517f08c379a0000000000000000000000000000000000000000000000000000000008152600401610cc290612783565b60405180910390fd5b8060046000610cd86114a8565b73ffffffffffffffffffffffffffffffffffffffff1673ffffffffffffffffffffffffffffffffffffffff16815260200190815260200160002060008473ffffffffffffffffffffffffffffffffffffffff1673ffffffffffffffffffffffffffffffffffffffff16815260200190815260200160002060006101000a81548160ff0219169083151502179055508173ffffffffffffffffffffffffffffffffffffffff16610d856114a8565b73ffffffffffffffffffffffffffffffffffffffff167f17307eab39ab6107e8899845ad3d59bd9653f200f220920489ca2b5937696c3183604051610dca9190612606565b60405180910390a35050565b60058054610de390612ac2565b80601f0160208091040260200160405190810160405280929190818152602001828054610e0f90612ac2565b8015610e5c5780601f10610e3157610100808354040283529160200191610e5c565b820191906000526020600020905b815481529060010190602001808311610e3f57829003601f168201915b505050505081565b600060026000838152602001908152602001600020549050919050565b6060610e8c8261148b565b610ecb576040517f08c379a0000000000000000000000000000000000000000000000000000000008152600401610ec290612763565b60405180910390fd5b6000600660008481526020019081526020016000208054610eeb90612ac2565b80601f0160208091040260200160405190810160405280929190818152602001828054610f1790612ac2565b8015610f645780601f10610f3957610100808354040283529160200191610f64565b820191906000526020600020905b815481529060010190602001808311610f4757829003601f168201915b50505050509050600060058054610f7a90612ac2565b80601f0160208091040260200160405190810160405280929190818152602001828054610fa690612ac2565b8015610ff35780601f10610fc857610100808354040283529160200191610ff3565b820191906000526020600020905b815481529060010190602001808311610fd657829003601f168201915b5050505050905060008151141561100e578192505050611072565b60008251111561104357808260405160200161102b9291906124ac565b60405160208183030381529060405292505050611072565b8061104d85611799565b60405160200161105e9291906124ac565b604051602081830303815290604052925050505b919050565b60006001600083815260200190815260200160002060009054906101000a900473ffffffffffffffffffffffffffffffffffffffff169050919050565b6000600460008473ffffffffffffffffffffffffffffffffffffffff1673ffffffffffffffffffffffffffffffffffffffff16815260200190815260200160002060008373ffffffffffffffffffffffffffffffffffffffff1673ffffffffffffffffffffffffffffffffffffffff16815260200190815260200160002060009054906101000a900460ff16905092915050565b600073ffffffffffffffffffffffffffffffffffffffff168473ffffffffffffffffffffffffffffffffffffffff1614156111b8576040517f08c379a00000000000000000000000000000000000000000000000000000000081526004016111af90612703565b60405180910390fd5b6111c06114a8565b73ffffffffffffffffffffffffffffffffffffffff168573ffffffffffffffffffffffffffffffffffffffff1614806112065750611205856112006114a8565b6110b4565b5b611245576040517f08c379a000000000000000000000000000000000000000000000000000000000815260040161123c906126e3565b60405180910390fd5b600061124f6114a8565b905061126f81878761126088611965565b61126988611965565b876114b0565b6112ec836040518060600160405280602a8152602001613187602a91396003600088815260200190815260200160002060008a73ffffffffffffffffffffffffffffffffffffffff1673ffffffffffffffffffffffffffffffffffffffff168152602001908152602001600020546114b89092919063ffffffff16565b6003600086815260200190815260200160002060008873ffffffffffffffffffffffffffffffffffffffff1673ffffffffffffffffffffffffffffffffffffffff168152602001908152602001600020819055506113a3836003600087815260200190815260200160002060008873ffffffffffffffffffffffffffffffffffffffff1673ffffffffffffffffffffffffffffffffffffffff1681526020019081526020016000205461151c90919063ffffffff16565b6003600086815260200190815260200160002060008773ffffffffffffffffffffffffffffffffffffffff1673ffffffffffffffffffffffffffffffffffffffff168152602001908152602001600020819055508473ffffffffffffffffffffffffffffffffffffffff168673ffffffffffffffffffffffffffffffffffffffff168273ffffffffffffffffffffffffffffffffffffffff167fc3d58168c5ae7397731d063d5bbf3d657854427343f4c083240f7aacaa2d0f62878760405161146d9291906127fe565b60405180910390a4611483818787878787611a2b565b505050505050565b60006114a1826007611c4a90919063ffffffff16565b9050919050565b600033905090565b505050505050565b6000838311158290611500576040517f08c379a00000000000000000000000000000000000000000000000000000000081526004016114f79190612621565b60405180910390fd5b506000838561150f91906129d8565b9050809150509392505050565b600080828461152b9190612951565b905083811015611570576040517f08c379a0000000000000000000000000000000000000000000000000000000008152600401611567906126c3565b60405180910390fd5b8091505092915050565b6115998473ffffffffffffffffffffffffffffffffffffffff16611c64565b15611791578373ffffffffffffffffffffffffffffffffffffffff1663bc197c8187878686866040518663ffffffff167c01000000000000000000000000000000000000000000000000000000000281526004016115fb9594939291906124eb565b602060405180830381600087803b15801561161557600080fd5b505af192505050801561164657506040513d601f19601f82011682018060405250810190611643919061213e565b60015b6116ec57611652612c5b565b806308c379a014156116af5750611667613094565b8061167257506116b1565b806040517f08c379a00000000000000000000000000000000000000000000000000000000081526004016116a69190612621565b60405180910390fd5b505b6040517f08c379a00000000000000000000000000000000000000000000000000000000081526004016116e390612643565b60405180910390fd5b63bc197c817c0100000000000000000000000000000000000000000000000000000000027bffffffffffffffffffffffffffffffffffffffffffffffffffffffff1916817bffffffffffffffffffffffffffffffffffffffffffffffffffffffff19161461178f576040517f08c379a000000000000000000000000000000000000000000000000000000000815260040161178690612663565b60405180910390fd5b505b505050505050565b606060008214156117e1576040518060400160405280600181526020017f30000000000000000000000000000000000000000000000000000000000000008152509050611960565b600082905060005b600082146118135780806117fc90612b25565b915050600a8261180c91906129a7565b91506117e9565b60008167ffffffffffffffff811115611855577f4e487b7100000000000000000000000000000000000000000000000000000000600052604160045260246000fd5b6040519080825280601f01601f1916602001820160405280156118875781602001600182028036833780820191505090505b5090505b60008514611959576001826118a091906129d8565b9150600a856118af9190612b6e565b60306118bb9190612951565b7f010000000000000000000000000000000000000000000000000000000000000002818381518110611916577f4e487b7100000000000000000000000000000000000000000000000000000000600052603260045260246000fd5b60200101907effffffffffffffffffffffffffffffffffffffffffffffffffffffffffffff1916908160001a905350600a8561195291906129a7565b945061188b565b8093505050505b919050565b60606000600167ffffffffffffffff8111156119aa577f4e487b7100000000000000000000000000000000000000000000000000000000600052604160045260246000fd5b6040519080825280602002602001820160405280156119d85781602001602082028036833780820191505090505b5090508281600081518110611a16577f4e487b7100000000000000000000000000000000000000000000000000000000600052603260045260246000fd5b60200260200101818152505080915050919050565b611a4a8473ffffffffffffffffffffffffffffffffffffffff16611c64565b15611c42578373ffffffffffffffffffffffffffffffffffffffff1663f23a6e6187878686866040518663ffffffff167c0100000000000000000000000000000000000000000000000000000000028152600401611aac959493929190612553565b602060405180830381600087803b158015611ac657600080fd5b505af1925050508015611af757506040513d601f19601f82011682018060405250810190611af4919061213e565b60015b611b9d57611b03612c5b565b806308c379a01415611b605750611b18613094565b80611b235750611b62565b806040517f08c379a0000000000000000000000000000000000000000000000000000000008152600401611b579190612621565b60405180910390fd5b505b6040517f08c379a0000000000000000000000000000000000000000000000000000000008152600401611b9490612643565b60405180910390fd5b63f23a6e617c0100000000000000000000000000000000000000000000000000000000027bffffffffffffffffffffffffffffffffffffffffffffffffffffffff1916817bffffffffffffffffffffffffffffffffffffffffffffffffffffffff191614611c40576040517f08c379a0000000000000000000000000000000000000000000000000000000008152600401611c3790612663565b60405180910390fd5b505b505050505050565b6000611c5c8360000183600102611c87565b905092915050565b6000808273ffffffffffffffffffffffffffffffffffffffff163b119050919050565b600080836001016000848152602001908152602001600020541415905092915050565b6000611cbd611cb88461284c565b612827565b90508083825260208201905082856020860282011115611cdc57600080fd5b60005b85811015611d0c5781611cf28882611dc0565b845260208401935060208301925050600181019050611cdf565b5050509392505050565b6000611d29611d2484612878565b612827565b90508083825260208201905082856020860282011115611d4857600080fd5b60005b85811015611d785781611d5e8882611e92565b845260208401935060208301925050600181019050611d4b565b5050509392505050565b6000611d95611d90846128a4565b612827565b905082815260208101848484011115611dad57600080fd5b611db8848285612a80565b509392505050565b600081359050611dcf8161312a565b92915050565b600082601f830112611de657600080fd5b8135611df6848260208601611caa565b91505092915050565b600082601f830112611e1057600080fd5b8135611e20848260208601611d16565b91505092915050565b600081359050611e3881613141565b92915050565b600081359050611e4d81613158565b92915050565b600081519050611e6281613158565b92915050565b600082601f830112611e7957600080fd5b8135611e89848260208601611d82565b91505092915050565b600081359050611ea18161316f565b92915050565b60008060408385031215611eba57600080fd5b6000611ec885828601611dc0565b9250506020611ed985828601611dc0565b9150509250929050565b600080600080600060a08688031215611efb57600080fd5b6000611f0988828901611dc0565b9550506020611f1a88828901611dc0565b945050604086013567ffffffffffffffff811115611f3757600080fd5b611f4388828901611dff565b935050606086013567ffffffffffffffff811115611f6057600080fd5b611f6c88828901611dff565b925050608086013567ffffffffffffffff811115611f8957600080fd5b611f9588828901611e68565b9150509295509295909350565b600080600080600060a08688031215611fba57600080fd5b6000611fc888828901611dc0565b9550506020611fd988828901611dc0565b9450506040611fea88828901611e92565b9350506060611ffb88828901611e92565b925050608086013567ffffffffffffffff81111561201857600080fd5b61202488828901611e68565b9150509295509295909350565b6000806040838503121561204457600080fd5b600061205285828601611dc0565b925050602061206385828601611e29565b9150509250929050565b6000806040838503121561208057600080fd5b600061208e85828601611dc0565b925050602061209f85828601611e92565b9150509250929050565b600080604083850312156120bc57600080fd5b600083013567ffffffffffffffff8111156120d657600080fd5b6120e285828601611dd5565b925050602083013567ffffffffffffffff8111156120ff57600080fd5b61210b85828601611dff565b9150509250929050565b60006020828403121561212757600080fd5b600061213584828501611e3e565b91505092915050565b60006020828403121561215057600080fd5b600061215e84828501611e53565b91505092915050565b60006020828403121561217957600080fd5b600061218784828501611e92565b91505092915050565b600061219c838361248e565b60208301905092915050565b6121b181612a0c565b82525050565b60006121c2826128e5565b6121cc8185612913565b93506121d7836128d5565b8060005b838110156122085781516121ef8882612190565b97506121fa83612906565b9250506001810190506121db565b5085935050505092915050565b61221e81612a1e565b82525050565b600061222f826128f0565b6122398185612924565b9350612249818560208601612a8f565b61225281612c7d565b840191505092915050565b6000612268826128fb565b6122728185612935565b9350612282818560208601612a8f565b61228b81612c7d565b840191505092915050565b60006122a1826128fb565b6122ab8185612946565b93506122bb818560208601612a8f565b80840191505092915050565b60006122d4603483612935565b91506122df82612cb7565b604082019050919050565b60006122f7602883612935565b915061230282612d06565b604082019050919050565b600061231a602b83612935565b915061232582612d55565b604082019050919050565b600061233d603183612935565b915061234882612da4565b604082019050919050565b6000612360601b83612935565b915061236b82612df3565b602082019050919050565b6000612383602983612935565b915061238e82612e1c565b604082019050919050565b60006123a6602583612935565b91506123b182612e6b565b604082019050919050565b60006123c9603283612935565b91506123d482612eba565b604082019050919050565b60006123ec603483612935565b91506123f782612f09565b604082019050919050565b600061240f603083612935565b915061241a82612f58565b604082019050919050565b6000612432602983612935565b915061243d82612fa7565b604082019050919050565b6000612455602983612935565b915061246082612ff6565b604082019050919050565b6000612478602883612935565b915061248382613045565b604082019050919050565b61249781612a76565b82525050565b6124a681612a76565b82525050565b60006124b88285612296565b91506124c48284612296565b91508190509392505050565b60006020820190506124e560008301846121a8565b92915050565b600060a08201905061250060008301886121a8565b61250d60208301876121a8565b818103604083015261251f81866121b7565b9050818103606083015261253381856121b7565b905081810360808301526125478184612224565b90509695505050505050565b600060a08201905061256860008301886121a8565b61257560208301876121a8565b612582604083018661249d565b61258f606083018561249d565b81810360808301526125a18184612224565b90509695505050505050565b600060208201905081810360008301526125c781846121b7565b905092915050565b600060408201905081810360008301526125e981856121b7565b905081810360208301526125fd81846121b7565b90509392505050565b600060208201905061261b6000830184612215565b92915050565b6000602082019050818103600083015261263b818461225d565b905092915050565b6000602082019050818103600083015261265c816122c7565b9050919050565b6000602082019050818103600083015261267c816122ea565b9050919050565b6000602082019050818103600083015261269c8161230d565b9050919050565b600060208201905081810360008301526126bc81612330565b9050919050565b600060208201905081810360008301526126dc81612353565b9050919050565b600060208201905081810360008301526126fc81612376565b9050919050565b6000602082019050818103600083015261271c81612399565b9050919050565b6000602082019050818103600083015261273c816123bc565b9050919050565b6000602082019050818103600083015261275c816123df565b9050919050565b6000602082019050818103600083015261277c81612402565b9050919050565b6000602082019050818103600083015261279c81612425565b9050919050565b600060208201905081810360008301526127bc81612448565b9050919050565b600060208201905081810360008301526127dc8161246b565b9050919050565b60006020820190506127f8600083018461249d565b92915050565b6000604082019050612813600083018561249d565b612820602083018461249d565b9392505050565b6000612831612842565b905061283d8282612af4565b919050565b6000604051905090565b600067ffffffffffffffff82111561286757612866612c2c565b5b602082029050602081019050919050565b600067ffffffffffffffff82111561289357612892612c2c565b5b602082029050602081019050919050565b600067ffffffffffffffff8211156128bf576128be612c2c565b5b6128c882612c7d565b9050602081019050919050565b6000819050602082019050919050565b600081519050919050565b600081519050919050565b600081519050919050565b6000602082019050919050565b600082825260208201905092915050565b600082825260208201905092915050565b600082825260208201905092915050565b600081905092915050565b600061295c82612a76565b915061296783612a76565b9250827fffffffffffffffffffffffffffffffffffffffffffffffffffffffffffffffff0382111561299c5761299b612b9f565b5b828201905092915050565b60006129b282612a76565b91506129bd83612a76565b9250826129cd576129cc612bce565b5b828204905092915050565b60006129e382612a76565b91506129ee83612a76565b925082821015612a0157612a00612b9f565b5b828203905092915050565b6000612a1782612a56565b9050919050565b60008115159050919050565b60007fffffffff0000000000000000000000000000000000000000000000000000000082169050919050565b600073ffffffffffffffffffffffffffffffffffffffff82169050919050565b6000819050919050565b82818337600083830152505050565b60005b83811015612aad578082015181840152602081019050612a92565b83811115612abc576000848401525b50505050565b60006002820490506001821680612ada57607f821691505b60208210811415612aee57612aed612bfd565b5b50919050565b612afd82612c7d565b810181811067ffffffffffffffff82111715612b1c57612b1b612c2c565b5b80604052505050565b6000612b3082612a76565b91507fffffffffffffffffffffffffffffffffffffffffffffffffffffffffffffffff821415612b6357612b62612b9f565b5b600182019050919050565b6000612b7982612a76565b9150612b8483612a76565b925082612b9457612b93612bce565b5b828206905092915050565b7f4e487b7100000000000000000000000000000000000000000000000000000000600052601160045260246000fd5b7f4e487b7100000000000000000000000000000000000000000000000000000000600052601260045260246000fd5b7f4e487b7100000000000000000000000000000000000000000000000000000000600052602260045260246000fd5b7f4e487b7100000000000000000000000000000000000000000000000000000000600052604160045260246000fd5b600060033d1115612c7a5760046000803e612c77600051612c8e565b90505b90565b6000601f19601f8301169050919050565b60007c010000000000000000000000000000000000000000000000000000000082049050919050565b7f455243313135353a207472616e7366657220746f206e6f6e204552433131353560008201527f526563656976657220696d706c656d656e746572000000000000000000000000602082015250565b7f455243313135353a204552433131353552656365697665722072656a6563746560008201527f6420746f6b656e73000000000000000000000000000000000000000000000000602082015250565b7f455243313135353a2062616c616e636520717565727920666f7220746865207a60008201527f65726f2061646472657373000000000000000000000000000000000000000000602082015250565b7f455243313135353a2062617463682062616c616e636520717565727920666f7260008201527f20746865207a65726f2061646472657373000000000000000000000000000000602082015250565b7f536166654d6174683a206164646974696f6e206f766572666c6f770000000000600082015250565b7f455243313135353a2063616c6c6572206973206e6f74206f776e6572206e6f7260008201527f20617070726f7665640000000000000000000000000000000000000000000000602082015250565b7f455243313135353a207472616e7366657220746f20746865207a65726f20616460008201527f6472657373000000000000000000000000000000000000000000000000000000602082015250565b7f455243313135353a207472616e736665722063616c6c6572206973206e6f742060008201527f6f776e6572206e6f7220617070726f7665640000000000000000000000000000602082015250565b7f455243313135354d657461646174613a2062616c616e6365207175657279206660008201527f6f72206e6f6e6578697374656e7420746f6b656e000000000000000000000000602082015250565b7f455243313135354d657461646174613a2055524920717565727920666f72206e60008201527f6f6e6578697374656e7420746f6b656e00000000000000000000000000000000602082015250565b7f455243313135353a2073657474696e6720617070726f76616c2073746174757360008201527f20666f722073656c660000000000000000000000000000000000000000000000602082015250565b7f455243313135353a206163636f756e747320616e6420696473206c656e67746860008201527f206d69736d617463680000000000000000000000000000000000000000000000602082015250565b7f455243313135353a2069647320616e6420616d6f756e7473206c656e6774682060008201527f6d69736d61746368000000000000000000000000000000000000000000000000602082015250565b600060443d10156130a457613127565b6130ac612842565b60043d036004823e80513d602482011167ffffffffffffffff821117156130d4575050613127565b808201805167ffffffffffffffff8111156130f25750505050613127565b80602083010160043d03850181111561310f575050505050613127565b61311e82602001850186612af4565b82955050505050505b90565b61313381612a0c565b811461313e57600080fd5b50565b61314a81612a1e565b811461315557600080fd5b50565b61316181612a2a565b811461316c57600080fd5b50565b61317881612a76565b811461318357600080fd5b5056fe455243313135353a20696e73756666696369656e742062616c616e636520666f72207472616e73666572a2646970667358221220305018552345d639831c0659c437d656cb64a4406c8e94a0c1a4cadecc522db264736f6c6343000804003368747470733a2f2f676174657761792e70696e6174612e636c6f75642f697066732f",
  "immutableReferences": {},
  "source": "// SPDX-License-Identifier: MIT\r\n// OpenZeppelin Contracts (last updated v4.7.0) \r\n\r\npragma solidity ^0.8.4;\r\n\r\nimport \"./External/Context.sol\";\r\nimport \"./External/ERC165.sol\";\r\nimport \"./External/IERC1155.sol\";\r\nimport \"./External/SafeMath.sol\";\r\nimport \"./External/Address.sol\";\r\nimport \"./External/Strings.sol\";\r\nimport \"./External/EnumerableMap.sol\";\r\nimport \"./External/IERC1155MetadataURI.sol\";\r\nimport \"./External/IERC1155Receiver.sol\";\r\n\r\ncontract ERC1155 is Context, ERC165,IERC1155{\r\n\r\n    using SafeMath for uint256;\r\n    using Address for address;\r\n    using Strings for uint256;\r\n    using EnumerableMap for EnumerableMap.UintToAddressMap;\r\n\r\n    // Mapping from token ID to account balances\r\n    mapping (uint256 => address) private creators;\r\n    mapping (uint256 => uint256) private _royaltyFee;\r\n    mapping (uint256 => mapping(address => uint256)) private _balances;\r\n\r\n    // Mapping from account to operator approvals\r\n    mapping (address => mapping(address => bool)) private _operatorApprovals;\r\n    string public tokenURIPrefix = \"https://gateway.pinata.cloud/ipfs/\";\r\n\r\n    // Optional mapping for token URIs\r\n    mapping(uint256 => string) private _tokenURIs;\r\n\r\n    EnumerableMap.UintToAddressMap private _tokenOwners;\r\n\r\n    string private _name;\r\n\r\n    string private _symbol;\r\n\r\n    bytes4 private constant _INTERFACE_ID_ERC1155 = 0xd9b67a26;\r\n\r\n    bytes4 private constant _INTERFACE_ID_ERC1155_METADATA_URI = 0x0e89341c;\r\n\r\n    constructor (string memory name_, string memory symbol_) {\r\n        _name = name_;\r\n        _symbol = symbol_;\r\n\r\n        _registerInterface(_INTERFACE_ID_ERC1155);\r\n        _registerInterface(_INTERFACE_ID_ERC1155_METADATA_URI);\r\n    }\r\n\r\n    function name() public view virtual override returns (string memory) {\r\n        return _name;\r\n    }\r\n\r\n    function symbol() public view virtual override returns (string memory) {\r\n        return _symbol;\r\n    }\r\n\r\n    /**\r\n        * @dev Internal function to set the token URI for a given token.\r\n        * Reverts if the token ID does not exist.\r\n        * @param tokenId uint256 ID of the token to set its URI\r\n        * @param uri string URI to assign\r\n    */    \r\n\r\n    function _setTokenURI(uint256 tokenId, string memory uri) internal {\r\n        _tokenURIs[tokenId] = uri;\r\n    }\r\n\r\n    /**\r\n        @notice Get the royalty associated with tokenID.\r\n        @param tokenId     ID of the Token.\r\n        @return        royaltyFee of given ID.\r\n     */\r\n\r\n    function royaltyFee(uint256 tokenId) public view override returns(uint256) {\r\n        return _royaltyFee[tokenId];\r\n    }\r\n\r\n    /**\r\n        @notice Get the creator of given tokenID.\r\n        @param tokenId     ID of the Token.\r\n        @return        creator of given ID.\r\n     */    \r\n\r\n    function getCreator(uint256 tokenId) public view virtual override returns(address) {\r\n        return creators[tokenId];\r\n    }\r\n\r\n    /**\r\n        * @dev Internal function to set the token URI for all the tokens.\r\n        * @param _tokenURIPrefix string memory _tokenURIPrefix of the tokens.\r\n    */   \r\n\r\n    function _setTokenURIPrefix(string memory _tokenURIPrefix) internal {\r\n        tokenURIPrefix = _tokenURIPrefix;\r\n        emit tokenBaseURI(_tokenURIPrefix);\r\n    }\r\n\r\n    /**\r\n        * @dev Returns an URI for a given token ID.\r\n        * Throws if the token ID does not exist. May return an empty string.\r\n        * @param tokenId uint256 ID of the token to query\r\n    */    \r\n\r\n    function tokenURI(uint256 tokenId) public view virtual override returns (string memory) {\r\n        require(_exists(tokenId), \"ERC1155Metadata: URI query for nonexistent token\");\r\n        string memory _tokenURI = _tokenURIs[tokenId];\r\n        string memory base = tokenURIPrefix;\r\n\r\n        if (bytes(base).length == 0) {\r\n            return _tokenURI;\r\n        }\r\n        if (bytes(_tokenURI).length > 0) {\r\n            return string(abi.encodePacked(base, _tokenURI));\r\n        }\r\n        return string(abi.encodePacked(base, tokenId.toString()));\r\n    }\r\n\r\n    function _exists(uint256 tokenId) internal view virtual returns (bool) {\r\n        return _tokenOwners.contains(tokenId);\r\n    }\r\n\r\n    /**\r\n        @notice Get the balance of an account's Tokens.\r\n        @param account  The address of the token holder\r\n        @param tokenId     ID of the Token\r\n        @return        The owner's balance of the Token type requested\r\n     */\r\n\r\n    function balanceOf(address account, uint256 tokenId) public view override returns (uint256) {\r\n        require(_exists(tokenId), \"ERC1155Metadata: balance query for nonexistent token\");\r\n        require(account != address(0), \"ERC1155: balance query for the zero address\");\r\n        return _balances[tokenId][account];\r\n    }\r\n\r\n\r\n    /**\r\n        @notice Get the balance of multiple account/token pairs\r\n        @param accounts The addresses of the token holders\r\n        @param ids    ID of the Tokens\r\n        @return        The _owner's balance of the Token types requested (i.e. balance for each (owner, id) pair)\r\n     */\r\n\r\n    function balanceOfBatch(\r\n        address[] memory accounts,\r\n        uint256[] memory ids\r\n    )\r\n        public\r\n        view\r\n        override\r\n        returns (uint256[] memory)\r\n    {\r\n        require(accounts.length == ids.length, \"ERC1155: accounts and ids length mismatch\");\r\n\r\n        uint256[] memory batchBalances = new uint256[](accounts.length);\r\n\r\n        for (uint256 i = 0; i < accounts.length; ++i) {\r\n            require(accounts[i] != address(0), \"ERC1155: batch balance query for the zero address\");\r\n            batchBalances[i] = _balances[ids[i]][accounts[i]];\r\n        }\r\n\r\n        return batchBalances;\r\n    }\r\n\r\n    /**\r\n        @notice Enable or disable approval for a third party (\"operator\") to manage all of the caller's tokens.\r\n        @dev MUST emit the ApprovalForAll event on success.\r\n        @param operator  Address to add to the set of authorized operators\r\n        @param approved  True if the operator is approved, false to revoke approval\r\n    */\r\n\r\n    function setApprovalForAll(address operator, bool approved) public virtual override {\r\n        require(_msgSender() != operator, \"ERC1155: setting approval status for self\");\r\n\r\n        _operatorApprovals[_msgSender()][operator] = approved;\r\n        emit ApprovalForAll(_msgSender(), operator, approved);\r\n    }\r\n\r\n    /**\r\n        @notice Queries the approval status of an operator for a given owner.\r\n        @param account     The owner of the Tokens\r\n        @param operator  Address of authorized operator\r\n        @return           True if the operator is approved, false if not\r\n    */\r\n\r\n    function isApprovedForAll(address account, address operator) public view override returns (bool) {\r\n        return _operatorApprovals[account][operator];\r\n    }\r\n\r\n    /**\r\n        @notice Transfers `_value` amount of an `_id` from the `_from` address to the `_to` address specified (with safety call).\r\n        @dev Caller must be approved to manage the tokens being transferred out of the `_from` account (see \"Approval\" section of the standard).\r\n        MUST revert if `_to` is the zero address.\r\n        MUST revert if balance of holder for token `_id` is lower than the `_value` sent.\r\n        MUST revert on any other error.\r\n        MUST emit the `TransferSingle` event to reflect the balance change (see \"Safe Transfer Rules\" section of the standard).\r\n        After the above conditions are met, this function MUST check if `_to` is a smart contract (e.g. code size > 0). If so, it MUST call `onERC1155Received` on `_to` and act appropriately (see \"Safe Transfer Rules\" section of the standard).\r\n        @param from    Source address\r\n        @param to      Target address\r\n        @param tokenId      ID of the token type\r\n        @param amount   Transfer amount\r\n        @param data    Additional data with no specified format, MUST be sent unaltered in call to `onERC1155Received` on `_to`\r\n    */    \r\n\r\n    function safeTransferFrom(\r\n        address from,\r\n        address to,\r\n        uint256 tokenId,\r\n        uint256 amount,\r\n        bytes memory data\r\n    )\r\n        public\r\n        virtual\r\n        override\r\n    {\r\n        require(to != address(0), \"ERC1155: transfer to the zero address\");\r\n        require(\r\n            from == _msgSender() || isApprovedForAll(from, _msgSender()),\r\n            \"ERC1155: caller is not owner nor approved\"\r\n        );\r\n\r\n        address operator = _msgSender();\r\n\r\n        _beforeTokenTransfer(operator, from, to, _asSingletonArray(tokenId), _asSingletonArray(amount), data);\r\n\r\n        _balances[tokenId][from] = _balances[tokenId][from].sub(amount, \"ERC1155: insufficient balance for transfer\");\r\n        _balances[tokenId][to] = _balances[tokenId][to].add(amount);\r\n\r\n        emit TransferSingle(operator, from, to, tokenId, amount);\r\n\r\n        _doSafeTransferAcceptanceCheck(operator, from, to, tokenId, amount, data);\r\n    }\r\n\r\n    /**\r\n        @notice Transfers `_values` amount(s) of `_ids` from the `_from` address to the `_to` address specified (with safety call).\r\n        @dev Caller must be approved to manage the tokens being transferred out of the `_from` account (see \"Approval\" section of the standard).\r\n        MUST revert if `_to` is the zero address.\r\n        MUST revert if length of `_ids` is not the same as length of `_values`.\r\n        MUST revert if any of the balance(s) of the holder(s) for token(s) in `_ids` is lower than the respective amount(s) in `_values` sent to the recipient.\r\n        MUST revert on any other error.\r\n        MUST emit `TransferSingle` or `TransferBatch` event(s) such that all the balance changes are reflected (see \"Safe Transfer Rules\" section of the standard).\r\n        Balance changes and events MUST follow the ordering of the arrays (_ids[0]/_values[0] before _ids[1]/_values[1], etc).\r\n        After the above conditions for the transfer(s) in the batch are met, this function MUST check if `_to` is a smart contract (e.g. code size > 0). If so, it MUST call the relevant `ERC1155TokenReceiver` hook(s) on `_to` and act appropriately (see \"Safe Transfer Rules\" section of the standard).\r\n        @param from    Source address\r\n        @param to      Target address\r\n        @param tokenIds     IDs of each token type (order and length must match _values array)\r\n        @param amounts  Transfer amounts per token type (order and length must match _ids array)\r\n        @param data    Additional data with no specified format, MUST be sent unaltered in call to the `ERC1155TokenReceiver` hook(s) on `_to`\r\n    */\r\n\r\n    function safeBatchTransferFrom(\r\n        address from,\r\n        address to,\r\n        uint256[] memory tokenIds,\r\n        uint256[] memory amounts,\r\n        bytes memory data\r\n    )\r\n        public\r\n        virtual\r\n        override\r\n    {\r\n        require(tokenIds.length == amounts.length, \"ERC1155: ids and amounts length mismatch\");\r\n        require(to != address(0), \"ERC1155: transfer to the zero address\");\r\n        require(\r\n            from == _msgSender() || isApprovedForAll(from, _msgSender()),\r\n            \"ERC1155: transfer caller is not owner nor approved\"\r\n        );\r\n\r\n        address operator = _msgSender();\r\n\r\n        _beforeTokenTransfer(operator, from, to, tokenIds, amounts, data);\r\n\r\n        for (uint256 i = 0; i < tokenIds.length; ++i) {\r\n            uint256 tokenId = tokenIds[i];\r\n            uint256 amount = amounts[i];\r\n\r\n            _balances[tokenId][from] = _balances[tokenId][from].sub(\r\n                amount,\r\n                \"ERC1155: insufficient balance for transfer\"\r\n            );\r\n            _balances[tokenId][to] = _balances[tokenId][to].add(amount);\r\n        }\r\n\r\n        emit TransferBatch(operator, from, to, tokenIds, amounts);\r\n\r\n        _doSafeBatchTransferAcceptanceCheck(operator, from, to, tokenIds, amounts, data);\r\n    }\r\n\r\n\r\n\r\n    /**\r\n        * @dev Internal function to mint a new token.\r\n        * Reverts if the given token ID already exists.\r\n        * @param tokenId uint256 ID of the token to be minted\r\n        * @param _supply uint256 supply of the token to be minted\r\n        * @param _uri string memory URI of the token to be minted\r\n        * @param _fee uint256 royalty of the token to be minted\r\n    */\r\n\r\n    function _mint(uint256 tokenId, uint256 _supply, string memory _uri, uint256 _fee) internal {\r\n        require(!_exists(tokenId), \"ERC1155: token already minted\");\r\n        require(_supply != 0, \"Supply should be positive\");\r\n        require(bytes(_uri).length > 0, \"uri should be set\");\r\n\r\n        creators[tokenId] = msg.sender;\r\n        _tokenOwners.set(tokenId, msg.sender);\r\n        _royaltyFee[tokenId] = _fee;\r\n        _balances[tokenId][msg.sender] = _supply;\r\n        _setTokenURI(tokenId, _uri);\r\n\r\n        emit TransferSingle(msg.sender, address(0x0), msg.sender, tokenId, _supply);\r\n        emit URI(_uri, tokenId);\r\n    }\r\n\r\n    /**\r\n        * @dev version of {_mint}.\r\n        *\r\n        * Requirements:\r\n        *\r\n        * - `tokenIds` and `amounts` must have the same length.\r\n    */\r\n\r\n    function _mintBatch(address to, uint256[] memory tokenIds, uint256[] memory amounts, bytes memory data) internal virtual {\r\n        require(to != address(0), \"ERC1155: mint to the zero address\");\r\n        require(tokenIds.length == amounts.length, \"ERC1155: ids and amounts length mismatch\");\r\n\r\n        address operator = _msgSender();\r\n\r\n        _beforeTokenTransfer(operator, address(0), to, tokenIds, amounts, data);\r\n\r\n        for (uint i = 0; i < tokenIds.length; i++) {\r\n            _balances[tokenIds[i]][to] = amounts[i].add(_balances[tokenIds[i]][to]);\r\n        }\r\n\r\n        emit TransferBatch(operator, address(0), to, tokenIds, amounts);\r\n\r\n        _doSafeBatchTransferAcceptanceCheck(operator, address(0), to, tokenIds, amounts, data);\r\n    }\r\n\r\n    /**\r\n        * @dev Internal function to burn a specific token.\r\n        * Reverts if the token does not exist.\r\n        * Deprecated, use {ERC721-_burn} instead.\r\n        * @param account owner of the token to burn\r\n        * @param tokenId uint256 ID of the token being burned\r\n        * @param amount uint256 amount of supply being burned\r\n    */    \r\n\r\n    function _burn(address account, uint256 tokenId, uint256 amount) internal virtual {\r\n        require(_exists(tokenId), \"ERC1155Metadata: burn query for nonexistent token\");\r\n        require(account != address(0), \"ERC1155: burn from the zero address\");\r\n\r\n        address operator = _msgSender();\r\n\r\n        _beforeTokenTransfer(operator, account, address(0), _asSingletonArray(tokenId), _asSingletonArray(amount), \"\");\r\n\r\n        _balances[tokenId][account] = _balances[tokenId][account].sub(\r\n            amount,\r\n            \"ERC_holderTokens1155: burn amount exceeds balance\"\r\n        );\r\n\r\n\r\n        emit TransferSingle(operator, account, address(0), tokenId, amount);\r\n    }\r\n\r\n\r\n    /**\r\n        * @dev version of {_burn}.\r\n        * Requirements:\r\n        * - `ids` and `amounts` must have the same length.\r\n    */\r\n\r\n    function _burnBatch(address account, uint256[] memory tokenIds, uint256[] memory amounts) internal virtual {\r\n        require(account != address(0), \"ERC1155: burn from the zero address\");\r\n        require(tokenIds.length == amounts.length, \"ERC1155: ids and amounts length mismatch\");\r\n\r\n        address operator = _msgSender();\r\n\r\n        _beforeTokenTransfer(operator, account, address(0), tokenIds, amounts, \"\");\r\n\r\n        for (uint i = 0; i < tokenIds.length; i++) {\r\n            _balances[tokenIds[i]][account] = _balances[tokenIds[i]][account].sub(\r\n                amounts[i],\r\n                \"ERC1155: burn amount exceeds balance\"\r\n            );\r\n        }\r\n\r\n        emit TransferBatch(operator, account, address(0), tokenIds, amounts);\r\n    }\r\n\r\n\r\n    function _beforeTokenTransfer(\r\n        address operator,\r\n        address from,\r\n        address to,\r\n        uint256[] memory tokenIds,\r\n        uint256[] memory amounts,\r\n        bytes memory data\r\n    )\r\n        internal virtual\r\n    { }\r\n\r\n    function _doSafeTransferAcceptanceCheck(\r\n        address operator,\r\n        address from,\r\n        address to,\r\n        uint256 tokenId,\r\n        uint256 amount,\r\n        bytes memory data\r\n    )\r\n        private\r\n    {\r\n        if (to.isContract()) {\r\n            try IERC1155Receiver(to).onERC1155Received(operator, from, tokenId, amount, data) returns (bytes4 response) {\r\n                if (response != IERC1155Receiver(to).onERC1155Received.selector) {\r\n                    revert(\"ERC1155: ERC1155Receiver rejected tokens\");\r\n                }\r\n            } catch Error(string memory reason) {\r\n                revert(reason);\r\n            } catch {\r\n                revert(\"ERC1155: transfer to non ERC1155Receiver implementer\");\r\n            }\r\n        }\r\n    }\r\n\r\n    function _doSafeBatchTransferAcceptanceCheck(\r\n        address operator,\r\n        address from,\r\n        address to,\r\n        uint256[] memory tokenIds,\r\n        uint256[] memory amounts,\r\n        bytes memory data\r\n    )\r\n        private\r\n    {\r\n        if (to.isContract()) {\r\n            try IERC1155Receiver(to).onERC1155BatchReceived(operator, from, tokenIds, amounts, data) returns (bytes4 response) {\r\n                if (response != IERC1155Receiver(to).onERC1155BatchReceived.selector) {\r\n                    revert(\"ERC1155: ERC1155Receiver rejected tokens\");\r\n                }\r\n            } catch Error(string memory reason) {\r\n                revert(reason);\r\n            } catch {\r\n                revert(\"ERC1155: transfer to non ERC1155Receiver implementer\");\r\n            }\r\n        }\r\n    }\r\n\r\n    function _asSingletonArray(uint256 element) private pure returns (uint256[] memory) {\r\n        uint256[] memory array = new uint256[](1);\r\n        array[0] = element;\r\n\r\n        return array;\r\n    }\r\n}\r\n\r\n",
  "sourcePath": "C:\\Users\\91863\\Arevea\\contracts\\ERC1155.sol",
  "compiler": {
    "name": "solc",
    "version": "0.8.4+commit.c7e474f2.Emscripten.clang"
  },
  "schemaVersion": "3.4.8",
  "updatedAt": "2022-07-21T12:25:41.702Z",
  "devdoc": {
    "kind": "dev",
    "methods": {
      "balanceOf(address,uint256)": {
        "params": {
          "account": "The address of the token holder",
          "tokenId": "ID of the Token"
        },
        "returns": {
          "_0": "The owner's balance of the Token type requested"
        }
      },
      "balanceOfBatch(address[],uint256[])": {
        "params": {
          "accounts": "The addresses of the token holders",
          "ids": "ID of the Tokens"
        },
        "returns": {
          "_0": "The _owner's balance of the Token types requested (i.e. balance for each (owner, id) pair)"
        }
      },
      "getCreator(uint256)": {
        "params": {
          "tokenId": "ID of the Token."
        },
        "returns": {
          "_0": "creator of given ID."
        }
      },
      "isApprovedForAll(address,address)": {
        "params": {
          "account": "The owner of the Tokens",
          "operator": "Address of authorized operator"
        },
        "returns": {
          "_0": "True if the operator is approved, false if not"
        }
      },
      "royaltyFee(uint256)": {
        "params": {
          "tokenId": "ID of the Token."
        },
        "returns": {
          "_0": "royaltyFee of given ID."
        }
      },
      "safeBatchTransferFrom(address,address,uint256[],uint256[],bytes)": {
        "details": "Caller must be approved to manage the tokens being transferred out of the `_from` account (see \"Approval\" section of the standard). MUST revert if `_to` is the zero address. MUST revert if length of `_ids` is not the same as length of `_values`. MUST revert if any of the balance(s) of the holder(s) for token(s) in `_ids` is lower than the respective amount(s) in `_values` sent to the recipient. MUST revert on any other error. MUST emit `TransferSingle` or `TransferBatch` event(s) such that all the balance changes are reflected (see \"Safe Transfer Rules\" section of the standard). Balance changes and events MUST follow the ordering of the arrays (_ids[0]/_values[0] before _ids[1]/_values[1], etc). After the above conditions for the transfer(s) in the batch are met, this function MUST check if `_to` is a smart contract (e.g. code size > 0). If so, it MUST call the relevant `ERC1155TokenReceiver` hook(s) on `_to` and act appropriately (see \"Safe Transfer Rules\" section of the standard).",
        "params": {
          "amounts": "Transfer amounts per token type (order and length must match _ids array)",
          "data": "Additional data with no specified format, MUST be sent unaltered in call to the `ERC1155TokenReceiver` hook(s) on `_to`",
          "from": "Source address",
          "to": "Target address",
          "tokenIds": "IDs of each token type (order and length must match _values array)"
        }
      },
      "safeTransferFrom(address,address,uint256,uint256,bytes)": {
        "details": "Caller must be approved to manage the tokens being transferred out of the `_from` account (see \"Approval\" section of the standard). MUST revert if `_to` is the zero address. MUST revert if balance of holder for token `_id` is lower than the `_value` sent. MUST revert on any other error. MUST emit the `TransferSingle` event to reflect the balance change (see \"Safe Transfer Rules\" section of the standard). After the above conditions are met, this function MUST check if `_to` is a smart contract (e.g. code size > 0). If so, it MUST call `onERC1155Received` on `_to` and act appropriately (see \"Safe Transfer Rules\" section of the standard).",
        "params": {
          "amount": "Transfer amount",
          "data": "Additional data with no specified format, MUST be sent unaltered in call to `onERC1155Received` on `_to`",
          "from": "Source address",
          "to": "Target address",
          "tokenId": "ID of the token type"
        }
      },
      "setApprovalForAll(address,bool)": {
        "details": "MUST emit the ApprovalForAll event on success.",
        "params": {
          "approved": "True if the operator is approved, false to revoke approval",
          "operator": "Address to add to the set of authorized operators"
        }
      },
      "supportsInterface(bytes4)": {
        "details": "Returns true if this contract implements the interface defined by `interfaceId`. See the corresponding https://eips.ethereum.org/EIPS/eip-165#how-interfaces-are-identified[EIP section] to learn more about how these ids are created. This function call must use less than 30 000 gas."
      },
      "tokenURI(uint256)": {
        "details": "Returns an URI for a given token ID. Throws if the token ID does not exist. May return an empty string.",
        "params": {
          "tokenId": "uint256 ID of the token to query"
        }
      }
    },
    "version": 1
  },
  "userdoc": {
    "kind": "user",
    "methods": {
      "balanceOf(address,uint256)": {
        "notice": "Get the balance of an account's Tokens."
      },
      "balanceOfBatch(address[],uint256[])": {
        "notice": "Get the balance of multiple account/token pairs"
      },
      "getCreator(uint256)": {
        "notice": "Get the creator of given tokenID."
      },
      "isApprovedForAll(address,address)": {
        "notice": "Queries the approval status of an operator for a given owner."
      },
      "royaltyFee(uint256)": {
        "notice": "Get the royalty associated with tokenID."
      },
      "safeBatchTransferFrom(address,address,uint256[],uint256[],bytes)": {
        "notice": "Transfers `_values` amount(s) of `_ids` from the `_from` address to the `_to` address specified (with safety call)."
      },
      "safeTransferFrom(address,address,uint256,uint256,bytes)": {
        "notice": "Transfers `_value` amount of an `_id` from the `_from` address to the `_to` address specified (with safety call)."
      },
      "setApprovalForAll(address,bool)": {
        "notice": "Enable or disable approval for a third party (\"operator\") to manage all of the caller's tokens."
      }
    },
    "version": 1
  }
}