{
  "contractName": "ERC721",
  "abi": [
    {
      "inputs": [
        {
          "internalType": "string",
          "name": "name_",
          "type": "string"
        },
        {
          "internalType": "string",
          "name": "symbol_",
          "type": "string"
        }
      ],
      "stateMutability": "nonpayable",
      "type": "constructor"
    },
    {
      "anonymous": false,
      "inputs": [
        {
          "indexed": true,
          "internalType": "address",
          "name": "owner",
          "type": "address"
        },
        {
          "indexed": true,
          "internalType": "address",
          "name": "approved",
          "type": "address"
        },
        {
          "indexed": true,
          "internalType": "uint256",
          "name": "tokenId",
          "type": "uint256"
        }
      ],
      "name": "Approval",
      "type": "event"
    },
    {
      "anonymous": false,
      "inputs": [
        {
          "indexed": true,
          "internalType": "address",
          "name": "owner",
          "type": "address"
        },
        {
          "indexed": true,
          "internalType": "address",
          "name": "operator",
          "type": "address"
        },
        {
          "indexed": false,
          "internalType": "bool",
          "name": "approved",
          "type": "bool"
        }
      ],
      "name": "ApprovalForAll",
      "type": "event"
    },
    {
      "anonymous": false,
      "inputs": [
        {
          "indexed": true,
          "internalType": "address",
          "name": "from",
          "type": "address"
        },
        {
          "indexed": true,
          "internalType": "address",
          "name": "to",
          "type": "address"
        },
        {
          "indexed": true,
          "internalType": "uint256",
          "name": "tokenId",
          "type": "uint256"
        }
      ],
      "name": "Transfer",
      "type": "event"
    },
    {
      "anonymous": false,
      "inputs": [
        {
          "indexed": false,
          "internalType": "string",
          "name": "value",
          "type": "string"
        },
        {
          "indexed": true,
          "internalType": "uint256",
          "name": "id",
          "type": "uint256"
        }
      ],
      "name": "URI",
      "type": "event"
    },
    {
      "anonymous": false,
      "inputs": [
        {
          "indexed": false,
          "internalType": "string",
          "name": "value",
          "type": "string"
        }
      ],
      "name": "tokenBaseURI",
      "type": "event"
    },
    {
      "inputs": [
        {
          "internalType": "bytes4",
          "name": "interfaceId",
          "type": "bytes4"
        }
      ],
      "name": "supportsInterface",
      "outputs": [
        {
          "internalType": "bool",
          "name": "",
          "type": "bool"
        }
      ],
      "stateMutability": "view",
      "type": "function"
    },
    {
      "inputs": [
        {
          "internalType": "address",
          "name": "owner",
          "type": "address"
        }
      ],
      "name": "balanceOf",
      "outputs": [
        {
          "internalType": "uint256",
          "name": "",
          "type": "uint256"
        }
      ],
      "stateMutability": "view",
      "type": "function"
    },
    {
      "inputs": [
        {
          "internalType": "uint256",
          "name": "tokenId",
          "type": "uint256"
        }
      ],
      "name": "ownerOf",
      "outputs": [
        {
          "internalType": "address",
          "name": "",
          "type": "address"
        }
      ],
      "stateMutability": "view",
      "type": "function"
    },
    {
      "inputs": [],
      "name": "name",
      "outputs": [
        {
          "internalType": "string",
          "name": "",
          "type": "string"
        }
      ],
      "stateMutability": "view",
      "type": "function"
    },
    {
      "inputs": [],
      "name": "symbol",
      "outputs": [
        {
          "internalType": "string",
          "name": "",
          "type": "string"
        }
      ],
      "stateMutability": "view",
      "type": "function"
    },
    {
      "inputs": [
        {
          "internalType": "uint256",
          "name": "tokenId",
          "type": "uint256"
        }
      ],
      "name": "tokenURI",
      "outputs": [
        {
          "internalType": "string",
          "name": "",
          "type": "string"
        }
      ],
      "stateMutability": "view",
      "type": "function"
    },
    {
      "inputs": [],
      "name": "baseURI",
      "outputs": [
        {
          "internalType": "string",
          "name": "",
          "type": "string"
        }
      ],
      "stateMutability": "view",
      "type": "function"
    },
    {
      "inputs": [
        {
          "internalType": "uint256",
          "name": "tokenId",
          "type": "uint256"
        }
      ],
      "name": "royaltyFee",
      "outputs": [
        {
          "internalType": "uint256",
          "name": "",
          "type": "uint256"
        }
      ],
      "stateMutability": "view",
      "type": "function"
    },
    {
      "inputs": [
        {
          "internalType": "uint256",
          "name": "tokenId",
          "type": "uint256"
        }
      ],
      "name": "getCreator",
      "outputs": [
        {
          "internalType": "address",
          "name": "",
          "type": "address"
        }
      ],
      "stateMutability": "view",
      "type": "function"
    },
    {
      "inputs": [
        {
          "internalType": "address",
          "name": "owner",
          "type": "address"
        },
        {
          "internalType": "uint256",
          "name": "index",
          "type": "uint256"
        }
      ],
      "name": "tokenOfOwnerByIndex",
      "outputs": [
        {
          "internalType": "uint256",
          "name": "",
          "type": "uint256"
        }
      ],
      "stateMutability": "view",
      "type": "function"
    },
    {
      "inputs": [],
      "name": "totalSupply",
      "outputs": [
        {
          "internalType": "uint256",
          "name": "",
          "type": "uint256"
        }
      ],
      "stateMutability": "view",
      "type": "function"
    },
    {
      "inputs": [
        {
          "internalType": "uint256",
          "name": "index",
          "type": "uint256"
        }
      ],
      "name": "tokenByIndex",
      "outputs": [
        {
          "internalType": "uint256",
          "name": "",
          "type": "uint256"
        }
      ],
      "stateMutability": "view",
      "type": "function"
    },
    {
      "inputs": [
        {
          "internalType": "address",
          "name": "to",
          "type": "address"
        },
        {
          "internalType": "uint256",
          "name": "tokenId",
          "type": "uint256"
        }
      ],
      "name": "approve",
      "outputs": [],
      "stateMutability": "nonpayable",
      "type": "function"
    },
    {
      "inputs": [
        {
          "internalType": "uint256",
          "name": "tokenId",
          "type": "uint256"
        }
      ],
      "name": "getApproved",
      "outputs": [
        {
          "internalType": "address",
          "name": "",
          "type": "address"
        }
      ],
      "stateMutability": "view",
      "type": "function"
    },
    {
      "inputs": [
        {
          "internalType": "address",
          "name": "operator",
          "type": "address"
        },
        {
          "internalType": "bool",
          "name": "approved",
          "type": "bool"
        }
      ],
      "name": "setApprovalForAll",
      "outputs": [],
      "stateMutability": "nonpayable",
      "type": "function"
    },
    {
      "inputs": [
        {
          "internalType": "address",
          "name": "owner",
          "type": "address"
        },
        {
          "internalType": "address",
          "name": "operator",
          "type": "address"
        }
      ],
      "name": "isApprovedForAll",
      "outputs": [
        {
          "internalType": "bool",
          "name": "",
          "type": "bool"
        }
      ],
      "stateMutability": "view",
      "type": "function"
    },
    {
      "inputs": [
        {
          "internalType": "address",
          "name": "from",
          "type": "address"
        },
        {
          "internalType": "address",
          "name": "to",
          "type": "address"
        },
        {
          "internalType": "uint256",
          "name": "tokenId",
          "type": "uint256"
        }
      ],
      "name": "transferFrom",
      "outputs": [],
      "stateMutability": "nonpayable",
      "type": "function"
    },
    {
      "inputs": [
        {
          "internalType": "address",
          "name": "from",
          "type": "address"
        },
        {
          "internalType": "address",
          "name": "to",
          "type": "address"
        },
        {
          "internalType": "uint256",
          "name": "tokenId",
          "type": "uint256"
        }
      ],
      "name": "safeTransferFrom",
      "outputs": [],
      "stateMutability": "nonpayable",
      "type": "function"
    },
    {
      "inputs": [
        {
          "internalType": "address",
          "name": "from",
          "type": "address"
        },
        {
          "internalType": "address",
          "name": "to",
          "type": "address"
        },
        {
          "internalType": "uint256",
          "name": "tokenId",
          "type": "uint256"
        },
        {
          "internalType": "bytes",
          "name": "_data",
          "type": "bytes"
        }
      ],
      "name": "safeTransferFrom",
      "outputs": [],
      "stateMutability": "nonpayable",
      "type": "function"
    }
  ],
  "bytecode": "0x60806040526040518060600160405280602281526020016200365a60229139600b9080519060200190620000359291906200028b565b503480156200004357600080fd5b506040516200367c3803806200367c8339818101604052810190620000699190620003ad565b620000a66301ffc9a77c01000000000000000000000000000000000000000000000000000000000262000197640100000000026401000000009004565b8160069080519060200190620000be9291906200028b565b508060079080519060200190620000d79291906200028b565b50620001156380ac58cd7c01000000000000000000000000000000000000000000000000000000000262000197640100000000026401000000009004565b62000152635b5e139f7c01000000000000000000000000000000000000000000000000000000000262000197640100000000026401000000009004565b6200018f63780e9d637c01000000000000000000000000000000000000000000000000000000000262000197640100000000026401000000009004565b505062000613565b63ffffffff7c010000000000000000000000000000000000000000000000000000000002817bffffffffffffffffffffffffffffffffffffffffffffffffffffffff191614156200021f576040517f08c379a0000000000000000000000000000000000000000000000000000000008152600401620002169062000447565b60405180910390fd5b6001600080837bffffffffffffffffffffffffffffffffffffffffffffffffffffffff19167bffffffffffffffffffffffffffffffffffffffffffffffffffffffff1916815260200190815260200160002060006101000a81548160ff02191690831515021790555050565b82805462000299906200050f565b90600052602060002090601f016020900481019282620002bd576000855562000309565b82601f10620002d857805160ff191683800117855562000309565b8280016001018555821562000309579182015b8281111562000308578251825591602001919060010190620002eb565b5b5090506200031891906200031c565b5090565b5b80821115620003375760008160009055506001016200031d565b5090565b6000620003526200034c8462000492565b62000469565b9050828152602081018484840111156200036b57600080fd5b62000378848285620004d9565b509392505050565b600082601f8301126200039257600080fd5b8151620003a48482602086016200033b565b91505092915050565b60008060408385031215620003c157600080fd5b600083015167ffffffffffffffff811115620003dc57600080fd5b620003ea8582860162000380565b925050602083015167ffffffffffffffff8111156200040857600080fd5b620004168582860162000380565b9150509250929050565b60006200042f601c83620004c8565b91506200043c82620005ea565b602082019050919050565b60006020820190508181036000830152620004628162000420565b9050919050565b60006200047562000488565b905062000483828262000545565b919050565b6000604051905090565b600067ffffffffffffffff821115620004b057620004af620005aa565b5b620004bb82620005d9565b9050602081019050919050565b600082825260208201905092915050565b60005b83811015620004f9578082015181840152602081019050620004dc565b8381111562000509576000848401525b50505050565b600060028204905060018216806200052857607f821691505b602082108114156200053f576200053e6200057b565b5b50919050565b6200055082620005d9565b810181811067ffffffffffffffff82111715620005725762000571620005aa565b5b80604052505050565b7f4e487b7100000000000000000000000000000000000000000000000000000000600052602260045260246000fd5b7f4e487b7100000000000000000000000000000000000000000000000000000000600052604160045260246000fd5b6000601f19601f8301169050919050565b7f4552433136353a20696e76616c696420696e7465726661636520696400000000600082015250565b61303780620006236000396000f3fe608060405234801561001057600080fd5b506004361061013e576000357c0100000000000000000000000000000000000000000000000000000000900480636352211e116100ca578063b88d4fde1161008e578063b88d4fde1461034b578063c57dc23514610367578063c87b56dd14610397578063d48e638a146103c7578063e985e9c5146103f75761013e565b80636352211e146102935780636c0360eb146102c357806370a08231146102e157806395d89b4114610311578063a22cb4651461032f5761013e565b806318160ddd1161011157806318160ddd146101dd57806323b872dd146101fb5780632f745c591461021757806342842e0e146102475780634f6ccce7146102635761013e565b806301ffc9a71461014357806306fdde0314610173578063081812fc14610191578063095ea7b3146101c1575b600080fd5b61015d600480360381019061015891906120b2565b610427565b60405161016a91906124ec565b60405180910390f35b61017b61048e565b6040516101889190612507565b60405180910390f35b6101ab60048036038101906101a69190612104565b610520565b6040516101b89190612485565b60405180910390f35b6101db60048036038101906101d69190612076565b6105a5565b005b6101e56106bd565b6040516101f29190612709565b60405180910390f35b61021560048036038101906102109190611f70565b6106ce565b005b610231600480360381019061022c9190612076565b61072e565b60405161023e9190612709565b60405180910390f35b610261600480360381019061025c9190611f70565b610789565b005b61027d60048036038101906102789190612104565b6107a9565b60405161028a9190612709565b60405180910390f35b6102ad60048036038101906102a89190612104565b6107cc565b6040516102ba9190612485565b60405180910390f35b6102cb610803565b6040516102d89190612507565b60405180910390f35b6102fb60048036038101906102f69190611f0b565b610895565b6040516103089190612709565b60405180910390f35b610319610954565b6040516103269190612507565b60405180910390f35b6103496004803603810190610344919061203a565b6109e6565b005b61036560048036038101906103609190611fbf565b610b67565b005b610381600480360381019061037c9190612104565b610bc9565b60405161038e9190612709565b60405180910390f35b6103b160048036038101906103ac9190612104565b610be6565b6040516103be9190612507565b60405180910390f35b6103e160048036038101906103dc9190612104565b610d59565b6040516103ee9190612485565b60405180910390f35b610411600480360381019061040c9190611f34565b610d96565b60405161041e91906124ec565b60405180910390f35b6000806000837bffffffffffffffffffffffffffffffffffffffffffffffffffffffff19167bffffffffffffffffffffffffffffffffffffffffffffffffffffffff1916815260200190815260200160002060009054906101000a900460ff169050919050565b60606006805461049d9061294b565b80601f01602080910402602001604051908101604052809291908181526020018280546104c99061294b565b80156105165780601f106104eb57610100808354040283529160200191610516565b820191906000526020600020905b8154815290600101906020018083116104f957829003601f168201915b5050505050905090565b600061052b82610e2a565b61056a576040517f08c379a000000000000000000000000000000000000000000000000000000000815260040161056190612649565b60405180910390fd5b6004600083815260200190815260200160002060009054906101000a900473ffffffffffffffffffffffffffffffffffffffff169050919050565b60006105b0826107cc565b90508073ffffffffffffffffffffffffffffffffffffffff168373ffffffffffffffffffffffffffffffffffffffff161415610621576040517f08c379a0000000000000000000000000000000000000000000000000000000008152600401610618906126a9565b60405180910390fd5b8073ffffffffffffffffffffffffffffffffffffffff16610640610e47565b73ffffffffffffffffffffffffffffffffffffffff16148061066f575061066e81610669610e47565b610d96565b5b6106ae576040517f08c379a00000000000000000000000000000000000000000000000000000000081526004016106a5906125e9565b60405180910390fd5b6106b88383610e4f565b505050565b60006106c96002610f08565b905090565b6106df6106d9610e47565b82610f1d565b61071e576040517f08c379a0000000000000000000000000000000000000000000000000000000008152600401610715906126c9565b60405180910390fd5b610729838383610ffb565b505050565b600061078182600160008673ffffffffffffffffffffffffffffffffffffffff1673ffffffffffffffffffffffffffffffffffffffff16815260200190815260200160002061121090919063ffffffff16565b905092915050565b6107a483838360405180602001604052806000815250610b67565b505050565b6000806107c083600261122b90919063ffffffff16565b50905080915050919050565b60006107fc82604051806060016040528060298152602001612fd96029913960026112599092919063ffffffff16565b9050919050565b6060600b80546108129061294b565b80601f016020809104026020016040519081016040528092919081815260200182805461083e9061294b565b801561088b5780601f106108605761010080835404028352916020019161088b565b820191906000526020600020905b81548152906001019060200180831161086e57829003601f168201915b5050505050905090565b60008073ffffffffffffffffffffffffffffffffffffffff168273ffffffffffffffffffffffffffffffffffffffff161415610906576040517f08c379a00000000000000000000000000000000000000000000000000000000081526004016108fd90612609565b60405180910390fd5b61094d600160008473ffffffffffffffffffffffffffffffffffffffff1673ffffffffffffffffffffffffffffffffffffffff168152602001908152602001600020611279565b9050919050565b6060600780546109639061294b565b80601f016020809104026020016040519081016040528092919081815260200182805461098f9061294b565b80156109dc5780601f106109b1576101008083540402835291602001916109dc565b820191906000526020600020905b8154815290600101906020018083116109bf57829003601f168201915b5050505050905090565b6109ee610e47565b73ffffffffffffffffffffffffffffffffffffffff168273ffffffffffffffffffffffffffffffffffffffff161415610a5c576040517f08c379a0000000000000000000000000000000000000000000000000000000008152600401610a5390612589565b60405180910390fd5b8060056000610a69610e47565b73ffffffffffffffffffffffffffffffffffffffff1673ffffffffffffffffffffffffffffffffffffffff16815260200190815260200160002060008473ffffffffffffffffffffffffffffffffffffffff1673ffffffffffffffffffffffffffffffffffffffff16815260200190815260200160002060006101000a81548160ff0219169083151502179055508173ffffffffffffffffffffffffffffffffffffffff16610b16610e47565b73ffffffffffffffffffffffffffffffffffffffff167f17307eab39ab6107e8899845ad3d59bd9653f200f220920489ca2b5937696c3183604051610b5b91906124ec565b60405180910390a35050565b610b78610b72610e47565b83610f1d565b610bb7576040517f08c379a0000000000000000000000000000000000000000000000000000000008152600401610bae906126c9565b60405180910390fd5b610bc38484848461128e565b50505050565b600060096000838152602001908152602001600020549050919050565b6060610bf182610e2a565b610c30576040517f08c379a0000000000000000000000000000000000000000000000000000000008152600401610c2790612689565b60405180910390fd5b6000600860008481526020019081526020016000208054610c509061294b565b80601f0160208091040260200160405190810160405280929190818152602001828054610c7c9061294b565b8015610cc95780601f10610c9e57610100808354040283529160200191610cc9565b820191906000526020600020905b815481529060010190602001808311610cac57829003601f168201915b505050505090506000610cda610803565b9050600081511415610cf0578192505050610d54565b600082511115610d25578082604051602001610d0d929190612461565b60405160208183030381529060405292505050610d54565b80610d2f856112ea565b604051602001610d40929190612461565b604051602081830303815290604052925050505b919050565b6000600a600083815260200190815260200160002060009054906101000a900473ffffffffffffffffffffffffffffffffffffffff169050919050565b6000600560008473ffffffffffffffffffffffffffffffffffffffff1673ffffffffffffffffffffffffffffffffffffffff16815260200190815260200160002060008373ffffffffffffffffffffffffffffffffffffffff1673ffffffffffffffffffffffffffffffffffffffff16815260200190815260200160002060009054906101000a900460ff16905092915050565b6000610e408260026114b690919063ffffffff16565b9050919050565b600033905090565b816004600083815260200190815260200160002060006101000a81548173ffffffffffffffffffffffffffffffffffffffff021916908373ffffffffffffffffffffffffffffffffffffffff160217905550808273ffffffffffffffffffffffffffffffffffffffff16610ec2836107cc565b73ffffffffffffffffffffffffffffffffffffffff167f8c5be1e5ebec7d5bd14f71427d1e84f3dd0314c0f7b2291e5b200ac8c7c3b92560405160405180910390a45050565b6000610f16826000016114d0565b9050919050565b6000610f2882610e2a565b610f67576040517f08c379a0000000000000000000000000000000000000000000000000000000008152600401610f5e906125c9565b60405180910390fd5b6000610f72836107cc565b90508073ffffffffffffffffffffffffffffffffffffffff168473ffffffffffffffffffffffffffffffffffffffff161480610fe157508373ffffffffffffffffffffffffffffffffffffffff16610fc984610520565b73ffffffffffffffffffffffffffffffffffffffff16145b80610ff25750610ff18185610d96565b5b91505092915050565b8273ffffffffffffffffffffffffffffffffffffffff1661101b826107cc565b73ffffffffffffffffffffffffffffffffffffffff1614611071576040517f08c379a000000000000000000000000000000000000000000000000000000000815260040161106890612669565b60405180910390fd5b600073ffffffffffffffffffffffffffffffffffffffff168273ffffffffffffffffffffffffffffffffffffffff1614156110e1576040517f08c379a00000000000000000000000000000000000000000000000000000000081526004016110d890612569565b60405180910390fd5b6110ec8383836114e1565b6110f7600082610e4f565b61114881600160008673ffffffffffffffffffffffffffffffffffffffff1673ffffffffffffffffffffffffffffffffffffffff1681526020019081526020016000206114e690919063ffffffff16565b61119981600160008573ffffffffffffffffffffffffffffffffffffffff1673ffffffffffffffffffffffffffffffffffffffff1681526020019081526020016000206114fb90919063ffffffff16565b6111af818360026115109092919063ffffffff16565b50808273ffffffffffffffffffffffffffffffffffffffff168473ffffffffffffffffffffffffffffffffffffffff167fddf252ad1be2c89b69c2b068fc378daa952ba7f163c4a11628f55a4df523b3ef60405160405180910390a4505050565b600061121f8360000183611545565b60019004905092915050565b60008060008061123e86600001866115df565b91509150816001900481600190049350935050509250929050565b600061126c84600001846001028461168f565b6001900490509392505050565b600061128782600001611756565b9050919050565b611299848484610ffb565b6112a584848484611767565b6112e4576040517f08c379a00000000000000000000000000000000000000000000000000000000081526004016112db90612549565b60405180910390fd5b50505050565b60606000821415611332576040518060400160405280600181526020017f300000000000000000000000000000000000000000000000000000000000000081525090506114b1565b600082905060005b6000821461136457808061134d906129ae565b915050600a8261135d919061281e565b915061133a565b60008167ffffffffffffffff8111156113a6577f4e487b7100000000000000000000000000000000000000000000000000000000600052604160045260246000fd5b6040519080825280601f01601f1916602001820160405280156113d85781602001600182028036833780820191505090505b5090505b600085146114aa576001826113f1919061284f565b9150600a8561140091906129f7565b603061140c91906127c8565b7f010000000000000000000000000000000000000000000000000000000000000002818381518110611467577f4e487b7100000000000000000000000000000000000000000000000000000000600052603260045260246000fd5b60200101907effffffffffffffffffffffffffffffffffffffffffffffffffffffffffffff1916908160001a905350600a856114a3919061281e565b94506113dc565b8093505050505b919050565b60006114c88360000183600102611903565b905092915050565b600081600001805490509050919050565b505050565b6114f68260000182600102611926565b505050565b61150b8260000182600102611ab0565b505050565b600061153c84600001846001028473ffffffffffffffffffffffffffffffffffffffff16600102611b20565b90509392505050565b600081836000018054905011611590576040517f08c379a000000000000000000000000000000000000000000000000000000000815260040161158790612529565b60405180910390fd5b8260000182815481106115cc577f4e487b7100000000000000000000000000000000000000000000000000000000600052603260045260246000fd5b9060005260206000200154905092915050565b6000808284600001805490501161162b576040517f08c379a000000000000000000000000000000000000000000000000000000000815260040161162290612629565b60405180910390fd5b6000846000018481548110611669577f4e487b7100000000000000000000000000000000000000000000000000000000600052603260045260246000fd5b906000526020600020906002020190508060000154816001015492509250509250929050565b600080846001016000858152602001908152602001600020549050600081141583906116f1576040517f08c379a00000000000000000000000000000000000000000000000000000000081526004016116e89190612507565b60405180910390fd5b5084600001600182611703919061284f565b8154811061173a577f4e487b7100000000000000000000000000000000000000000000000000000000600052603260045260246000fd5b9060005260206000209060020201600101549150509392505050565b600081600001805490509050919050565b60006117888473ffffffffffffffffffffffffffffffffffffffff16611c32565b61179557600190506118fb565b600061187863150b7a027c0100000000000000000000000000000000000000000000000000000000026117c6610e47565b8887876040516024016117dc94939291906124a0565b604051602081830303815290604052907bffffffffffffffffffffffffffffffffffffffffffffffffffffffff19166020820180517bffffffffffffffffffffffffffffffffffffffffffffffffffffffff8381831617835250505050604051806060016040528060328152602001612fa7603291398773ffffffffffffffffffffffffffffffffffffffff16611c559092919063ffffffff16565b905060008180602001905181019061189091906120db565b905063150b7a027c0100000000000000000000000000000000000000000000000000000000027bffffffffffffffffffffffffffffffffffffffffffffffffffffffff1916817bffffffffffffffffffffffffffffffffffffffffffffffffffffffff191614925050505b949350505050565b600080836001016000848152602001908152602001600020541415905092915050565b60008083600101600084815260200190815260200160002054905060008114611aa4576000600182611958919061284f565b9050600060018660000180549050611970919061284f565b905060008660000182815481106119b0577f4e487b7100000000000000000000000000000000000000000000000000000000600052603260045260246000fd5b90600052602060002001549050808760000184815481106119fa577f4e487b7100000000000000000000000000000000000000000000000000000000600052603260045260246000fd5b9060005260206000200181905550600183611a1591906127c8565b8760010160008381526020019081526020016000208190555086600001805480611a68577f4e487b7100000000000000000000000000000000000000000000000000000000600052603160045260246000fd5b60019003818190600052602060002001600090559055866001016000878152602001908152602001600020600090556001945050505050611aaa565b60009150505b92915050565b6000611abc8383611c6d565b611b15578260000182908060018154018082558091505060019003906000526020600020016000909190919091505582600001805490508360010160008481526020019081526020016000208190555060019050611b1a565b600090505b92915050565b6000808460010160008581526020019081526020016000205490506000811415611bc757846000016040518060400160405280868152602001858152509080600181540180825580915050600190039060005260206000209060020201600090919091909150600082015181600001556020820151816001015550508460000180549050856001016000868152602001908152602001600020819055506001915050611c2b565b8285600001600183611bd9919061284f565b81548110611c10577f4e487b7100000000000000000000000000000000000000000000000000000000600052603260045260246000fd5b90600052602060002090600202016001018190555060009150505b9392505050565b6000808273ffffffffffffffffffffffffffffffffffffffff163b119050919050565b6060611c648484600085611c90565b90509392505050565b600080836001016000848152602001908152602001600020541415905092915050565b6060823073ffffffffffffffffffffffffffffffffffffffff16311015611cec576040517f08c379a0000000000000000000000000000000000000000000000000000000008152600401611ce3906125a9565b60405180910390fd5b6000808673ffffffffffffffffffffffffffffffffffffffff168587604051611d15919061244a565b60006040518083038185875af1925050503d8060008114611d52576040519150601f19603f3d011682016040523d82523d6000602084013e611d57565b606091505b5091509150611d6887838387611d74565b92505050949350505050565b60608315611dd757600083511415611dcf57611d8f85611c32565b611dce576040517f08c379a0000000000000000000000000000000000000000000000000000000008152600401611dc5906126e9565b60405180910390fd5b5b829050611de2565b611de18383611dea565b5b949350505050565b600082511115611dfd5781518083602001fd5b806040517f08c379a0000000000000000000000000000000000000000000000000000000008152600401611e319190612507565b60405180910390fd5b6000611e4d611e4884612749565b612724565b905082815260208101848484011115611e6557600080fd5b611e70848285612909565b509392505050565b600081359050611e8781612f4a565b92915050565b600081359050611e9c81612f61565b92915050565b600081359050611eb181612f78565b92915050565b600081519050611ec681612f78565b92915050565b600082601f830112611edd57600080fd5b8135611eed848260208601611e3a565b91505092915050565b600081359050611f0581612f8f565b92915050565b600060208284031215611f1d57600080fd5b6000611f2b84828501611e78565b91505092915050565b60008060408385031215611f4757600080fd5b6000611f5585828601611e78565b9250506020611f6685828601611e78565b9150509250929050565b600080600060608486031215611f8557600080fd5b6000611f9386828701611e78565b9350506020611fa486828701611e78565b9250506040611fb586828701611ef6565b9150509250925092565b60008060008060808587031215611fd557600080fd5b6000611fe387828801611e78565b9450506020611ff487828801611e78565b935050604061200587828801611ef6565b925050606085013567ffffffffffffffff81111561202257600080fd5b61202e87828801611ecc565b91505092959194509250565b6000806040838503121561204d57600080fd5b600061205b85828601611e78565b925050602061206c85828601611e8d565b9150509250929050565b6000806040838503121561208957600080fd5b600061209785828601611e78565b92505060206120a885828601611ef6565b9150509250929050565b6000602082840312156120c457600080fd5b60006120d284828501611ea2565b91505092915050565b6000602082840312156120ed57600080fd5b60006120fb84828501611eb7565b91505092915050565b60006020828403121561211657600080fd5b600061212484828501611ef6565b91505092915050565b61213681612895565b82525050565b61214581612883565b82525050565b612154816128a7565b82525050565b60006121658261277a565b61216f8185612790565b935061217f818560208601612918565b61218881612ae4565b840191505092915050565b600061219e8261277a565b6121a881856127a1565b93506121b8818560208601612918565b80840191505092915050565b60006121cf82612785565b6121d981856127ac565b93506121e9818560208601612918565b6121f281612ae4565b840191505092915050565b600061220882612785565b61221281856127bd565b9350612222818560208601612918565b80840191505092915050565b600061223b6022836127ac565b915061224682612af5565b604082019050919050565b600061225e6032836127ac565b915061226982612b44565b604082019050919050565b60006122816024836127ac565b915061228c82612b93565b604082019050919050565b60006122a46019836127ac565b91506122af82612be2565b602082019050919050565b60006122c76026836127ac565b91506122d282612c0b565b604082019050919050565b60006122ea602c836127ac565b91506122f582612c5a565b604082019050919050565b600061230d6038836127ac565b915061231882612ca9565b604082019050919050565b6000612330602a836127ac565b915061233b82612cf8565b604082019050919050565b60006123536022836127ac565b915061235e82612d47565b604082019050919050565b6000612376602c836127ac565b915061238182612d96565b604082019050919050565b60006123996029836127ac565b91506123a482612de5565b604082019050919050565b60006123bc602f836127ac565b91506123c782612e34565b604082019050919050565b60006123df6021836127ac565b91506123ea82612e83565b604082019050919050565b60006124026031836127ac565b915061240d82612ed2565b604082019050919050565b6000612425601d836127ac565b915061243082612f21565b602082019050919050565b612444816128ff565b82525050565b60006124568284612193565b915081905092915050565b600061246d82856121fd565b915061247982846121fd565b91508190509392505050565b600060208201905061249a600083018461213c565b92915050565b60006080820190506124b5600083018761212d565b6124c2602083018661213c565b6124cf604083018561243b565b81810360608301526124e1818461215a565b905095945050505050565b6000602082019050612501600083018461214b565b92915050565b6000602082019050818103600083015261252181846121c4565b905092915050565b600060208201905081810360008301526125428161222e565b9050919050565b6000602082019050818103600083015261256281612251565b9050919050565b6000602082019050818103600083015261258281612274565b9050919050565b600060208201905081810360008301526125a281612297565b9050919050565b600060208201905081810360008301526125c2816122ba565b9050919050565b600060208201905081810360008301526125e2816122dd565b9050919050565b6000602082019050818103600083015261260281612300565b9050919050565b6000602082019050818103600083015261262281612323565b9050919050565b6000602082019050818103600083015261264281612346565b9050919050565b6000602082019050818103600083015261266281612369565b9050919050565b600060208201905081810360008301526126828161238c565b9050919050565b600060208201905081810360008301526126a2816123af565b9050919050565b600060208201905081810360008301526126c2816123d2565b9050919050565b600060208201905081810360008301526126e2816123f5565b9050919050565b6000602082019050818103600083015261270281612418565b9050919050565b600060208201905061271e600083018461243b565b92915050565b600061272e61273f565b905061273a828261297d565b919050565b6000604051905090565b600067ffffffffffffffff82111561276457612763612ab5565b5b61276d82612ae4565b9050602081019050919050565b600081519050919050565b600081519050919050565b600082825260208201905092915050565b600081905092915050565b600082825260208201905092915050565b600081905092915050565b60006127d3826128ff565b91506127de836128ff565b9250827fffffffffffffffffffffffffffffffffffffffffffffffffffffffffffffffff0382111561281357612812612a28565b5b828201905092915050565b6000612829826128ff565b9150612834836128ff565b92508261284457612843612a57565b5b828204905092915050565b600061285a826128ff565b9150612865836128ff565b92508282101561287857612877612a28565b5b828203905092915050565b600061288e826128df565b9050919050565b60006128a0826128df565b9050919050565b60008115159050919050565b60007fffffffff0000000000000000000000000000000000000000000000000000000082169050919050565b600073ffffffffffffffffffffffffffffffffffffffff82169050919050565b6000819050919050565b82818337600083830152505050565b60005b8381101561293657808201518184015260208101905061291b565b83811115612945576000848401525b50505050565b6000600282049050600182168061296357607f821691505b6020821081141561297757612976612a86565b5b50919050565b61298682612ae4565b810181811067ffffffffffffffff821117156129a5576129a4612ab5565b5b80604052505050565b60006129b9826128ff565b91507fffffffffffffffffffffffffffffffffffffffffffffffffffffffffffffffff8214156129ec576129eb612a28565b5b600182019050919050565b6000612a02826128ff565b9150612a0d836128ff565b925082612a1d57612a1c612a57565b5b828206905092915050565b7f4e487b7100000000000000000000000000000000000000000000000000000000600052601160045260246000fd5b7f4e487b7100000000000000000000000000000000000000000000000000000000600052601260045260246000fd5b7f4e487b7100000000000000000000000000000000000000000000000000000000600052602260045260246000fd5b7f4e487b7100000000000000000000000000000000000000000000000000000000600052604160045260246000fd5b6000601f19601f8301169050919050565b7f456e756d657261626c655365743a20696e646578206f7574206f6620626f756e60008201527f6473000000000000000000000000000000000000000000000000000000000000602082015250565b7f4552433732313a207472616e7366657220746f206e6f6e20455243373231526560008201527f63656976657220696d706c656d656e7465720000000000000000000000000000602082015250565b7f4552433732313a207472616e7366657220746f20746865207a65726f2061646460008201527f7265737300000000000000000000000000000000000000000000000000000000602082015250565b7f4552433732313a20617070726f766520746f2063616c6c657200000000000000600082015250565b7f416464726573733a20696e73756666696369656e742062616c616e636520666f60008201527f722063616c6c0000000000000000000000000000000000000000000000000000602082015250565b7f4552433732313a206f70657261746f7220717565727920666f72206e6f6e657860008201527f697374656e7420746f6b656e0000000000000000000000000000000000000000602082015250565b7f4552433732313a20617070726f76652063616c6c6572206973206e6f74206f7760008201527f6e6572206e6f7220617070726f76656420666f7220616c6c0000000000000000602082015250565b7f4552433732313a2062616c616e636520717565727920666f7220746865207a6560008201527f726f206164647265737300000000000000000000000000000000000000000000602082015250565b7f456e756d657261626c654d61703a20696e646578206f7574206f6620626f756e60008201527f6473000000000000000000000000000000000000000000000000000000000000602082015250565b7f4552433732313a20617070726f76656420717565727920666f72206e6f6e657860008201527f697374656e7420746f6b656e0000000000000000000000000000000000000000602082015250565b7f4552433732313a207472616e73666572206f6620746f6b656e2074686174206960008201527f73206e6f74206f776e0000000000000000000000000000000000000000000000602082015250565b7f4552433732314d657461646174613a2055524920717565727920666f72206e6f60008201527f6e6578697374656e7420746f6b656e0000000000000000000000000000000000602082015250565b7f4552433732313a20617070726f76616c20746f2063757272656e74206f776e6560008201527f7200000000000000000000000000000000000000000000000000000000000000602082015250565b7f4552433732313a207472616e736665722063616c6c6572206973206e6f74206f60008201527f776e6572206e6f7220617070726f766564000000000000000000000000000000602082015250565b7f416464726573733a2063616c6c20746f206e6f6e2d636f6e7472616374000000600082015250565b612f5381612883565b8114612f5e57600080fd5b50565b612f6a816128a7565b8114612f7557600080fd5b50565b612f81816128b3565b8114612f8c57600080fd5b50565b612f98816128ff565b8114612fa357600080fd5b5056fe4552433732313a207472616e7366657220746f206e6f6e20455243373231526563656976657220696d706c656d656e7465724552433732313a206f776e657220717565727920666f72206e6f6e6578697374656e7420746f6b656ea264697066735822122045fb39fa7c463c72cfea98090eab8dc744b9b9c3193016600e241c2b46a5c3ea64736f6c6343000804003368747470733a2f2f676174657761792e70696e6174612e636c6f75642f697066732f",
  "immutableReferences": {},
  "source": "// SPDX-License-Identifier: MIT\r\n// OpenZeppelin Contracts (last updated v4.7.0) \r\n\r\npragma solidity ^0.8.4;\r\n\r\nimport \"./External/Context.sol\";\r\nimport \"./External/ERC165.sol\";\r\nimport \"./External/IERC721.sol\";\r\nimport \"./External/IERC721Metadata.sol\";\r\nimport \"./External/IERC721Enumerable.sol\";\r\nimport \"./External/Address.sol\";\r\nimport \"./External/EnumerableMap.sol\";\r\nimport \"./External/EnumerableSet.sol\";\r\nimport \"./External/Strings.sol\";\r\nimport \"./External/IERC721Receiver.sol\";\r\n\r\n\r\ncontract ERC721 is Context, ERC165, IERC721, IERC721Metadata, IERC721Enumerable {\r\n    \r\n    using Address for address;\r\n    using EnumerableSet for EnumerableSet.UintSet;\r\n    using EnumerableMap for EnumerableMap.UintToAddressMap;\r\n    using Strings for uint256;\r\n\r\n    bytes4 private constant _ERC721_RECEIVED = 0x150b7a02;\r\n\r\n    // Mapping from token ID to account balances\r\n\r\n    mapping (address => EnumerableSet.UintSet) private _holderTokens;\r\n\r\n    EnumerableMap.UintToAddressMap private _tokenOwners;\r\n\r\n     // Mapping from tokenId to operator approvals\r\n\r\n    mapping (uint256 => address) private _tokenApprovals;\r\n\r\n    // Mapping from account to operator approvals\r\n\r\n    mapping (address => mapping (address => bool)) private _operatorApprovals;\r\n\r\n    string private _name;\r\n\r\n    string private _symbol;\r\n\r\n    // mapping for token URIs\r\n\r\n    mapping (uint256 => string) private _tokenURIs;\r\n\r\n   // mapping for token royaltyFee    \r\n\r\n    mapping(uint256 => uint256) private _royaltyFee;\r\n\r\n  // mapping for token creator\r\n\r\n    mapping (uint256 => address) private _creator;\r\n\r\n    string private _baseURI = \"https://gateway.pinata.cloud/ipfs/\";\r\n\r\n    bytes4 private constant _INTERFACE_ID_ERC721 = 0x80ac58cd;\r\n\r\n    bytes4 private constant _INTERFACE_ID_ERC721_METADATA = 0x5b5e139f;\r\n\r\n    bytes4 private constant _INTERFACE_ID_ERC721_ENUMERABLE = 0x780e9d63;\r\n\r\n    constructor (string memory name_, string memory symbol_) {\r\n        _name = name_;\r\n        _symbol = symbol_;\r\n\r\n        _registerInterface(_INTERFACE_ID_ERC721);\r\n        _registerInterface(_INTERFACE_ID_ERC721_METADATA);\r\n        _registerInterface(_INTERFACE_ID_ERC721_ENUMERABLE);\r\n    }\r\n\r\n    /**\r\n        @notice Get the Token balance of an account's.\r\n        @param owner  The address of the token holder\r\n        @return        The account's balance of the Token type requested\r\n     */\r\n\r\n    function balanceOf(address owner) external view virtual override returns (uint256) {\r\n        require(owner != address(0), \"ERC721: balance query for the zero address\");\r\n        return _holderTokens[owner].length();\r\n    }\r\n\r\n    /**\r\n        @notice Get the owner of tokenId.\r\n        @param tokenId  The tokenId of the token holder\r\n        @return        The current owner of the requested tokenId\r\n     */\r\n\r\n    function ownerOf(uint256 tokenId) public view virtual override returns (address) {\r\n        return _tokenOwners.get(tokenId, \"ERC721: owner query for nonexistent token\");\r\n    }\r\n\r\n    function name() external view virtual override returns (string memory) {\r\n        return _name;\r\n    }\r\n\r\n    function symbol() external view virtual override returns (string memory) {\r\n        return _symbol;\r\n    }\r\n\r\n    function tokenURI(uint256 tokenId) external view virtual override returns (string memory) {\r\n        require(_exists(tokenId), \"ERC721Metadata: URI query for nonexistent token\");\r\n\r\n        string memory _tokenURI = _tokenURIs[tokenId];\r\n        string memory base = baseURI();\r\n\r\n        if (bytes(base).length == 0) {\r\n            return _tokenURI;\r\n        }\r\n        if (bytes(_tokenURI).length > 0) {\r\n            return string(abi.encodePacked(base, _tokenURI));\r\n        }\r\n        return string(abi.encodePacked(base, tokenId.toString()));\r\n    }\r\n\r\n    function baseURI() public view virtual returns (string memory) {\r\n        return _baseURI;\r\n    }\r\n\r\n    function royaltyFee(uint256 tokenId) external view override returns(uint256) {\r\n        return _royaltyFee[tokenId];\r\n    }\r\n\r\n    function getCreator(uint256 tokenId) external view override returns(address) {\r\n        return _creator[tokenId];\r\n    }\r\n\r\n    function tokenOfOwnerByIndex(address owner, uint256 index) external view virtual override returns (uint256) {\r\n        return _holderTokens[owner].at(index);\r\n    }\r\n\r\n    function totalSupply() external view virtual override returns (uint256) {\r\n        return _tokenOwners.length();\r\n    }\r\n\r\n    function tokenByIndex(uint256 index) external view virtual override returns (uint256) {\r\n        (uint256 tokenId, ) = _tokenOwners.at(index);\r\n        return tokenId;\r\n    }\r\n\r\n    function approve(address to, uint256 tokenId) external virtual override {\r\n        address owner = ERC721.ownerOf(tokenId);\r\n        require(to != owner, \"ERC721: approval to current owner\");\r\n\r\n        require(_msgSender() == owner || ERC721.isApprovedForAll(owner, _msgSender()),\r\n            \"ERC721: approve caller is not owner nor approved for all\"\r\n        );\r\n\r\n        _approve(to, tokenId);\r\n    }\r\n\r\n    function getApproved(uint256 tokenId) public view virtual override returns (address) {\r\n        require(_exists(tokenId), \"ERC721: approved query for nonexistent token\");\r\n\r\n        return _tokenApprovals[tokenId];\r\n    }\r\n\r\n    /**\r\n        @notice Enable or disable approval for a third party (\"operator\") to manage all of the caller's tokens.\r\n        @dev MUST emit the ApprovalForAll event on success.\r\n        @param operator  Address to add to the set of authorized operators\r\n        @param approved  True if the operator is approved, false to revoke approval\r\n    */\r\n\r\n    function setApprovalForAll(address operator, bool approved) external virtual override {\r\n        require(operator != _msgSender(), \"ERC721: approve to caller\");\r\n\r\n        _operatorApprovals[_msgSender()][operator] = approved;\r\n        emit ApprovalForAll(_msgSender(), operator, approved);\r\n    }\r\n\r\n    /**\r\n        @notice Queries the approval status of an operator for a given owner.\r\n        @param owner     The owner of the Tokens\r\n        @param operator  Address of authorized operator\r\n        @return           True if the operator is approved, false if not\r\n    */\r\n\r\n    function isApprovedForAll(address owner, address operator) public view virtual override returns (bool) {\r\n        return _operatorApprovals[owner][operator];\r\n    }\r\n\r\n    function transferFrom(address from, address to, uint256 tokenId) external virtual override {\r\n        require(_isApprovedOrOwner(_msgSender(), tokenId), \"ERC721: transfer caller is not owner nor approved\");\r\n\r\n        _transfer(from, to, tokenId);\r\n    }\r\n\r\n    function safeTransferFrom(address from, address to, uint256 tokenId) external virtual override {\r\n        safeTransferFrom(from, to, tokenId, \"\");\r\n    }\r\n\r\n\r\n    /**\r\n        @notice Transfers `_value` amount of an `_id` from the `_from` address to the `_to` address specified (with safety call).\r\n        @dev Caller must be approved to manage the tokens being transferred out of the `_from` account (see \"Approval\" section of the standard).\r\n        MUST revert if `_to` is the zero address.\r\n        MUST revert if balance of holder for token `_id` is lower than the `_value` sent.\r\n        MUST revert on any other error.\r\n        MUST emit the `TransferSingle` event to reflect the balance change (see \"Safe Transfer Rules\" section of the standard).\r\n        After the above conditions are met, this function MUST check if `_to` is a smart contract (e.g. code size > 0). If so, it MUST call `onERC721Received` on `_to` and act appropriately (see \"Safe Transfer Rules\" section of the standard).\r\n        @param from    Source address\r\n        @param to      Target address\r\n        @param tokenId      ID of the token type.\r\n        @param _data    Additional data with no specified format, MUST be sent unaltered in call to `onERC721Received` on `_to`\r\n    */\r\n\r\n    function safeTransferFrom(address from, address to, uint256 tokenId, bytes memory _data) public virtual override {\r\n        require(_isApprovedOrOwner(_msgSender(), tokenId), \"ERC721: transfer caller is not owner nor approved\");\r\n        _safeTransfer(from, to, tokenId, _data);\r\n\r\n    }\r\n\r\n    function _safeTransfer(address from, address to, uint256 tokenId, bytes memory _data) internal virtual {\r\n        _transfer(from, to, tokenId);\r\n        require(_checkOnERC721Received(from, to, tokenId, _data), \"ERC721: transfer to non ERC721Receiver implementer\");\r\n    }\r\n\r\n    function _exists(uint256 tokenId) internal view virtual returns (bool) {\r\n        return _tokenOwners.contains(tokenId);\r\n    }\r\n\r\n    function _isApprovedOrOwner(address spender, uint256 tokenId) internal view virtual returns (bool) {\r\n        require(_exists(tokenId), \"ERC721: operator query for nonexistent token\");\r\n        address owner = ERC721.ownerOf(tokenId);\r\n        return (spender == owner || getApproved(tokenId) == spender || ERC721.isApprovedForAll(owner, spender));\r\n    }\r\n\r\n    function _safeMint(address to, uint256 tokenId, uint256 fee) internal virtual {\r\n        _safeMint(to, tokenId, fee, \"\");\r\n    }\r\n\r\n    function _safeMint(address to, uint256 tokenId, uint256 fee, bytes memory _data) internal virtual {\r\n        _mint(to, tokenId, fee);\r\n        require(_checkOnERC721Received(address(0), to, tokenId, _data), \"ERC721: transfer to non ERC721Receiver implementer\");\r\n    }\r\n\r\n    function _mint(address to, uint256 tokenId, uint256 fee) internal virtual {\r\n        require(to != address(0), \"ERC721: mint to the zero address\");\r\n        require(!_exists(tokenId), \"ERC721: token already minted\");\r\n\r\n        _beforeTokenTransfer(address(0), to, tokenId);\r\n\r\n        _holderTokens[to].add(tokenId);\r\n\r\n        _tokenOwners.set(tokenId, to);\r\n        _creator[tokenId] = msg.sender;\r\n        _royaltyFee[tokenId] = fee;\r\n\r\n        emit Transfer(address(0), to, tokenId);\r\n       \r\n    }\r\n\r\n     /**\r\n     * @dev Internal function to burn a specific token.\r\n     * Reverts if the token does not exist.\r\n     * Deprecated, use {ERC721-_burn} instead.\r\n     * required msg.sender must be owner of the token.\r\n     * @param tokenId uint256 Token being burned\r\n     */\r\n\r\n    function _burn(uint256 tokenId) internal virtual {\r\n        require(msg.sender == ownerOf(tokenId),\"caller not owner\");\r\n        address owner = ERC721.ownerOf(tokenId); // internal owner\r\n\r\n        _beforeTokenTransfer(owner, address(0), tokenId);\r\n\r\n        _approve(address(0), tokenId);\r\n\r\n        if (bytes(_tokenURIs[tokenId]).length != 0) {\r\n            delete _tokenURIs[tokenId];\r\n        }\r\n\r\n        _holderTokens[owner].remove(tokenId);\r\n\r\n        _tokenOwners.remove(tokenId);\r\n\r\n        emit Transfer(owner, address(0), tokenId);\r\n    }\r\n\r\n    function _transfer(address from, address to, uint256 tokenId) internal virtual {\r\n        require(ERC721.ownerOf(tokenId) == from, \"ERC721: transfer of token that is not own\"); // internal owner\r\n        require(to != address(0), \"ERC721: transfer to the zero address\");\r\n\r\n        _beforeTokenTransfer(from, to, tokenId);\r\n\r\n        _approve(address(0), tokenId);\r\n\r\n        _holderTokens[from].remove(tokenId);\r\n        _holderTokens[to].add(tokenId);\r\n\r\n        _tokenOwners.set(tokenId, to);\r\n\r\n        emit Transfer(from, to, tokenId);\r\n    }\r\n\r\n     /**\r\n     * @dev Internal function to set the token URI for a given token.\r\n     * Reverts if the token ID does not exist.\r\n     * @param tokenId uint256 ID of the token to set its URI\r\n     * @param _tokenURI string URI to assign\r\n     */\r\n\r\n    function _setTokenURI(uint256 tokenId, string memory _tokenURI) internal virtual {\r\n        require(_exists(tokenId), \"ERC721Metadata: URI set of nonexistent token\");\r\n        _tokenURIs[tokenId] = _tokenURI;\r\n         emit URI(_tokenURI, tokenId);\r\n    }\r\n\r\n    function _setBaseURI(string memory baseURI_) internal virtual {\r\n        _baseURI = baseURI_;\r\n        emit tokenBaseURI(baseURI_);\r\n    }\r\n\r\n    function _checkOnERC721Received(address from, address to, uint256 tokenId, bytes memory _data)\r\n        private returns (bool)\r\n    {\r\n        if (!to.isContract()) {\r\n            return true;\r\n        }\r\n        bytes memory returndata = to.functionCall(abi.encodeWithSelector(\r\n            IERC721Receiver(to).onERC721Received.selector,\r\n            _msgSender(),\r\n            from,\r\n            tokenId,\r\n            _data\r\n        ), \"ERC721: transfer to non ERC721Receiver implementer\");\r\n        bytes4 retval = abi.decode(returndata, (bytes4));\r\n        return (retval == _ERC721_RECEIVED);\r\n    }\r\n\r\n    function _approve(address to, uint256 tokenId) internal virtual {\r\n        _tokenApprovals[tokenId] = to;\r\n        emit Approval(ERC721.ownerOf(tokenId), to, tokenId); // internal owner\r\n    }\r\n\r\n    function _beforeTokenTransfer(address from, address to, uint256 tokenId) internal virtual { }\r\n}",
  "sourcePath": "C:\\Users\\91863\\Arevea\\contracts\\ERC721.sol",
  "compiler": {
    "name": "solc",
    "version": "0.8.4+commit.c7e474f2.Emscripten.clang"
  },
  "schemaVersion": "3.4.8",
  "updatedAt": "2022-07-26T11:53:07.369Z",
  "devdoc": {
    "kind": "dev",
    "methods": {
      "balanceOf(address)": {
        "params": {
          "owner": "The address of the token holder"
        },
        "returns": {
          "_0": "The account's balance of the Token type requested"
        }
      },
      "isApprovedForAll(address,address)": {
        "params": {
          "operator": "Address of authorized operator",
          "owner": "The owner of the Tokens"
        },
        "returns": {
          "_0": "True if the operator is approved, false if not"
        }
      },
      "name()": {
        "details": "Returns the token collection name."
      },
      "ownerOf(uint256)": {
        "params": {
          "tokenId": "The tokenId of the token holder"
        },
        "returns": {
          "_0": "The current owner of the requested tokenId"
        }
      },
      "safeTransferFrom(address,address,uint256,bytes)": {
        "details": "Caller must be approved to manage the tokens being transferred out of the `_from` account (see \"Approval\" section of the standard). MUST revert if `_to` is the zero address. MUST revert if balance of holder for token `_id` is lower than the `_value` sent. MUST revert on any other error. MUST emit the `TransferSingle` event to reflect the balance change (see \"Safe Transfer Rules\" section of the standard). After the above conditions are met, this function MUST check if `_to` is a smart contract (e.g. code size > 0). If so, it MUST call `onERC721Received` on `_to` and act appropriately (see \"Safe Transfer Rules\" section of the standard).",
        "params": {
          "_data": "Additional data with no specified format, MUST be sent unaltered in call to `onERC721Received` on `_to`",
          "from": "Source address",
          "to": "Target address",
          "tokenId": "ID of the token type."
        }
      },
      "setApprovalForAll(address,bool)": {
        "details": "MUST emit the ApprovalForAll event on success.",
        "params": {
          "approved": "True if the operator is approved, false to revoke approval",
          "operator": "Address to add to the set of authorized operators"
        }
      },
      "supportsInterface(bytes4)": {
        "details": "Returns true if this contract implements the interface defined by `interfaceId`. See the corresponding https://eips.ethereum.org/EIPS/eip-165#how-interfaces-are-identified[EIP section] to learn more about how these ids are created. This function call must use less than 30 000 gas."
      },
      "symbol()": {
        "details": "Returns the token collection symbol."
      },
      "tokenByIndex(uint256)": {
        "details": "Returns a token ID at a given `index` of all the tokens stored by the contract. Use along with {totalSupply} to enumerate all tokens."
      },
      "tokenOfOwnerByIndex(address,uint256)": {
        "details": "Returns a token ID owned by `owner` at a given `index` of its token list. Use along with {balanceOf} to enumerate all of ``owner``'s tokens."
      },
      "tokenURI(uint256)": {
        "details": "Returns the Uniform Resource Identifier (URI) for `tokenId` token."
      },
      "totalSupply()": {
        "details": "Returns the total amount of tokens stored by the contract."
      }
    },
    "version": 1
  },
  "userdoc": {
    "kind": "user",
    "methods": {
      "balanceOf(address)": {
        "notice": "Get the Token balance of an account's."
      },
      "isApprovedForAll(address,address)": {
        "notice": "Queries the approval status of an operator for a given owner."
      },
      "ownerOf(uint256)": {
        "notice": "Get the owner of tokenId."
      },
      "safeTransferFrom(address,address,uint256,bytes)": {
        "notice": "Transfers `_value` amount of an `_id` from the `_from` address to the `_to` address specified (with safety call)."
      },
      "setApprovalForAll(address,bool)": {
        "notice": "Enable or disable approval for a third party (\"operator\") to manage all of the caller's tokens."
      }
    },
    "version": 1
  }
}