{
  "contractName": "MultipleNFT",
  "abi": [
    {
      "inputs": [
        {
          "internalType": "string",
          "name": "name",
          "type": "string"
        },
        {
          "internalType": "string",
          "name": "symbol",
          "type": "string"
        }
      ],
      "stateMutability": "nonpayable",
      "type": "constructor"
    },
    {
      "anonymous": false,
      "inputs": [
        {
          "indexed": true,
          "internalType": "address",
          "name": "account",
          "type": "address"
        },
        {
          "indexed": true,
          "internalType": "address",
          "name": "operator",
          "type": "address"
        },
        {
          "indexed": false,
          "internalType": "bool",
          "name": "approved",
          "type": "bool"
        }
      ],
      "name": "ApprovalForAll",
      "type": "event"
    },
    {
      "anonymous": false,
      "inputs": [
        {
          "indexed": true,
          "internalType": "address",
          "name": "previousOwner",
          "type": "address"
        },
        {
          "indexed": true,
          "internalType": "address",
          "name": "newOwner",
          "type": "address"
        }
      ],
      "name": "OwnershipTransferred",
      "type": "event"
    },
    {
      "anonymous": false,
      "inputs": [
        {
          "indexed": true,
          "internalType": "address",
          "name": "operator",
          "type": "address"
        },
        {
          "indexed": true,
          "internalType": "address",
          "name": "from",
          "type": "address"
        },
        {
          "indexed": true,
          "internalType": "address",
          "name": "to",
          "type": "address"
        },
        {
          "indexed": false,
          "internalType": "uint256[]",
          "name": "ids",
          "type": "uint256[]"
        },
        {
          "indexed": false,
          "internalType": "uint256[]",
          "name": "values",
          "type": "uint256[]"
        }
      ],
      "name": "TransferBatch",
      "type": "event"
    },
    {
      "anonymous": false,
      "inputs": [
        {
          "indexed": true,
          "internalType": "address",
          "name": "operator",
          "type": "address"
        },
        {
          "indexed": true,
          "internalType": "address",
          "name": "from",
          "type": "address"
        },
        {
          "indexed": true,
          "internalType": "address",
          "name": "to",
          "type": "address"
        },
        {
          "indexed": false,
          "internalType": "uint256",
          "name": "id",
          "type": "uint256"
        },
        {
          "indexed": false,
          "internalType": "uint256",
          "name": "value",
          "type": "uint256"
        }
      ],
      "name": "TransferSingle",
      "type": "event"
    },
    {
      "anonymous": false,
      "inputs": [
        {
          "indexed": false,
          "internalType": "string",
          "name": "value",
          "type": "string"
        },
        {
          "indexed": true,
          "internalType": "uint256",
          "name": "id",
          "type": "uint256"
        }
      ],
      "name": "URI",
      "type": "event"
    },
    {
      "anonymous": false,
      "inputs": [
        {
          "indexed": false,
          "internalType": "string",
          "name": "value",
          "type": "string"
        }
      ],
      "name": "tokenBaseURI",
      "type": "event"
    },
    {
      "inputs": [
        {
          "internalType": "address",
          "name": "account",
          "type": "address"
        },
        {
          "internalType": "uint256",
          "name": "tokenId",
          "type": "uint256"
        }
      ],
      "name": "balanceOf",
      "outputs": [
        {
          "internalType": "uint256",
          "name": "",
          "type": "uint256"
        }
      ],
      "stateMutability": "view",
      "type": "function",
      "constant": true
    },
    {
      "inputs": [
        {
          "internalType": "address[]",
          "name": "accounts",
          "type": "address[]"
        },
        {
          "internalType": "uint256[]",
          "name": "ids",
          "type": "uint256[]"
        }
      ],
      "name": "balanceOfBatch",
      "outputs": [
        {
          "internalType": "uint256[]",
          "name": "",
          "type": "uint256[]"
        }
      ],
      "stateMutability": "view",
      "type": "function",
      "constant": true
    },
    {
      "inputs": [
        {
          "internalType": "uint256",
          "name": "tokenId",
          "type": "uint256"
        }
      ],
      "name": "getCreator",
      "outputs": [
        {
          "internalType": "address",
          "name": "",
          "type": "address"
        }
      ],
      "stateMutability": "view",
      "type": "function",
      "constant": true
    },
    {
      "inputs": [
        {
          "internalType": "address",
          "name": "account",
          "type": "address"
        },
        {
          "internalType": "address",
          "name": "operator",
          "type": "address"
        }
      ],
      "name": "isApprovedForAll",
      "outputs": [
        {
          "internalType": "bool",
          "name": "",
          "type": "bool"
        }
      ],
      "stateMutability": "view",
      "type": "function",
      "constant": true
    },
    {
      "inputs": [],
      "name": "name",
      "outputs": [
        {
          "internalType": "string",
          "name": "",
          "type": "string"
        }
      ],
      "stateMutability": "view",
      "type": "function",
      "constant": true
    },
    {
      "inputs": [],
      "name": "owner",
      "outputs": [
        {
          "internalType": "address",
          "name": "",
          "type": "address"
        }
      ],
      "stateMutability": "view",
      "type": "function",
      "constant": true
    },
    {
      "inputs": [
        {
          "internalType": "uint256",
          "name": "tokenId",
          "type": "uint256"
        }
      ],
      "name": "royaltyFee",
      "outputs": [
        {
          "internalType": "uint256",
          "name": "",
          "type": "uint256"
        }
      ],
      "stateMutability": "view",
      "type": "function",
      "constant": true
    },
    {
      "inputs": [
        {
          "internalType": "address",
          "name": "from",
          "type": "address"
        },
        {
          "internalType": "address",
          "name": "to",
          "type": "address"
        },
        {
          "internalType": "uint256[]",
          "name": "tokenIds",
          "type": "uint256[]"
        },
        {
          "internalType": "uint256[]",
          "name": "amounts",
          "type": "uint256[]"
        },
        {
          "internalType": "bytes",
          "name": "data",
          "type": "bytes"
        }
      ],
      "name": "safeBatchTransferFrom",
      "outputs": [],
      "stateMutability": "nonpayable",
      "type": "function"
    },
    {
      "inputs": [
        {
          "internalType": "address",
          "name": "from",
          "type": "address"
        },
        {
          "internalType": "address",
          "name": "to",
          "type": "address"
        },
        {
          "internalType": "uint256",
          "name": "tokenId",
          "type": "uint256"
        },
        {
          "internalType": "uint256",
          "name": "amount",
          "type": "uint256"
        },
        {
          "internalType": "bytes",
          "name": "data",
          "type": "bytes"
        }
      ],
      "name": "safeTransferFrom",
      "outputs": [],
      "stateMutability": "nonpayable",
      "type": "function"
    },
    {
      "inputs": [
        {
          "internalType": "address",
          "name": "operator",
          "type": "address"
        },
        {
          "internalType": "bool",
          "name": "approved",
          "type": "bool"
        }
      ],
      "name": "setApprovalForAll",
      "outputs": [],
      "stateMutability": "nonpayable",
      "type": "function"
    },
    {
      "inputs": [
        {
          "internalType": "bytes4",
          "name": "interfaceId",
          "type": "bytes4"
        }
      ],
      "name": "supportsInterface",
      "outputs": [
        {
          "internalType": "bool",
          "name": "",
          "type": "bool"
        }
      ],
      "stateMutability": "view",
      "type": "function",
      "constant": true
    },
    {
      "inputs": [],
      "name": "symbol",
      "outputs": [
        {
          "internalType": "string",
          "name": "",
          "type": "string"
        }
      ],
      "stateMutability": "view",
      "type": "function",
      "constant": true
    },
    {
      "inputs": [
        {
          "internalType": "uint256",
          "name": "tokenId",
          "type": "uint256"
        }
      ],
      "name": "tokenURI",
      "outputs": [
        {
          "internalType": "string",
          "name": "",
          "type": "string"
        }
      ],
      "stateMutability": "view",
      "type": "function",
      "constant": true
    },
    {
      "inputs": [],
      "name": "tokenURIPrefix",
      "outputs": [
        {
          "internalType": "string",
          "name": "",
          "type": "string"
        }
      ],
      "stateMutability": "view",
      "type": "function",
      "constant": true
    },
    {
      "inputs": [
        {
          "internalType": "address",
          "name": "newOwner",
          "type": "address"
        }
      ],
      "name": "transferOwnership",
      "outputs": [
        {
          "internalType": "bool",
          "name": "",
          "type": "bool"
        }
      ],
      "stateMutability": "nonpayable",
      "type": "function"
    },
    {
      "inputs": [
        {
          "internalType": "string",
          "name": "uri",
          "type": "string"
        },
        {
          "internalType": "uint256",
          "name": "supply",
          "type": "uint256"
        },
        {
          "internalType": "uint256",
          "name": "fee",
          "type": "uint256"
        }
      ],
      "name": "createMultiple",
      "outputs": [],
      "stateMutability": "nonpayable",
      "type": "function"
    },
    {
      "inputs": [
        {
          "internalType": "string",
          "name": "_baseURI",
          "type": "string"
        }
      ],
      "name": "setBaseURI",
      "outputs": [],
      "stateMutability": "nonpayable",
      "type": "function"
    },
    {
      "inputs": [
        {
          "internalType": "uint256",
          "name": "tokenId",
          "type": "uint256"
        },
        {
          "internalType": "uint256",
          "name": "supply",
          "type": "uint256"
        }
      ],
      "name": "burn",
      "outputs": [],
      "stateMutability": "nonpayable",
      "type": "function"
    },
    {
      "inputs": [
        {
          "internalType": "uint256[]",
          "name": "tokenIds",
          "type": "uint256[]"
        },
        {
          "internalType": "uint256[]",
          "name": "amounts",
          "type": "uint256[]"
        }
      ],
      "name": "burnBatch",
      "outputs": [],
      "stateMutability": "nonpayable",
      "type": "function"
    }
  ],
  "bytecode": "0x608060405260405180602001604052806000815250600590805190602001906200002b9291906200028e565b506001600b553480156200003e57600080fd5b5060405162004bea38038062004bea8339818101604052810190620000649190620003b0565b8181620000a36301ffc9a77c0100000000000000000000000000000000000000000000000000000000026200019a640100000000026401000000009004565b8160099080519060200190620000bb9291906200028e565b5080600a9080519060200190620000d49291906200028e565b506200011263d9b67a267c0100000000000000000000000000000000000000000000000000000000026200019a640100000000026401000000009004565b6200014f630e89341c7c0100000000000000000000000000000000000000000000000000000000026200019a640100000000026401000000009004565b505033600c60006101000a81548173ffffffffffffffffffffffffffffffffffffffff021916908373ffffffffffffffffffffffffffffffffffffffff160217905550505062000616565b63ffffffff7c010000000000000000000000000000000000000000000000000000000002817bffffffffffffffffffffffffffffffffffffffffffffffffffffffff1916141562000222576040517f08c379a000000000000000000000000000000000000000000000000000000000815260040162000219906200044a565b60405180910390fd5b6001600080837bffffffffffffffffffffffffffffffffffffffffffffffffffffffff19167bffffffffffffffffffffffffffffffffffffffffffffffffffffffff1916815260200190815260200160002060006101000a81548160ff02191690831515021790555050565b8280546200029c9062000512565b90600052602060002090601f016020900481019282620002c057600085556200030c565b82601f10620002db57805160ff19168380011785556200030c565b828001600101855582156200030c579182015b828111156200030b578251825591602001919060010190620002ee565b5b5090506200031b91906200031f565b5090565b5b808211156200033a57600081600090555060010162000320565b5090565b6000620003556200034f8462000495565b6200046c565b9050828152602081018484840111156200036e57600080fd5b6200037b848285620004dc565b509392505050565b600082601f8301126200039557600080fd5b8151620003a78482602086016200033e565b91505092915050565b60008060408385031215620003c457600080fd5b600083015167ffffffffffffffff811115620003df57600080fd5b620003ed8582860162000383565b925050602083015167ffffffffffffffff8111156200040b57600080fd5b620004198582860162000383565b9150509250929050565b600062000432601c83620004cb565b91506200043f82620005ed565b602082019050919050565b60006020820190508181036000830152620004658162000423565b9050919050565b6000620004786200048b565b905062000486828262000548565b919050565b6000604051905090565b600067ffffffffffffffff821115620004b357620004b2620005ad565b5b620004be82620005dc565b9050602081019050919050565b600082825260208201905092915050565b60005b83811015620004fc578082015181840152602081019050620004df565b838111156200050c576000848401525b50505050565b600060028204905060018216806200052b57607f821691505b602082108114156200054257620005416200057e565b5b50919050565b6200055382620005dc565b810181811067ffffffffffffffff82111715620005755762000574620005ad565b5b80604052505050565b7f4e487b7100000000000000000000000000000000000000000000000000000000600052602260045260246000fd5b7f4e487b7100000000000000000000000000000000000000000000000000000000600052604160045260246000fd5b6000601f19601f8301169050919050565b7f4552433136353a20696e76616c696420696e7465726661636520696400000000600082015250565b6145c480620006266000396000f3fe608060405234801561001057600080fd5b506004361061013d576000357c01000000000000000000000000000000000000000000000000000000009004806395d89b41116100ca578063c87b56dd1161008e578063c87b56dd14610322578063d48e638a14610352578063e985e9c514610382578063f242432a146103b2578063f2fde38b146103ce5761013d565b806395d89b411461027e578063a22cb4651461029c578063b390c0ab146102b8578063c0ac9983146102d4578063c57dc235146102f25761013d565b80634e1273f4116101115780634e1273f4146101dc57806355f804b31461020c57806383ca4b6f146102285780638da5cb5b146102445780638f9cbe72146102625761013d565b8062fdd58e1461014257806301ffc9a71461017257806306fdde03146101a25780632eb2c2d6146101c0575b600080fd5b61015c60048036038101906101579190612f0f565b6103fe565b60405161016991906139aa565b60405180910390f35b61018c60048036038101906101879190613023565b610511565b60405161019991906136ed565b60405180910390f35b6101aa610578565b6040516101b79190613708565b60405180910390f35b6101da60048036038101906101d59190612d85565b61060a565b005b6101f660048036038101906101f19190612f4b565b610a2b565b6040516102039190613694565b60405180910390f35b61022660048036038101906102219190613075565b610cd3565b005b610242600480360381019061023d9190612fb7565b610d6f565b005b61024c610d7e565b60405161025991906135b7565b60405180910390f35b61027c600480360381019061027791906130b6565b610da4565b005b610286610dcc565b6040516102939190613708565b60405180910390f35b6102b660048036038101906102b19190612ed3565b610e5e565b005b6102d260048036038101906102cd9190613146565b610fdf565b005b6102dc610fee565b6040516102e99190613708565b60405180910390f35b61030c6004803603810190610307919061311d565b61107c565b60405161031991906139aa565b60405180910390f35b61033c6004803603810190610337919061311d565b611099565b6040516103499190613708565b60405180910390f35b61036c6004803603810190610367919061311d565b61128f565b60405161037991906135b7565b60405180910390f35b61039c60048036038101906103979190612d49565b6112cc565b6040516103a991906136ed565b60405180910390f35b6103cc60048036038101906103c79190612e44565b611360565b005b6103e860048036038101906103e39190612d20565b6116a3565b6040516103f591906136ed565b60405180910390f35b60006104098261186b565b610448576040517f08c379a000000000000000000000000000000000000000000000000000000000815260040161043f9061386a565b60405180910390fd5b600073ffffffffffffffffffffffffffffffffffffffff168373ffffffffffffffffffffffffffffffffffffffff1614156104b8576040517f08c379a00000000000000000000000000000000000000000000000000000000081526004016104af9061376a565b60405180910390fd5b6003600083815260200190815260200160002060008473ffffffffffffffffffffffffffffffffffffffff1673ffffffffffffffffffffffffffffffffffffffff16815260200190815260200160002054905092915050565b6000806000837bffffffffffffffffffffffffffffffffffffffffffffffffffffffff19167bffffffffffffffffffffffffffffffffffffffffffffffffffffffff1916815260200190815260200160002060009054906101000a900460ff169050919050565b60606009805461058790613cba565b80601f01602080910402602001604051908101604052809291908181526020018280546105b390613cba565b80156106005780601f106105d557610100808354040283529160200191610600565b820191906000526020600020905b8154815290600101906020018083116105e357829003601f168201915b5050505050905090565b815183511461064e576040517f08c379a00000000000000000000000000000000000000000000000000000000081526004016106459061394a565b60405180910390fd5b600073ffffffffffffffffffffffffffffffffffffffff168473ffffffffffffffffffffffffffffffffffffffff1614156106be576040517f08c379a00000000000000000000000000000000000000000000000000000000081526004016106b59061382a565b60405180910390fd5b6106c6611888565b73ffffffffffffffffffffffffffffffffffffffff168573ffffffffffffffffffffffffffffffffffffffff16148061070c575061070b85610706611888565b6112cc565b5b61074b576040517f08c379a00000000000000000000000000000000000000000000000000000000081526004016107429061384a565b60405180910390fd5b6000610755611888565b9050610765818787878787611890565b60005b84518110156109965760008582815181106107ac577f4e487b7100000000000000000000000000000000000000000000000000000000600052603260045260246000fd5b6020026020010151905060008583815181106107f1577f4e487b7100000000000000000000000000000000000000000000000000000000600052603260045260246000fd5b60200260200101519050610878816040518060600160405280602a8152602001614534602a91396003600086815260200190815260200160002060008d73ffffffffffffffffffffffffffffffffffffffff1673ffffffffffffffffffffffffffffffffffffffff168152602001908152602001600020546118989092919063ffffffff16565b6003600084815260200190815260200160002060008b73ffffffffffffffffffffffffffffffffffffffff1673ffffffffffffffffffffffffffffffffffffffff1681526020019081526020016000208190555061092f816003600085815260200190815260200160002060008b73ffffffffffffffffffffffffffffffffffffffff1673ffffffffffffffffffffffffffffffffffffffff168152602001908152602001600020546118fc90919063ffffffff16565b6003600084815260200190815260200160002060008a73ffffffffffffffffffffffffffffffffffffffff1673ffffffffffffffffffffffffffffffffffffffff1681526020019081526020016000208190555050508061098f90613d1d565b9050610768565b508473ffffffffffffffffffffffffffffffffffffffff168673ffffffffffffffffffffffffffffffffffffffff168273ffffffffffffffffffffffffffffffffffffffff167f4a39dc06d4c0dbc64b70af90fd698a233a518aa5d07e595d983b8c0526c8f7fb8787604051610a0d9291906136b6565b60405180910390a4610a2381878787878761195a565b505050505050565b60608151835114610a71576040517f08c379a0000000000000000000000000000000000000000000000000000000008152600401610a689061392a565b60405180910390fd5b6000835167ffffffffffffffff811115610ab4577f4e487b7100000000000000000000000000000000000000000000000000000000600052604160045260246000fd5b604051908082528060200260200182016040528015610ae25781602001602082028036833780820191505090505b50905060005b8451811015610cc857600073ffffffffffffffffffffffffffffffffffffffff16858281518110610b42577f4e487b7100000000000000000000000000000000000000000000000000000000600052603260045260246000fd5b602002602001015173ffffffffffffffffffffffffffffffffffffffff161415610ba1576040517f08c379a0000000000000000000000000000000000000000000000000000000008152600401610b989061378a565b60405180910390fd5b60036000858381518110610bde577f4e487b7100000000000000000000000000000000000000000000000000000000600052603260045260246000fd5b602002602001015181526020019081526020016000206000868381518110610c2f577f4e487b7100000000000000000000000000000000000000000000000000000000600052603260045260246000fd5b602002602001015173ffffffffffffffffffffffffffffffffffffffff1673ffffffffffffffffffffffffffffffffffffffff16815260200190815260200160002054828281518110610cab577f4e487b7100000000000000000000000000000000000000000000000000000000600052603260045260246000fd5b60200260200101818152505080610cc190613d1d565b9050610ae8565b508091505092915050565b3373ffffffffffffffffffffffffffffffffffffffff16600c60009054906101000a900473ffffffffffffffffffffffffffffffffffffffff1673ffffffffffffffffffffffffffffffffffffffff1614610d63576040517f08c379a0000000000000000000000000000000000000000000000000000000008152600401610d5a906138aa565b60405180910390fd5b610d6c81611b79565b50565b610d7a338383611bca565b5050565b600c60009054906101000a900473ffffffffffffffffffffffffffffffffffffffff1681565b610db2600b54838584611ede565b6001600b54610dc19190613b49565b600b81905550505050565b6060600a8054610ddb90613cba565b80601f0160208091040260200160405190810160405280929190818152602001828054610e0790613cba565b8015610e545780601f10610e2957610100808354040283529160200191610e54565b820191906000526020600020905b815481529060010190602001808311610e3757829003601f168201915b5050505050905090565b8173ffffffffffffffffffffffffffffffffffffffff16610e7d611888565b73ffffffffffffffffffffffffffffffffffffffff161415610ed4576040517f08c379a0000000000000000000000000000000000000000000000000000000008152600401610ecb9061390a565b60405180910390fd5b8060046000610ee1611888565b73ffffffffffffffffffffffffffffffffffffffff1673ffffffffffffffffffffffffffffffffffffffff16815260200190815260200160002060008473ffffffffffffffffffffffffffffffffffffffff1673ffffffffffffffffffffffffffffffffffffffff16815260200190815260200160002060006101000a81548160ff0219169083151502179055508173ffffffffffffffffffffffffffffffffffffffff16610f8e611888565b73ffffffffffffffffffffffffffffffffffffffff167f17307eab39ab6107e8899845ad3d59bd9653f200f220920489ca2b5937696c3183604051610fd391906136ed565b60405180910390a35050565b610fea33838361214c565b5050565b60058054610ffb90613cba565b80601f016020809104026020016040519081016040528092919081815260200182805461102790613cba565b80156110745780601f1061104957610100808354040283529160200191611074565b820191906000526020600020905b81548152906001019060200180831161105757829003601f168201915b505050505081565b600060026000838152602001908152602001600020549050919050565b60606110a48261186b565b6110e3576040517f08c379a00000000000000000000000000000000000000000000000000000000081526004016110da906138ca565b60405180910390fd5b600060066000848152602001908152602001600020805461110390613cba565b80601f016020809104026020016040519081016040528092919081815260200182805461112f90613cba565b801561117c5780601f106111515761010080835404028352916020019161117c565b820191906000526020600020905b81548152906001019060200180831161115f57829003601f168201915b5050505050905060006005805461119290613cba565b80601f01602080910402602001604051908101604052809291908181526020018280546111be90613cba565b801561120b5780601f106111e05761010080835404028352916020019161120b565b820191906000526020600020905b8154815290600101906020018083116111ee57829003601f168201915b5050505050905060008151141561122657819250505061128a565b60008251111561125b578082604051602001611243929190613593565b6040516020818303038152906040529250505061128a565b8061126585612394565b604051602001611276929190613593565b604051602081830303815290604052925050505b919050565b60006001600083815260200190815260200160002060009054906101000a900473ffffffffffffffffffffffffffffffffffffffff169050919050565b6000600460008473ffffffffffffffffffffffffffffffffffffffff1673ffffffffffffffffffffffffffffffffffffffff16815260200190815260200160002060008373ffffffffffffffffffffffffffffffffffffffff1673ffffffffffffffffffffffffffffffffffffffff16815260200190815260200160002060009054906101000a900460ff16905092915050565b600073ffffffffffffffffffffffffffffffffffffffff168473ffffffffffffffffffffffffffffffffffffffff1614156113d0576040517f08c379a00000000000000000000000000000000000000000000000000000000081526004016113c79061382a565b60405180910390fd5b6113d8611888565b73ffffffffffffffffffffffffffffffffffffffff168573ffffffffffffffffffffffffffffffffffffffff16148061141e575061141d85611418611888565b6112cc565b5b61145d576040517f08c379a0000000000000000000000000000000000000000000000000000000008152600401611454906137ea565b60405180910390fd5b6000611467611888565b905061148781878761147888612560565b61148188612560565b87611890565b611504836040518060600160405280602a8152602001614534602a91396003600088815260200190815260200160002060008a73ffffffffffffffffffffffffffffffffffffffff1673ffffffffffffffffffffffffffffffffffffffff168152602001908152602001600020546118989092919063ffffffff16565b6003600086815260200190815260200160002060008873ffffffffffffffffffffffffffffffffffffffff1673ffffffffffffffffffffffffffffffffffffffff168152602001908152602001600020819055506115bb836003600087815260200190815260200160002060008873ffffffffffffffffffffffffffffffffffffffff1673ffffffffffffffffffffffffffffffffffffffff168152602001908152602001600020546118fc90919063ffffffff16565b6003600086815260200190815260200160002060008773ffffffffffffffffffffffffffffffffffffffff1673ffffffffffffffffffffffffffffffffffffffff168152602001908152602001600020819055508473ffffffffffffffffffffffffffffffffffffffff168673ffffffffffffffffffffffffffffffffffffffff168273ffffffffffffffffffffffffffffffffffffffff167fc3d58168c5ae7397731d063d5bbf3d657854427343f4c083240f7aacaa2d0f6287876040516116859291906139c5565b60405180910390a461169b818787878787612626565b505050505050565b60003373ffffffffffffffffffffffffffffffffffffffff16600c60009054906101000a900473ffffffffffffffffffffffffffffffffffffffff1673ffffffffffffffffffffffffffffffffffffffff1614611735576040517f08c379a000000000000000000000000000000000000000000000000000000000815260040161172c906138aa565b60405180910390fd5b600073ffffffffffffffffffffffffffffffffffffffff168273ffffffffffffffffffffffffffffffffffffffff1614156117a5576040517f08c379a000000000000000000000000000000000000000000000000000000000815260040161179c906137aa565b60405180910390fd5b8173ffffffffffffffffffffffffffffffffffffffff16600c60009054906101000a900473ffffffffffffffffffffffffffffffffffffffff1673ffffffffffffffffffffffffffffffffffffffff167f8be0079c531659141344cd1fd0a4f28419497f9722a3daafe3b4186f6b6457e060405160405180910390a381600c60006101000a81548173ffffffffffffffffffffffffffffffffffffffff021916908373ffffffffffffffffffffffffffffffffffffffff16021790555060019050919050565b600061188182600761284590919063ffffffff16565b9050919050565b600033905090565b505050505050565b60008383111582906118e0576040517f08c379a00000000000000000000000000000000000000000000000000000000081526004016118d79190613708565b60405180910390fd5b50600083856118ef9190613bd0565b9050809150509392505050565b600080828461190b9190613b49565b905083811015611950576040517f08c379a0000000000000000000000000000000000000000000000000000000008152600401611947906137ca565b60405180910390fd5b8091505092915050565b6119798473ffffffffffffffffffffffffffffffffffffffff1661285f565b15611b71578373ffffffffffffffffffffffffffffffffffffffff1663bc197c8187878686866040518663ffffffff167c01000000000000000000000000000000000000000000000000000000000281526004016119db9594939291906135d2565b602060405180830381600087803b1580156119f557600080fd5b505af1925050508015611a2657506040513d601f19601f82011682018060405250810190611a23919061304c565b60015b611acc57611a32613e53565b806308c379a01415611a8f5750611a4761441d565b80611a525750611a91565b806040517f08c379a0000000000000000000000000000000000000000000000000000000008152600401611a869190613708565b60405180910390fd5b505b6040517f08c379a0000000000000000000000000000000000000000000000000000000008152600401611ac39061372a565b60405180910390fd5b63bc197c817c0100000000000000000000000000000000000000000000000000000000027bffffffffffffffffffffffffffffffffffffffffffffffffffffffff1916817bffffffffffffffffffffffffffffffffffffffffffffffffffffffff191614611b6f576040517f08c379a0000000000000000000000000000000000000000000000000000000008152600401611b669061374a565b60405180910390fd5b505b505050505050565b8060059080519060200190611b8f929190612a18565b507f5514cc7324ac64a875ba50a1849367d39c8b030fe0f563c3c7142984552bc30681604051611bbf9190613708565b60405180910390a150565b600073ffffffffffffffffffffffffffffffffffffffff168373ffffffffffffffffffffffffffffffffffffffff161415611c3a576040517f08c379a0000000000000000000000000000000000000000000000000000000008152600401611c319061388a565b60405180910390fd5b8051825114611c7e576040517f08c379a0000000000000000000000000000000000000000000000000000000008152600401611c759061394a565b60405180910390fd5b6000611c88611888565b9050611ca881856000868660405180602001604052806000815250611890565b60005b8351811015611e5857611db1838281518110611cf0577f4e487b7100000000000000000000000000000000000000000000000000000000600052603260045260246000fd5b60200260200101516040518060600160405280602481526020016145106024913960036000888681518110611d4e577f4e487b7100000000000000000000000000000000000000000000000000000000600052603260045260246000fd5b6020026020010151815260200190815260200160002060008973ffffffffffffffffffffffffffffffffffffffff1673ffffffffffffffffffffffffffffffffffffffff168152602001908152602001600020546118989092919063ffffffff16565b60036000868481518110611dee577f4e487b7100000000000000000000000000000000000000000000000000000000600052603260045260246000fd5b6020026020010151815260200190815260200160002060008773ffffffffffffffffffffffffffffffffffffffff1673ffffffffffffffffffffffffffffffffffffffff168152602001908152602001600020819055508080611e5090613d1d565b915050611cab565b50600073ffffffffffffffffffffffffffffffffffffffff168473ffffffffffffffffffffffffffffffffffffffff168273ffffffffffffffffffffffffffffffffffffffff167f4a39dc06d4c0dbc64b70af90fd698a233a518aa5d07e595d983b8c0526c8f7fb8686604051611ed09291906136b6565b60405180910390a450505050565b611ee78461186b565b15611f27576040517f08c379a0000000000000000000000000000000000000000000000000000000008152600401611f1e9061396a565b60405180910390fd5b6000831415611f6b576040517f08c379a0000000000000000000000000000000000000000000000000000000008152600401611f62906138ea565b60405180910390fd5b6000825111611faf576040517f08c379a0000000000000000000000000000000000000000000000000000000008152600401611fa69061398a565b60405180910390fd5b336001600086815260200190815260200160002060006101000a81548173ffffffffffffffffffffffffffffffffffffffff021916908373ffffffffffffffffffffffffffffffffffffffff160217905550612017843360076128829092919063ffffffff16565b50806002600086815260200190815260200160002081905550826003600086815260200190815260200160002060003373ffffffffffffffffffffffffffffffffffffffff1673ffffffffffffffffffffffffffffffffffffffff1681526020019081526020016000208190555061208f84836128b7565b3373ffffffffffffffffffffffffffffffffffffffff16600073ffffffffffffffffffffffffffffffffffffffff163373ffffffffffffffffffffffffffffffffffffffff167fc3d58168c5ae7397731d063d5bbf3d657854427343f4c083240f7aacaa2d0f6287876040516121069291906139c5565b60405180910390a4837f6bb7ff708619ba0610cba295a58592e0451dee2622938c8755667688daf3529b8360405161213e9190613708565b60405180910390a250505050565b6121558261186b565b612194576040517f08c379a000000000000000000000000000000000000000000000000000000000815260040161218b9061380a565b60405180910390fd5b600073ffffffffffffffffffffffffffffffffffffffff168373ffffffffffffffffffffffffffffffffffffffff161415612204576040517f08c379a00000000000000000000000000000000000000000000000000000000081526004016121fb9061388a565b60405180910390fd5b600061220e611888565b905061223e8185600061222087612560565b61222987612560565b60405180602001604052806000815250611890565b6122bb8260405180606001604052806031815260200161455e603191396003600087815260200190815260200160002060008873ffffffffffffffffffffffffffffffffffffffff1673ffffffffffffffffffffffffffffffffffffffff168152602001908152602001600020546118989092919063ffffffff16565b6003600085815260200190815260200160002060008673ffffffffffffffffffffffffffffffffffffffff1673ffffffffffffffffffffffffffffffffffffffff16815260200190815260200160002081905550600073ffffffffffffffffffffffffffffffffffffffff168473ffffffffffffffffffffffffffffffffffffffff168273ffffffffffffffffffffffffffffffffffffffff167fc3d58168c5ae7397731d063d5bbf3d657854427343f4c083240f7aacaa2d0f6286866040516123869291906139c5565b60405180910390a450505050565b606060008214156123dc576040518060400160405280600181526020017f3000000000000000000000000000000000000000000000000000000000000000815250905061255b565b600082905060005b6000821461240e5780806123f790613d1d565b915050600a826124079190613b9f565b91506123e4565b60008167ffffffffffffffff811115612450577f4e487b7100000000000000000000000000000000000000000000000000000000600052604160045260246000fd5b6040519080825280601f01601f1916602001820160405280156124825781602001600182028036833780820191505090505b5090505b600085146125545760018261249b9190613bd0565b9150600a856124aa9190613d66565b60306124b69190613b49565b7f010000000000000000000000000000000000000000000000000000000000000002818381518110612511577f4e487b7100000000000000000000000000000000000000000000000000000000600052603260045260246000fd5b60200101907effffffffffffffffffffffffffffffffffffffffffffffffffffffffffffff1916908160001a905350600a8561254d9190613b9f565b9450612486565b8093505050505b919050565b60606000600167ffffffffffffffff8111156125a5577f4e487b7100000000000000000000000000000000000000000000000000000000600052604160045260246000fd5b6040519080825280602002602001820160405280156125d35781602001602082028036833780820191505090505b5090508281600081518110612611577f4e487b7100000000000000000000000000000000000000000000000000000000600052603260045260246000fd5b60200260200101818152505080915050919050565b6126458473ffffffffffffffffffffffffffffffffffffffff1661285f565b1561283d578373ffffffffffffffffffffffffffffffffffffffff1663f23a6e6187878686866040518663ffffffff167c01000000000000000000000000000000000000000000000000000000000281526004016126a795949392919061363a565b602060405180830381600087803b1580156126c157600080fd5b505af19250505080156126f257506040513d601f19601f820116820180604052508101906126ef919061304c565b60015b612798576126fe613e53565b806308c379a0141561275b575061271361441d565b8061271e575061275d565b806040517f08c379a00000000000000000000000000000000000000000000000000000000081526004016127529190613708565b60405180910390fd5b505b6040517f08c379a000000000000000000000000000000000000000000000000000000000815260040161278f9061372a565b60405180910390fd5b63f23a6e617c0100000000000000000000000000000000000000000000000000000000027bffffffffffffffffffffffffffffffffffffffffffffffffffffffff1916817bffffffffffffffffffffffffffffffffffffffffffffffffffffffff19161461283b576040517f08c379a00000000000000000000000000000000000000000000000000000000081526004016128329061374a565b60405180910390fd5b505b505050505050565b600061285783600001836001026128e3565b905092915050565b6000808273ffffffffffffffffffffffffffffffffffffffff163b119050919050565b60006128ae84600001846001028473ffffffffffffffffffffffffffffffffffffffff16600102612906565b90509392505050565b806006600084815260200190815260200160002090805190602001906128de929190612a18565b505050565b600080836001016000848152602001908152602001600020541415905092915050565b60008084600101600085815260200190815260200160002054905060008114156129ad57846000016040518060400160405280868152602001858152509080600181540180825580915050600190039060005260206000209060020201600090919091909150600082015181600001556020820151816001015550508460000180549050856001016000868152602001908152602001600020819055506001915050612a11565b82856000016001836129bf9190613bd0565b815481106129f6577f4e487b7100000000000000000000000000000000000000000000000000000000600052603260045260246000fd5b90600052602060002090600202016001018190555060009150505b9392505050565b828054612a2490613cba565b90600052602060002090601f016020900481019282612a465760008555612a8d565b82601f10612a5f57805160ff1916838001178555612a8d565b82800160010185558215612a8d579182015b82811115612a8c578251825591602001919060010190612a71565b5b509050612a9a9190612a9e565b5090565b5b80821115612ab7576000816000905550600101612a9f565b5090565b6000612ace612ac984613a13565b6139ee565b90508083825260208201905082856020860282011115612aed57600080fd5b60005b85811015612b1d5781612b038882612c0f565b845260208401935060208301925050600181019050612af0565b5050509392505050565b6000612b3a612b3584613a3f565b6139ee565b90508083825260208201905082856020860282011115612b5957600080fd5b60005b85811015612b895781612b6f8882612d0b565b845260208401935060208301925050600181019050612b5c565b5050509392505050565b6000612ba6612ba184613a6b565b6139ee565b905082815260208101848484011115612bbe57600080fd5b612bc9848285613c78565b509392505050565b6000612be4612bdf84613a9c565b6139ee565b905082815260208101848484011115612bfc57600080fd5b612c07848285613c78565b509392505050565b600081359050612c1e816144b3565b92915050565b600082601f830112612c3557600080fd5b8135612c45848260208601612abb565b91505092915050565b600082601f830112612c5f57600080fd5b8135612c6f848260208601612b27565b91505092915050565b600081359050612c87816144ca565b92915050565b600081359050612c9c816144e1565b92915050565b600081519050612cb1816144e1565b92915050565b600082601f830112612cc857600080fd5b8135612cd8848260208601612b93565b91505092915050565b600082601f830112612cf257600080fd5b8135612d02848260208601612bd1565b91505092915050565b600081359050612d1a816144f8565b92915050565b600060208284031215612d3257600080fd5b6000612d4084828501612c0f565b91505092915050565b60008060408385031215612d5c57600080fd5b6000612d6a85828601612c0f565b9250506020612d7b85828601612c0f565b9150509250929050565b600080600080600060a08688031215612d9d57600080fd5b6000612dab88828901612c0f565b9550506020612dbc88828901612c0f565b945050604086013567ffffffffffffffff811115612dd957600080fd5b612de588828901612c4e565b935050606086013567ffffffffffffffff811115612e0257600080fd5b612e0e88828901612c4e565b925050608086013567ffffffffffffffff811115612e2b57600080fd5b612e3788828901612cb7565b9150509295509295909350565b600080600080600060a08688031215612e5c57600080fd5b6000612e6a88828901612c0f565b9550506020612e7b88828901612c0f565b9450506040612e8c88828901612d0b565b9350506060612e9d88828901612d0b565b925050608086013567ffffffffffffffff811115612eba57600080fd5b612ec688828901612cb7565b9150509295509295909350565b60008060408385031215612ee657600080fd5b6000612ef485828601612c0f565b9250506020612f0585828601612c78565b9150509250929050565b60008060408385031215612f2257600080fd5b6000612f3085828601612c0f565b9250506020612f4185828601612d0b565b9150509250929050565b60008060408385031215612f5e57600080fd5b600083013567ffffffffffffffff811115612f7857600080fd5b612f8485828601612c24565b925050602083013567ffffffffffffffff811115612fa157600080fd5b612fad85828601612c4e565b9150509250929050565b60008060408385031215612fca57600080fd5b600083013567ffffffffffffffff811115612fe457600080fd5b612ff085828601612c4e565b925050602083013567ffffffffffffffff81111561300d57600080fd5b61301985828601612c4e565b9150509250929050565b60006020828403121561303557600080fd5b600061304384828501612c8d565b91505092915050565b60006020828403121561305e57600080fd5b600061306c84828501612ca2565b91505092915050565b60006020828403121561308757600080fd5b600082013567ffffffffffffffff8111156130a157600080fd5b6130ad84828501612ce1565b91505092915050565b6000806000606084860312156130cb57600080fd5b600084013567ffffffffffffffff8111156130e557600080fd5b6130f186828701612ce1565b935050602061310286828701612d0b565b925050604061311386828701612d0b565b9150509250925092565b60006020828403121561312f57600080fd5b600061313d84828501612d0b565b91505092915050565b6000806040838503121561315957600080fd5b600061316785828601612d0b565b925050602061317885828601612d0b565b9150509250929050565b600061318e8383613575565b60208301905092915050565b6131a381613c04565b82525050565b60006131b482613add565b6131be8185613b0b565b93506131c983613acd565b8060005b838110156131fa5781516131e18882613182565b97506131ec83613afe565b9250506001810190506131cd565b5085935050505092915050565b61321081613c16565b82525050565b600061322182613ae8565b61322b8185613b1c565b935061323b818560208601613c87565b61324481613e75565b840191505092915050565b600061325a82613af3565b6132648185613b2d565b9350613274818560208601613c87565b61327d81613e75565b840191505092915050565b600061329382613af3565b61329d8185613b3e565b93506132ad818560208601613c87565b80840191505092915050565b60006132c6603483613b2d565b91506132d182613eaf565b604082019050919050565b60006132e9602883613b2d565b91506132f482613efe565b604082019050919050565b600061330c602b83613b2d565b915061331782613f4d565b604082019050919050565b600061332f603183613b2d565b915061333a82613f9c565b604082019050919050565b6000613352602683613b2d565b915061335d82613feb565b604082019050919050565b6000613375601b83613b2d565b91506133808261403a565b602082019050919050565b6000613398602983613b2d565b91506133a382614063565b604082019050919050565b60006133bb603183613b2d565b91506133c6826140b2565b604082019050919050565b60006133de602583613b2d565b91506133e982614101565b604082019050919050565b6000613401603283613b2d565b915061340c82614150565b604082019050919050565b6000613424603483613b2d565b915061342f8261419f565b604082019050919050565b6000613447602383613b2d565b9150613452826141ee565b604082019050919050565b600061346a602083613b2d565b91506134758261423d565b602082019050919050565b600061348d603083613b2d565b915061349882614266565b604082019050919050565b60006134b0601983613b2d565b91506134bb826142b5565b602082019050919050565b60006134d3602983613b2d565b91506134de826142de565b604082019050919050565b60006134f6602983613b2d565b91506135018261432d565b604082019050919050565b6000613519602883613b2d565b91506135248261437c565b604082019050919050565b600061353c601d83613b2d565b9150613547826143cb565b602082019050919050565b600061355f601183613b2d565b915061356a826143f4565b602082019050919050565b61357e81613c6e565b82525050565b61358d81613c6e565b82525050565b600061359f8285613288565b91506135ab8284613288565b91508190509392505050565b60006020820190506135cc600083018461319a565b92915050565b600060a0820190506135e7600083018861319a565b6135f4602083018761319a565b818103604083015261360681866131a9565b9050818103606083015261361a81856131a9565b9050818103608083015261362e8184613216565b90509695505050505050565b600060a08201905061364f600083018861319a565b61365c602083018761319a565b6136696040830186613584565b6136766060830185613584565b81810360808301526136888184613216565b90509695505050505050565b600060208201905081810360008301526136ae81846131a9565b905092915050565b600060408201905081810360008301526136d081856131a9565b905081810360208301526136e481846131a9565b90509392505050565b60006020820190506137026000830184613207565b92915050565b60006020820190508181036000830152613722818461324f565b905092915050565b60006020820190508181036000830152613743816132b9565b9050919050565b60006020820190508181036000830152613763816132dc565b9050919050565b60006020820190508181036000830152613783816132ff565b9050919050565b600060208201905081810360008301526137a381613322565b9050919050565b600060208201905081810360008301526137c381613345565b9050919050565b600060208201905081810360008301526137e381613368565b9050919050565b600060208201905081810360008301526138038161338b565b9050919050565b60006020820190508181036000830152613823816133ae565b9050919050565b60006020820190508181036000830152613843816133d1565b9050919050565b60006020820190508181036000830152613863816133f4565b9050919050565b6000602082019050818103600083015261388381613417565b9050919050565b600060208201905081810360008301526138a38161343a565b9050919050565b600060208201905081810360008301526138c38161345d565b9050919050565b600060208201905081810360008301526138e381613480565b9050919050565b60006020820190508181036000830152613903816134a3565b9050919050565b60006020820190508181036000830152613923816134c6565b9050919050565b60006020820190508181036000830152613943816134e9565b9050919050565b600060208201905081810360008301526139638161350c565b9050919050565b600060208201905081810360008301526139838161352f565b9050919050565b600060208201905081810360008301526139a381613552565b9050919050565b60006020820190506139bf6000830184613584565b92915050565b60006040820190506139da6000830185613584565b6139e76020830184613584565b9392505050565b60006139f8613a09565b9050613a048282613cec565b919050565b6000604051905090565b600067ffffffffffffffff821115613a2e57613a2d613e24565b5b602082029050602081019050919050565b600067ffffffffffffffff821115613a5a57613a59613e24565b5b602082029050602081019050919050565b600067ffffffffffffffff821115613a8657613a85613e24565b5b613a8f82613e75565b9050602081019050919050565b600067ffffffffffffffff821115613ab757613ab6613e24565b5b613ac082613e75565b9050602081019050919050565b6000819050602082019050919050565b600081519050919050565b600081519050919050565b600081519050919050565b6000602082019050919050565b600082825260208201905092915050565b600082825260208201905092915050565b600082825260208201905092915050565b600081905092915050565b6000613b5482613c6e565b9150613b5f83613c6e565b9250827fffffffffffffffffffffffffffffffffffffffffffffffffffffffffffffffff03821115613b9457613b93613d97565b5b828201905092915050565b6000613baa82613c6e565b9150613bb583613c6e565b925082613bc557613bc4613dc6565b5b828204905092915050565b6000613bdb82613c6e565b9150613be683613c6e565b925082821015613bf957613bf8613d97565b5b828203905092915050565b6000613c0f82613c4e565b9050919050565b60008115159050919050565b60007fffffffff0000000000000000000000000000000000000000000000000000000082169050919050565b600073ffffffffffffffffffffffffffffffffffffffff82169050919050565b6000819050919050565b82818337600083830152505050565b60005b83811015613ca5578082015181840152602081019050613c8a565b83811115613cb4576000848401525b50505050565b60006002820490506001821680613cd257607f821691505b60208210811415613ce657613ce5613df5565b5b50919050565b613cf582613e75565b810181811067ffffffffffffffff82111715613d1457613d13613e24565b5b80604052505050565b6000613d2882613c6e565b91507fffffffffffffffffffffffffffffffffffffffffffffffffffffffffffffffff821415613d5b57613d5a613d97565b5b600182019050919050565b6000613d7182613c6e565b9150613d7c83613c6e565b925082613d8c57613d8b613dc6565b5b828206905092915050565b7f4e487b7100000000000000000000000000000000000000000000000000000000600052601160045260246000fd5b7f4e487b7100000000000000000000000000000000000000000000000000000000600052601260045260246000fd5b7f4e487b7100000000000000000000000000000000000000000000000000000000600052602260045260246000fd5b7f4e487b7100000000000000000000000000000000000000000000000000000000600052604160045260246000fd5b600060033d1115613e725760046000803e613e6f600051613e86565b90505b90565b6000601f19601f8301169050919050565b60007c010000000000000000000000000000000000000000000000000000000082049050919050565b7f455243313135353a207472616e7366657220746f206e6f6e204552433131353560008201527f526563656976657220696d706c656d656e746572000000000000000000000000602082015250565b7f455243313135353a204552433131353552656365697665722072656a6563746560008201527f6420746f6b656e73000000000000000000000000000000000000000000000000602082015250565b7f455243313135353a2062616c616e636520717565727920666f7220746865207a60008201527f65726f2061646472657373000000000000000000000000000000000000000000602082015250565b7f455243313135353a2062617463682062616c616e636520717565727920666f7260008201527f20746865207a65726f2061646472657373000000000000000000000000000000602082015250565b7f4f776e61626c653a206e6577206f776e657220697320746865207a65726f206160008201527f6464726573730000000000000000000000000000000000000000000000000000602082015250565b7f536166654d6174683a206164646974696f6e206f766572666c6f770000000000600082015250565b7f455243313135353a2063616c6c6572206973206e6f74206f776e6572206e6f7260008201527f20617070726f7665640000000000000000000000000000000000000000000000602082015250565b7f455243313135354d657461646174613a206275726e20717565727920666f722060008201527f6e6f6e6578697374656e7420746f6b656e000000000000000000000000000000602082015250565b7f455243313135353a207472616e7366657220746f20746865207a65726f20616460008201527f6472657373000000000000000000000000000000000000000000000000000000602082015250565b7f455243313135353a207472616e736665722063616c6c6572206973206e6f742060008201527f6f776e6572206e6f7220617070726f7665640000000000000000000000000000602082015250565b7f455243313135354d657461646174613a2062616c616e6365207175657279206660008201527f6f72206e6f6e6578697374656e7420746f6b656e000000000000000000000000602082015250565b7f455243313135353a206275726e2066726f6d20746865207a65726f206164647260008201527f6573730000000000000000000000000000000000000000000000000000000000602082015250565b7f4f776e61626c653a2063616c6c6572206973206e6f7420746865206f776e6572600082015250565b7f455243313135354d657461646174613a2055524920717565727920666f72206e60008201527f6f6e6578697374656e7420746f6b656e00000000000000000000000000000000602082015250565b7f537570706c792073686f756c6420626520706f73697469766500000000000000600082015250565b7f455243313135353a2073657474696e6720617070726f76616c2073746174757360008201527f20666f722073656c660000000000000000000000000000000000000000000000602082015250565b7f455243313135353a206163636f756e747320616e6420696473206c656e67746860008201527f206d69736d617463680000000000000000000000000000000000000000000000602082015250565b7f455243313135353a2069647320616e6420616d6f756e7473206c656e6774682060008201527f6d69736d61746368000000000000000000000000000000000000000000000000602082015250565b7f455243313135353a20746f6b656e20616c7265616479206d696e746564000000600082015250565b7f7572692073686f756c6420626520736574000000000000000000000000000000600082015250565b600060443d101561442d576144b0565b614435613a09565b60043d036004823e80513d602482011167ffffffffffffffff8211171561445d5750506144b0565b808201805167ffffffffffffffff81111561447b57505050506144b0565b80602083010160043d0385018111156144985750505050506144b0565b6144a782602001850186613cec565b82955050505050505b90565b6144bc81613c04565b81146144c757600080fd5b50565b6144d381613c16565b81146144de57600080fd5b50565b6144ea81613c22565b81146144f557600080fd5b50565b61450181613c6e565b811461450c57600080fd5b5056fe455243313135353a206275726e20616d6f756e7420657863656564732062616c616e6365455243313135353a20696e73756666696369656e742062616c616e636520666f72207472616e736665724552435f686f6c646572546f6b656e73313135353a206275726e20616d6f756e7420657863656564732062616c616e6365a2646970667358221220ee8ac5afacc5fd2327fe8cccab1130453dc1a22d40e1014bec04d695db6f9b8f64736f6c63430008040033",
  "immutableReferences": {},
  "source": "// SPDX-License-Identifier: MIT\r\n// OpenZeppelin Contracts (last updated v4.7.0) \r\n\r\npragma solidity ^0.8.4;\r\n\r\nimport \"./ERC1155.sol\";\r\n\r\ncontract MultipleNFT is ERC1155 {\r\n\r\n    uint256 newItemId = 1;\r\n    address public owner;\r\n    mapping(uint256 => bool) private usedNonce;\r\n    event OwnershipTransferred(address indexed previousOwner, address indexed newOwner);\r\n\r\n    struct Sign {\r\n        uint8 v;\r\n        bytes32 r;\r\n        bytes32 s;\r\n        uint256 nonce;\r\n    }\r\n\r\n    constructor (string memory name, string memory symbol) ERC1155 (name, symbol) {\r\n        owner = msg.sender;\r\n    }\r\n\r\n    modifier onlyOwner() {\r\n        require(owner == msg.sender, \"Ownable: caller is not the owner\");\r\n        _;\r\n    }\r\n\r\n    /** @dev change the Ownership from current owner to newOwner address\r\n        @param newOwner : newOwner address */    \r\n\r\n    function transferOwnership(address newOwner) public onlyOwner returns(bool){\r\n        require(newOwner != address(0), \"Ownable: new owner is the zero address\");\r\n        emit OwnershipTransferred(owner,newOwner);\r\n        owner = newOwner;\r\n        return true;\r\n    }\r\n\r\n    /** @dev verify the tokenURI that should be verified by owner of the contract.\r\n        *requirements: signer must be owner of the contract\r\n        @param tokenURI string memory URI of token to be minted.\r\n        @param sign struct combination of uint8, bytes32, bytes 32 are v, r, s.\r\n        note : sign value must be in the order of v, r, s.\r\n\r\n    */\r\n\r\n    function verifySign(string memory tokenURI, address caller, Sign memory sign) internal view {\r\n        bytes32 hash = keccak256(abi.encodePacked(this, caller, tokenURI, sign.nonce));\r\n        require(owner == ecrecover(keccak256(abi.encodePacked(\"\\x19Ethereum Signed Message:\\n32\", hash)), sign.v, sign.r, sign.s), \"Owner sign verification failed\");\r\n    }\r\n\r\n    function createMultiple(string memory uri, uint256 supply, uint256 fee)  public {\r\n     //   require(!usedNonce[sign.nonce],\"Nonce : Invalid Nonce\");\r\n     //  usedNonce[sign.nonce] = true;\r\n     //   verifySign(uri, msg.sender, sign);\r\n        _mint(newItemId, supply, uri,fee);\r\n        newItemId = newItemId+1;\r\n    }\r\n\r\n    function setBaseURI(string memory _baseURI) public onlyOwner{\r\n         _setTokenURIPrefix(_baseURI);\r\n    }\r\n\r\n    function burn(uint256 tokenId, uint256 supply) public {\r\n        _burn(msg.sender, tokenId, supply);\r\n    }\r\n\r\n    function burnBatch(uint256[] memory tokenIds, uint256[] memory amounts) public {\r\n        _burnBatch(msg.sender, tokenIds, amounts);\r\n    }\r\n}",
  "sourcePath": "C:\\Users\\91863\\Arevea\\contracts\\MultipleNFT.sol",
  "compiler": {
    "name": "solc",
    "version": "0.8.4+commit.c7e474f2.Emscripten.clang"
  },
  "schemaVersion": "3.4.8",
  "updatedAt": "2022-08-12T08:09:48.259Z",
  "networkType": "ethereum",
  "devdoc": {
    "kind": "dev",
    "methods": {
      "balanceOf(address,uint256)": {
        "params": {
          "account": "The address of the token holder",
          "tokenId": "ID of the Token"
        },
        "returns": {
          "_0": "The owner's balance of the Token type requested"
        }
      },
      "balanceOfBatch(address[],uint256[])": {
        "params": {
          "accounts": "The addresses of the token holders",
          "ids": "ID of the Tokens"
        },
        "returns": {
          "_0": "The _owner's balance of the Token types requested (i.e. balance for each (owner, id) pair)"
        }
      },
      "getCreator(uint256)": {
        "params": {
          "tokenId": "ID of the Token."
        },
        "returns": {
          "_0": "creator of given ID."
        }
      },
      "isApprovedForAll(address,address)": {
        "params": {
          "account": "The owner of the Tokens",
          "operator": "Address of authorized operator"
        },
        "returns": {
          "_0": "True if the operator is approved, false if not"
        }
      },
      "royaltyFee(uint256)": {
        "params": {
          "tokenId": "ID of the Token."
        },
        "returns": {
          "_0": "royaltyFee of given ID."
        }
      },
      "safeBatchTransferFrom(address,address,uint256[],uint256[],bytes)": {
        "details": "Caller must be approved to manage the tokens being transferred out of the `_from` account (see \"Approval\" section of the standard). MUST revert if `_to` is the zero address. MUST revert if length of `_ids` is not the same as length of `_values`. MUST revert if any of the balance(s) of the holder(s) for token(s) in `_ids` is lower than the respective amount(s) in `_values` sent to the recipient. MUST revert on any other error. MUST emit `TransferSingle` or `TransferBatch` event(s) such that all the balance changes are reflected (see \"Safe Transfer Rules\" section of the standard). Balance changes and events MUST follow the ordering of the arrays (_ids[0]/_values[0] before _ids[1]/_values[1], etc). After the above conditions for the transfer(s) in the batch are met, this function MUST check if `_to` is a smart contract (e.g. code size > 0). If so, it MUST call the relevant `ERC1155TokenReceiver` hook(s) on `_to` and act appropriately (see \"Safe Transfer Rules\" section of the standard).",
        "params": {
          "amounts": "Transfer amounts per token type (order and length must match _ids array)",
          "data": "Additional data with no specified format, MUST be sent unaltered in call to the `ERC1155TokenReceiver` hook(s) on `_to`",
          "from": "Source address",
          "to": "Target address",
          "tokenIds": "IDs of each token type (order and length must match _values array)"
        }
      },
      "safeTransferFrom(address,address,uint256,uint256,bytes)": {
        "details": "Caller must be approved to manage the tokens being transferred out of the `_from` account (see \"Approval\" section of the standard). MUST revert if `_to` is the zero address. MUST revert if balance of holder for token `_id` is lower than the `_value` sent. MUST revert on any other error. MUST emit the `TransferSingle` event to reflect the balance change (see \"Safe Transfer Rules\" section of the standard). After the above conditions are met, this function MUST check if `_to` is a smart contract (e.g. code size > 0). If so, it MUST call `onERC1155Received` on `_to` and act appropriately (see \"Safe Transfer Rules\" section of the standard).",
        "params": {
          "amount": "Transfer amount",
          "data": "Additional data with no specified format, MUST be sent unaltered in call to `onERC1155Received` on `_to`",
          "from": "Source address",
          "to": "Target address",
          "tokenId": "ID of the token type"
        }
      },
      "setApprovalForAll(address,bool)": {
        "details": "MUST emit the ApprovalForAll event on success.",
        "params": {
          "approved": "True if the operator is approved, false to revoke approval",
          "operator": "Address to add to the set of authorized operators"
        }
      },
      "supportsInterface(bytes4)": {
        "details": "Returns true if this contract implements the interface defined by `interfaceId`. See the corresponding https://eips.ethereum.org/EIPS/eip-165#how-interfaces-are-identified[EIP section] to learn more about how these ids are created. This function call must use less than 30 000 gas."
      },
      "tokenURI(uint256)": {
        "details": "Returns an URI for a given token ID. Throws if the token ID does not exist. May return an empty string.",
        "params": {
          "tokenId": "uint256 ID of the token to query"
        }
      },
      "transferOwnership(address)": {
        "details": "change the Ownership from current owner to newOwner address",
        "params": {
          "newOwner": ": newOwner address "
        }
      }
    },
    "version": 1
  },
  "userdoc": {
    "kind": "user",
    "methods": {
      "balanceOf(address,uint256)": {
        "notice": "Get the balance of an account's Tokens."
      },
      "balanceOfBatch(address[],uint256[])": {
        "notice": "Get the balance of multiple account/token pairs"
      },
      "getCreator(uint256)": {
        "notice": "Get the creator of given tokenID."
      },
      "isApprovedForAll(address,address)": {
        "notice": "Queries the approval status of an operator for a given owner."
      },
      "royaltyFee(uint256)": {
        "notice": "Get the royalty associated with tokenID."
      },
      "safeBatchTransferFrom(address,address,uint256[],uint256[],bytes)": {
        "notice": "Transfers `_values` amount(s) of `_ids` from the `_from` address to the `_to` address specified (with safety call)."
      },
      "safeTransferFrom(address,address,uint256,uint256,bytes)": {
        "notice": "Transfers `_value` amount of an `_id` from the `_from` address to the `_to` address specified (with safety call)."
      },
      "setApprovalForAll(address,bool)": {
        "notice": "Enable or disable approval for a third party (\"operator\") to manage all of the caller's tokens."
      }
    },
    "version": 1
  }
}