{
  "contractName": "NFT",
  "abi": [
    {
      "inputs": [
        {
          "internalType": "string",
          "name": "tokenName",
          "type": "string"
        },
        {
          "internalType": "string",
          "name": "tokenSymbol",
          "type": "string"
        }
      ],
      "stateMutability": "nonpayable",
      "type": "constructor"
    },
    {
      "anonymous": false,
      "inputs": [
        {
          "indexed": true,
          "internalType": "address",
          "name": "owner",
          "type": "address"
        },
        {
          "indexed": true,
          "internalType": "address",
          "name": "approved",
          "type": "address"
        },
        {
          "indexed": true,
          "internalType": "uint256",
          "name": "tokenId",
          "type": "uint256"
        }
      ],
      "name": "Approval",
      "type": "event"
    },
    {
      "anonymous": false,
      "inputs": [
        {
          "indexed": true,
          "internalType": "address",
          "name": "owner",
          "type": "address"
        },
        {
          "indexed": true,
          "internalType": "address",
          "name": "operator",
          "type": "address"
        },
        {
          "indexed": false,
          "internalType": "bool",
          "name": "approved",
          "type": "bool"
        }
      ],
      "name": "ApprovalForAll",
      "type": "event"
    },
    {
      "anonymous": false,
      "inputs": [
        {
          "indexed": true,
          "internalType": "address",
          "name": "previousOwner",
          "type": "address"
        },
        {
          "indexed": true,
          "internalType": "address",
          "name": "newOwner",
          "type": "address"
        }
      ],
      "name": "OwnershipTransferred",
      "type": "event"
    },
    {
      "anonymous": false,
      "inputs": [
        {
          "indexed": true,
          "internalType": "address",
          "name": "from",
          "type": "address"
        },
        {
          "indexed": true,
          "internalType": "address",
          "name": "to",
          "type": "address"
        },
        {
          "indexed": true,
          "internalType": "uint256",
          "name": "tokenId",
          "type": "uint256"
        }
      ],
      "name": "Transfer",
      "type": "event"
    },
    {
      "anonymous": false,
      "inputs": [
        {
          "indexed": false,
          "internalType": "string",
          "name": "value",
          "type": "string"
        },
        {
          "indexed": true,
          "internalType": "uint256",
          "name": "id",
          "type": "uint256"
        }
      ],
      "name": "URI",
      "type": "event"
    },
    {
      "anonymous": false,
      "inputs": [
        {
          "indexed": false,
          "internalType": "string",
          "name": "value",
          "type": "string"
        }
      ],
      "name": "tokenBaseURI",
      "type": "event"
    },
    {
      "inputs": [
        {
          "internalType": "address",
          "name": "to",
          "type": "address"
        },
        {
          "internalType": "uint256",
          "name": "tokenId",
          "type": "uint256"
        }
      ],
      "name": "approve",
      "outputs": [],
      "stateMutability": "nonpayable",
      "type": "function"
    },
    {
      "inputs": [
        {
          "internalType": "address",
          "name": "owner",
          "type": "address"
        }
      ],
      "name": "balanceOf",
      "outputs": [
        {
          "internalType": "uint256",
          "name": "",
          "type": "uint256"
        }
      ],
      "stateMutability": "view",
      "type": "function"
    },
    {
      "inputs": [],
      "name": "baseURI",
      "outputs": [
        {
          "internalType": "string",
          "name": "",
          "type": "string"
        }
      ],
      "stateMutability": "view",
      "type": "function"
    },
    {
      "inputs": [
        {
          "internalType": "uint256",
          "name": "tokenId",
          "type": "uint256"
        }
      ],
      "name": "getApproved",
      "outputs": [
        {
          "internalType": "address",
          "name": "",
          "type": "address"
        }
      ],
      "stateMutability": "view",
      "type": "function"
    },
    {
      "inputs": [
        {
          "internalType": "uint256",
          "name": "tokenId",
          "type": "uint256"
        }
      ],
      "name": "getCreator",
      "outputs": [
        {
          "internalType": "address",
          "name": "",
          "type": "address"
        }
      ],
      "stateMutability": "view",
      "type": "function"
    },
    {
      "inputs": [
        {
          "internalType": "address",
          "name": "owner",
          "type": "address"
        },
        {
          "internalType": "address",
          "name": "operator",
          "type": "address"
        }
      ],
      "name": "isApprovedForAll",
      "outputs": [
        {
          "internalType": "bool",
          "name": "",
          "type": "bool"
        }
      ],
      "stateMutability": "view",
      "type": "function"
    },
    {
      "inputs": [],
      "name": "name",
      "outputs": [
        {
          "internalType": "string",
          "name": "",
          "type": "string"
        }
      ],
      "stateMutability": "view",
      "type": "function"
    },
    {
      "inputs": [],
      "name": "owner",
      "outputs": [
        {
          "internalType": "address",
          "name": "",
          "type": "address"
        }
      ],
      "stateMutability": "view",
      "type": "function"
    },
    {
      "inputs": [
        {
          "internalType": "uint256",
          "name": "tokenId",
          "type": "uint256"
        }
      ],
      "name": "ownerOf",
      "outputs": [
        {
          "internalType": "address",
          "name": "",
          "type": "address"
        }
      ],
      "stateMutability": "view",
      "type": "function"
    },
    {
      "inputs": [
        {
          "internalType": "uint256",
          "name": "tokenId",
          "type": "uint256"
        }
      ],
      "name": "royaltyFee",
      "outputs": [
        {
          "internalType": "uint256",
          "name": "",
          "type": "uint256"
        }
      ],
      "stateMutability": "view",
      "type": "function"
    },
    {
      "inputs": [
        {
          "internalType": "address",
          "name": "from",
          "type": "address"
        },
        {
          "internalType": "address",
          "name": "to",
          "type": "address"
        },
        {
          "internalType": "uint256",
          "name": "tokenId",
          "type": "uint256"
        }
      ],
      "name": "safeTransferFrom",
      "outputs": [],
      "stateMutability": "nonpayable",
      "type": "function"
    },
    {
      "inputs": [
        {
          "internalType": "address",
          "name": "from",
          "type": "address"
        },
        {
          "internalType": "address",
          "name": "to",
          "type": "address"
        },
        {
          "internalType": "uint256",
          "name": "tokenId",
          "type": "uint256"
        },
        {
          "internalType": "bytes",
          "name": "_data",
          "type": "bytes"
        }
      ],
      "name": "safeTransferFrom",
      "outputs": [],
      "stateMutability": "nonpayable",
      "type": "function"
    },
    {
      "inputs": [
        {
          "internalType": "address",
          "name": "operator",
          "type": "address"
        },
        {
          "internalType": "bool",
          "name": "approved",
          "type": "bool"
        }
      ],
      "name": "setApprovalForAll",
      "outputs": [],
      "stateMutability": "nonpayable",
      "type": "function"
    },
    {
      "inputs": [
        {
          "internalType": "bytes4",
          "name": "interfaceId",
          "type": "bytes4"
        }
      ],
      "name": "supportsInterface",
      "outputs": [
        {
          "internalType": "bool",
          "name": "",
          "type": "bool"
        }
      ],
      "stateMutability": "view",
      "type": "function"
    },
    {
      "inputs": [],
      "name": "symbol",
      "outputs": [
        {
          "internalType": "string",
          "name": "",
          "type": "string"
        }
      ],
      "stateMutability": "view",
      "type": "function"
    },
    {
      "inputs": [
        {
          "internalType": "uint256",
          "name": "index",
          "type": "uint256"
        }
      ],
      "name": "tokenByIndex",
      "outputs": [
        {
          "internalType": "uint256",
          "name": "",
          "type": "uint256"
        }
      ],
      "stateMutability": "view",
      "type": "function"
    },
    {
      "inputs": [],
      "name": "tokenCounter",
      "outputs": [
        {
          "internalType": "uint256",
          "name": "",
          "type": "uint256"
        }
      ],
      "stateMutability": "view",
      "type": "function"
    },
    {
      "inputs": [
        {
          "internalType": "address",
          "name": "owner",
          "type": "address"
        },
        {
          "internalType": "uint256",
          "name": "index",
          "type": "uint256"
        }
      ],
      "name": "tokenOfOwnerByIndex",
      "outputs": [
        {
          "internalType": "uint256",
          "name": "",
          "type": "uint256"
        }
      ],
      "stateMutability": "view",
      "type": "function"
    },
    {
      "inputs": [
        {
          "internalType": "uint256",
          "name": "tokenId",
          "type": "uint256"
        }
      ],
      "name": "tokenURI",
      "outputs": [
        {
          "internalType": "string",
          "name": "",
          "type": "string"
        }
      ],
      "stateMutability": "view",
      "type": "function"
    },
    {
      "inputs": [],
      "name": "totalSupply",
      "outputs": [
        {
          "internalType": "uint256",
          "name": "",
          "type": "uint256"
        }
      ],
      "stateMutability": "view",
      "type": "function"
    },
    {
      "inputs": [
        {
          "internalType": "address",
          "name": "from",
          "type": "address"
        },
        {
          "internalType": "address",
          "name": "to",
          "type": "address"
        },
        {
          "internalType": "uint256",
          "name": "tokenId",
          "type": "uint256"
        }
      ],
      "name": "transferFrom",
      "outputs": [],
      "stateMutability": "nonpayable",
      "type": "function"
    },
    {
      "inputs": [
        {
          "internalType": "address",
          "name": "newOwner",
          "type": "address"
        }
      ],
      "name": "transferOwnership",
      "outputs": [
        {
          "internalType": "bool",
          "name": "",
          "type": "bool"
        }
      ],
      "stateMutability": "nonpayable",
      "type": "function"
    },
    {
      "inputs": [
        {
          "internalType": "string",
          "name": "tokenURI",
          "type": "string"
        },
        {
          "internalType": "uint256",
          "name": "fee",
          "type": "uint256"
        }
      ],
      "name": "createNFT",
      "outputs": [
        {
          "internalType": "uint256",
          "name": "",
          "type": "uint256"
        }
      ],
      "stateMutability": "nonpayable",
      "type": "function"
    },
    {
      "inputs": [
        {
          "internalType": "string",
          "name": "_baseURI",
          "type": "string"
        }
      ],
      "name": "setBaseURI",
      "outputs": [],
      "stateMutability": "nonpayable",
      "type": "function"
    },
    {
      "inputs": [
        {
          "internalType": "uint256",
          "name": "tokenId",
          "type": "uint256"
        }
      ],
      "name": "burn",
      "outputs": [],
      "stateMutability": "nonpayable",
      "type": "function"
    }
  ],
  "bytecode": "0x60806040526040518060600160405280602281526020016200485360229139600b908051906020019062000035929190620002d8565b503480156200004357600080fd5b5060405162004875380380620048758339818101604052810190620000699190620003fa565b8181620000a86301ffc9a77c010000000000000000000000000000000000000000000000000000000002620001e4640100000000026401000000009004565b8160069080519060200190620000c0929190620002d8565b508060079080519060200190620000d9929190620002d8565b50620001176380ac58cd7c010000000000000000000000000000000000000000000000000000000002620001e4640100000000026401000000009004565b62000154635b5e139f7c010000000000000000000000000000000000000000000000000000000002620001e4640100000000026401000000009004565b6200019163780e9d637c010000000000000000000000000000000000000000000000000000000002620001e4640100000000026401000000009004565b50506001600c8190555033600d60006101000a81548173ffffffffffffffffffffffffffffffffffffffff021916908373ffffffffffffffffffffffffffffffffffffffff160217905550505062000660565b63ffffffff7c010000000000000000000000000000000000000000000000000000000002817bffffffffffffffffffffffffffffffffffffffffffffffffffffffff191614156200026c576040517f08c379a0000000000000000000000000000000000000000000000000000000008152600401620002639062000494565b60405180910390fd5b6001600080837bffffffffffffffffffffffffffffffffffffffffffffffffffffffff19167bffffffffffffffffffffffffffffffffffffffffffffffffffffffff1916815260200190815260200160002060006101000a81548160ff02191690831515021790555050565b828054620002e6906200055c565b90600052602060002090601f0160209004810192826200030a576000855562000356565b82601f106200032557805160ff191683800117855562000356565b8280016001018555821562000356579182015b828111156200035557825182559160200191906001019062000338565b5b50905062000365919062000369565b5090565b5b80821115620003845760008160009055506001016200036a565b5090565b60006200039f6200039984620004df565b620004b6565b905082815260208101848484011115620003b857600080fd5b620003c584828562000526565b509392505050565b600082601f830112620003df57600080fd5b8151620003f184826020860162000388565b91505092915050565b600080604083850312156200040e57600080fd5b600083015167ffffffffffffffff8111156200042957600080fd5b6200043785828601620003cd565b925050602083015167ffffffffffffffff8111156200045557600080fd5b6200046385828601620003cd565b9150509250929050565b60006200047c601c8362000515565b9150620004898262000637565b602082019050919050565b60006020820190508181036000830152620004af816200046d565b9050919050565b6000620004c2620004d5565b9050620004d0828262000592565b919050565b6000604051905090565b600067ffffffffffffffff821115620004fd57620004fc620005f7565b5b620005088262000626565b9050602081019050919050565b600082825260208201905092915050565b60005b838110156200054657808201518184015260208101905062000529565b8381111562000556576000848401525b50505050565b600060028204905060018216806200057557607f821691505b602082108114156200058c576200058b620005c8565b5b50919050565b6200059d8262000626565b810181811067ffffffffffffffff82111715620005bf57620005be620005f7565b5b80604052505050565b7f4e487b7100000000000000000000000000000000000000000000000000000000600052602260045260246000fd5b7f4e487b7100000000000000000000000000000000000000000000000000000000600052604160045260246000fd5b6000601f19601f8301169050919050565b7f4552433136353a20696e76616c696420696e7465726661636520696400000000600082015250565b6141e380620006706000396000f3fe608060405234801561001057600080fd5b5060043610610190576000357c0100000000000000000000000000000000000000000000000000000000900480636352211e116100fb578063b88d4fde116100b4578063d082e3811161008e578063d082e3811461049f578063d48e638a146104bd578063e985e9c5146104ed578063f2fde38b1461051d57610190565b8063b88d4fde14610423578063c57dc2351461043f578063c87b56dd1461046f57610190565b80636352211e1461034d5780636c0360eb1461037d57806370a082311461039b5780638da5cb5b146103cb57806395d89b41146103e9578063a22cb4651461040757610190565b8063268291551161014d57806326829155146102695780632f745c591461029957806342842e0e146102c957806342966c68146102e55780634f6ccce71461030157806355f804b31461033157610190565b806301ffc9a71461019557806306fdde03146101c5578063081812fc146101e3578063095ea7b31461021357806318160ddd1461022f57806323b872dd1461024d575b600080fd5b6101af60048036038101906101aa9190612dd5565b61054d565b6040516101bc91906133d3565b60405180910390f35b6101cd6105b4565b6040516101da91906133ee565b60405180910390f35b6101fd60048036038101906101f89190612ebc565b610646565b60405161020a919061336c565b60405180910390f35b61022d60048036038101906102289190612d99565b6106cb565b005b6102376107e3565b60405161024491906136f0565b60405180910390f35b61026760048036038101906102629190612c93565b6107f4565b005b610283600480360381019061027e9190612e68565b610854565b60405161029091906136f0565b60405180910390f35b6102b360048036038101906102ae9190612d99565b610934565b6040516102c091906136f0565b60405180910390f35b6102e360048036038101906102de9190612c93565b61098f565b005b6102ff60048036038101906102fa9190612ebc565b6109af565b005b61031b60048036038101906103169190612ebc565b610a03565b60405161032891906136f0565b60405180910390f35b61034b60048036038101906103469190612e27565b610a26565b005b61036760048036038101906103629190612ebc565b610ac2565b604051610374919061336c565b60405180910390f35b610385610af9565b60405161039291906133ee565b60405180910390f35b6103b560048036038101906103b09190612c2e565b610b8b565b6040516103c291906136f0565b60405180910390f35b6103d3610c4a565b6040516103e0919061336c565b60405180910390f35b6103f1610c70565b6040516103fe91906133ee565b60405180910390f35b610421600480360381019061041c9190612d5d565b610d02565b005b61043d60048036038101906104389190612ce2565b610e83565b005b61045960048036038101906104549190612ebc565b610ee5565b60405161046691906136f0565b60405180910390f35b61048960048036038101906104849190612ebc565b610f02565b60405161049691906133ee565b60405180910390f35b6104a7611075565b6040516104b491906136f0565b60405180910390f35b6104d760048036038101906104d29190612ebc565b61107b565b6040516104e4919061336c565b60405180910390f35b61050760048036038101906105029190612c57565b6110b8565b60405161051491906133d3565b60405180910390f35b61053760048036038101906105329190612c2e565b61114c565b60405161054491906133d3565b60405180910390f35b6000806000837bffffffffffffffffffffffffffffffffffffffffffffffffffffffff19167bffffffffffffffffffffffffffffffffffffffffffffffffffffffff1916815260200190815260200160002060009054906101000a900460ff169050919050565b6060600680546105c390613963565b80601f01602080910402602001604051908101604052809291908181526020018280546105ef90613963565b801561063c5780601f106106115761010080835404028352916020019161063c565b820191906000526020600020905b81548152906001019060200180831161061f57829003601f168201915b5050505050905090565b600061065182611314565b610690576040517f08c379a0000000000000000000000000000000000000000000000000000000008152600401610687906135b0565b60405180910390fd5b6004600083815260200190815260200160002060009054906101000a900473ffffffffffffffffffffffffffffffffffffffff169050919050565b60006106d682610ac2565b90508073ffffffffffffffffffffffffffffffffffffffff168373ffffffffffffffffffffffffffffffffffffffff161415610747576040517f08c379a000000000000000000000000000000000000000000000000000000000815260040161073e90613690565b60405180910390fd5b8073ffffffffffffffffffffffffffffffffffffffff16610766611331565b73ffffffffffffffffffffffffffffffffffffffff16148061079557506107948161078f611331565b6110b8565b5b6107d4576040517f08c379a00000000000000000000000000000000000000000000000000000000081526004016107cb90613530565b60405180910390fd5b6107de8383611339565b505050565b60006107ef60026113f2565b905090565b6108056107ff611331565b82611407565b610844576040517f08c379a000000000000000000000000000000000000000000000000000000000815260040161083b906136b0565b60405180910390fd5b61084f8383836114e5565b505050565b6000600f836040516108669190613331565b908152602001604051809103902060009054906101000a900460ff16156108c2576040517f08c379a00000000000000000000000000000000000000000000000000000000081526004016108b990613670565b60405180910390fd5b6000600c5490506108d43382856116fa565b6108de818561171a565b6001600f856040516108f09190613331565b908152602001604051809103902060006101000a81548160ff0219169083151502179055506001600c5461092491906137e0565b600c819055508091505092915050565b600061098782600160008673ffffffffffffffffffffffffffffffffffffffff1673ffffffffffffffffffffffffffffffffffffffff1681526020019081526020016000206117c690919063ffffffff16565b905092915050565b6109aa83838360405180602001604052806000815250610e83565b505050565b6109b881611314565b6109f7576040517f08c379a00000000000000000000000000000000000000000000000000000000081526004016109ee90613650565b60405180910390fd5b610a00816117e1565b50565b600080610a1a83600261198890919063ffffffff16565b50905080915050919050565b3373ffffffffffffffffffffffffffffffffffffffff16600d60009054906101000a900473ffffffffffffffffffffffffffffffffffffffff1673ffffffffffffffffffffffffffffffffffffffff1614610ab6576040517f08c379a0000000000000000000000000000000000000000000000000000000008152600401610aad906135f0565b60405180910390fd5b610abf816119b6565b50565b6000610af282604051806060016040528060298152602001614185602991396002611a079092919063ffffffff16565b9050919050565b6060600b8054610b0890613963565b80601f0160208091040260200160405190810160405280929190818152602001828054610b3490613963565b8015610b815780601f10610b5657610100808354040283529160200191610b81565b820191906000526020600020905b815481529060010190602001808311610b6457829003601f168201915b5050505050905090565b60008073ffffffffffffffffffffffffffffffffffffffff168273ffffffffffffffffffffffffffffffffffffffff161415610bfc576040517f08c379a0000000000000000000000000000000000000000000000000000000008152600401610bf390613550565b60405180910390fd5b610c43600160008473ffffffffffffffffffffffffffffffffffffffff1673ffffffffffffffffffffffffffffffffffffffff168152602001908152602001600020611a27565b9050919050565b600d60009054906101000a900473ffffffffffffffffffffffffffffffffffffffff1681565b606060078054610c7f90613963565b80601f0160208091040260200160405190810160405280929190818152602001828054610cab90613963565b8015610cf85780601f10610ccd57610100808354040283529160200191610cf8565b820191906000526020600020905b815481529060010190602001808311610cdb57829003601f168201915b5050505050905090565b610d0a611331565b73ffffffffffffffffffffffffffffffffffffffff168273ffffffffffffffffffffffffffffffffffffffff161415610d78576040517f08c379a0000000000000000000000000000000000000000000000000000000008152600401610d6f906134d0565b60405180910390fd5b8060056000610d85611331565b73ffffffffffffffffffffffffffffffffffffffff1673ffffffffffffffffffffffffffffffffffffffff16815260200190815260200160002060008473ffffffffffffffffffffffffffffffffffffffff1673ffffffffffffffffffffffffffffffffffffffff16815260200190815260200160002060006101000a81548160ff0219169083151502179055508173ffffffffffffffffffffffffffffffffffffffff16610e32611331565b73ffffffffffffffffffffffffffffffffffffffff167f17307eab39ab6107e8899845ad3d59bd9653f200f220920489ca2b5937696c3183604051610e7791906133d3565b60405180910390a35050565b610e94610e8e611331565b83611407565b610ed3576040517f08c379a0000000000000000000000000000000000000000000000000000000008152600401610eca906136b0565b60405180910390fd5b610edf84848484611a3c565b50505050565b600060096000838152602001908152602001600020549050919050565b6060610f0d82611314565b610f4c576040517f08c379a0000000000000000000000000000000000000000000000000000000008152600401610f4390613630565b60405180910390fd5b6000600860008481526020019081526020016000208054610f6c90613963565b80601f0160208091040260200160405190810160405280929190818152602001828054610f9890613963565b8015610fe55780601f10610fba57610100808354040283529160200191610fe5565b820191906000526020600020905b815481529060010190602001808311610fc857829003601f168201915b505050505090506000610ff6610af9565b905060008151141561100c578192505050611070565b600082511115611041578082604051602001611029929190613348565b60405160208183030381529060405292505050611070565b8061104b85611a98565b60405160200161105c929190613348565b604051602081830303815290604052925050505b919050565b600c5481565b6000600a600083815260200190815260200160002060009054906101000a900473ffffffffffffffffffffffffffffffffffffffff169050919050565b6000600560008473ffffffffffffffffffffffffffffffffffffffff1673ffffffffffffffffffffffffffffffffffffffff16815260200190815260200160002060008373ffffffffffffffffffffffffffffffffffffffff1673ffffffffffffffffffffffffffffffffffffffff16815260200190815260200160002060009054906101000a900460ff16905092915050565b60003373ffffffffffffffffffffffffffffffffffffffff16600d60009054906101000a900473ffffffffffffffffffffffffffffffffffffffff1673ffffffffffffffffffffffffffffffffffffffff16146111de576040517f08c379a00000000000000000000000000000000000000000000000000000000081526004016111d5906135f0565b60405180910390fd5b600073ffffffffffffffffffffffffffffffffffffffff168273ffffffffffffffffffffffffffffffffffffffff16141561124e576040517f08c379a000000000000000000000000000000000000000000000000000000000815260040161124590613450565b60405180910390fd5b81600d60006101000a81548173ffffffffffffffffffffffffffffffffffffffff021916908373ffffffffffffffffffffffffffffffffffffffff1602179055508173ffffffffffffffffffffffffffffffffffffffff16600d60009054906101000a900473ffffffffffffffffffffffffffffffffffffffff1673ffffffffffffffffffffffffffffffffffffffff167f8be0079c531659141344cd1fd0a4f28419497f9722a3daafe3b4186f6b6457e060405160405180910390a360019050919050565b600061132a826002611c6490919063ffffffff16565b9050919050565b600033905090565b816004600083815260200190815260200160002060006101000a81548173ffffffffffffffffffffffffffffffffffffffff021916908373ffffffffffffffffffffffffffffffffffffffff160217905550808273ffffffffffffffffffffffffffffffffffffffff166113ac83610ac2565b73ffffffffffffffffffffffffffffffffffffffff167f8c5be1e5ebec7d5bd14f71427d1e84f3dd0314c0f7b2291e5b200ac8c7c3b92560405160405180910390a45050565b600061140082600001611c7e565b9050919050565b600061141282611314565b611451576040517f08c379a000000000000000000000000000000000000000000000000000000000815260040161144890613510565b60405180910390fd5b600061145c83610ac2565b90508073ffffffffffffffffffffffffffffffffffffffff168473ffffffffffffffffffffffffffffffffffffffff1614806114cb57508373ffffffffffffffffffffffffffffffffffffffff166114b384610646565b73ffffffffffffffffffffffffffffffffffffffff16145b806114dc57506114db81856110b8565b5b91505092915050565b8273ffffffffffffffffffffffffffffffffffffffff1661150582610ac2565b73ffffffffffffffffffffffffffffffffffffffff161461155b576040517f08c379a000000000000000000000000000000000000000000000000000000000815260040161155290613610565b60405180910390fd5b600073ffffffffffffffffffffffffffffffffffffffff168273ffffffffffffffffffffffffffffffffffffffff1614156115cb576040517f08c379a00000000000000000000000000000000000000000000000000000000081526004016115c2906134b0565b60405180910390fd5b6115d6838383611c8f565b6115e1600082611339565b61163281600160008673ffffffffffffffffffffffffffffffffffffffff1673ffffffffffffffffffffffffffffffffffffffff168152602001908152602001600020611c9490919063ffffffff16565b61168381600160008573ffffffffffffffffffffffffffffffffffffffff1673ffffffffffffffffffffffffffffffffffffffff168152602001908152602001600020611ca990919063ffffffff16565b61169981836002611cbe9092919063ffffffff16565b50808273ffffffffffffffffffffffffffffffffffffffff168473ffffffffffffffffffffffffffffffffffffffff167fddf252ad1be2c89b69c2b068fc378daa952ba7f163c4a11628f55a4df523b3ef60405160405180910390a4505050565b61171583838360405180602001604052806000815250611cf3565b505050565b61172382611314565b611762576040517f08c379a0000000000000000000000000000000000000000000000000000000008152600401611759906135d0565b60405180910390fd5b80600860008481526020019081526020016000209080519060200190611789929190612a12565b50817f6bb7ff708619ba0610cba295a58592e0451dee2622938c8755667688daf3529b826040516117ba91906133ee565b60405180910390a25050565b60006117d58360000183611d50565b60019004905092915050565b6117ea81610ac2565b73ffffffffffffffffffffffffffffffffffffffff163373ffffffffffffffffffffffffffffffffffffffff1614611857576040517f08c379a000000000000000000000000000000000000000000000000000000000815260040161184e90613490565b60405180910390fd5b600061186282610ac2565b905061187081600084611c8f565b61187b600083611339565b600060086000848152602001908152602001600020805461189b90613963565b9050146118c2576008600083815260200190815260200160002060006118c19190612a98565b5b61191382600160008473ffffffffffffffffffffffffffffffffffffffff1673ffffffffffffffffffffffffffffffffffffffff168152602001908152602001600020611c9490919063ffffffff16565b611927826002611dea90919063ffffffff16565b5081600073ffffffffffffffffffffffffffffffffffffffff168273ffffffffffffffffffffffffffffffffffffffff167fddf252ad1be2c89b69c2b068fc378daa952ba7f163c4a11628f55a4df523b3ef60405160405180910390a45050565b60008060008061199b8660000186611e04565b91509150816001900481600190049350935050509250929050565b80600b90805190602001906119cc929190612a12565b507f5514cc7324ac64a875ba50a1849367d39c8b030fe0f563c3c7142984552bc306816040516119fc91906133ee565b60405180910390a150565b6000611a1a846000018460010284611eb4565b6001900490509392505050565b6000611a3582600001611f7b565b9050919050565b611a478484846114e5565b611a5384848484611f8c565b611a92576040517f08c379a0000000000000000000000000000000000000000000000000000000008152600401611a8990613430565b60405180910390fd5b50505050565b60606000821415611ae0576040518060400160405280600181526020017f30000000000000000000000000000000000000000000000000000000000000008152509050611c5f565b600082905060005b60008214611b12578080611afb906139c6565b915050600a82611b0b9190613836565b9150611ae8565b60008167ffffffffffffffff811115611b54577f4e487b7100000000000000000000000000000000000000000000000000000000600052604160045260246000fd5b6040519080825280601f01601f191660200182016040528015611b865781602001600182028036833780820191505090505b5090505b60008514611c5857600182611b9f9190613867565b9150600a85611bae9190613a0f565b6030611bba91906137e0565b7f010000000000000000000000000000000000000000000000000000000000000002818381518110611c15577f4e487b7100000000000000000000000000000000000000000000000000000000600052603260045260246000fd5b60200101907effffffffffffffffffffffffffffffffffffffffffffffffffffffffffffff1916908160001a905350600a85611c519190613836565b9450611b8a565b8093505050505b919050565b6000611c768360000183600102612128565b905092915050565b600081600001805490509050919050565b505050565b611ca4826000018260010261214b565b505050565b611cb982600001826001026122d5565b505050565b6000611cea84600001846001028473ffffffffffffffffffffffffffffffffffffffff16600102612345565b90509392505050565b611cfe848484612457565b611d0b6000858584611f8c565b611d4a576040517f08c379a0000000000000000000000000000000000000000000000000000000008152600401611d4190613430565b60405180910390fd5b50505050565b600081836000018054905011611d9b576040517f08c379a0000000000000000000000000000000000000000000000000000000008152600401611d9290613410565b60405180910390fd5b826000018281548110611dd7577f4e487b7100000000000000000000000000000000000000000000000000000000600052603260045260246000fd5b9060005260206000200154905092915050565b6000611dfc836000018360010261264f565b905092915050565b60008082846000018054905011611e50576040517f08c379a0000000000000000000000000000000000000000000000000000000008152600401611e4790613570565b60405180910390fd5b6000846000018481548110611e8e577f4e487b7100000000000000000000000000000000000000000000000000000000600052603260045260246000fd5b906000526020600020906002020190508060000154816001015492509250509250929050565b60008084600101600085815260200190815260200160002054905060008114158390611f16576040517f08c379a0000000000000000000000000000000000000000000000000000000008152600401611f0d91906133ee565b60405180910390fd5b5084600001600182611f289190613867565b81548110611f5f577f4e487b7100000000000000000000000000000000000000000000000000000000600052603260045260246000fd5b9060005260206000209060020201600101549150509392505050565b600081600001805490509050919050565b6000611fad8473ffffffffffffffffffffffffffffffffffffffff1661280a565b611fba5760019050612120565b600061209d63150b7a027c010000000000000000000000000000000000000000000000000000000002611feb611331565b8887876040516024016120019493929190613387565b604051602081830303815290604052907bffffffffffffffffffffffffffffffffffffffffffffffffffffffff19166020820180517bffffffffffffffffffffffffffffffffffffffffffffffffffffffff8381831617835250505050604051806060016040528060328152602001614153603291398773ffffffffffffffffffffffffffffffffffffffff1661282d9092919063ffffffff16565b90506000818060200190518101906120b59190612dfe565b905063150b7a027c0100000000000000000000000000000000000000000000000000000000027bffffffffffffffffffffffffffffffffffffffffffffffffffffffff1916817bffffffffffffffffffffffffffffffffffffffffffffffffffffffff191614925050505b949350505050565b600080836001016000848152602001908152602001600020541415905092915050565b600080836001016000848152602001908152602001600020549050600081146122c957600060018261217d9190613867565b90506000600186600001805490506121959190613867565b905060008660000182815481106121d5577f4e487b7100000000000000000000000000000000000000000000000000000000600052603260045260246000fd5b906000526020600020015490508087600001848154811061221f577f4e487b7100000000000000000000000000000000000000000000000000000000600052603260045260246000fd5b906000526020600020018190555060018361223a91906137e0565b876001016000838152602001908152602001600020819055508660000180548061228d577f4e487b7100000000000000000000000000000000000000000000000000000000600052603160045260246000fd5b600190038181906000526020600020016000905590558660010160008781526020019081526020016000206000905560019450505050506122cf565b60009150505b92915050565b60006122e18383612845565b61233a57826000018290806001815401808255809150506001900390600052602060002001600090919091909150558260000180549050836001016000848152602001908152602001600020819055506001905061233f565b600090505b92915050565b60008084600101600085815260200190815260200160002054905060008114156123ec57846000016040518060400160405280868152602001858152509080600181540180825580915050600190039060005260206000209060020201600090919091909150600082015181600001556020820151816001015550508460000180549050856001016000868152602001908152602001600020819055506001915050612450565b82856000016001836123fe9190613867565b81548110612435577f4e487b7100000000000000000000000000000000000000000000000000000000600052603260045260246000fd5b90600052602060002090600202016001018190555060009150505b9392505050565b600073ffffffffffffffffffffffffffffffffffffffff168373ffffffffffffffffffffffffffffffffffffffff1614156124c7576040517f08c379a00000000000000000000000000000000000000000000000000000000081526004016124be90613590565b60405180910390fd5b6124d082611314565b15612510576040517f08c379a000000000000000000000000000000000000000000000000000000000815260040161250790613470565b60405180910390fd5b61251c60008484611c8f565b61256d82600160008673ffffffffffffffffffffffffffffffffffffffff1673ffffffffffffffffffffffffffffffffffffffff168152602001908152602001600020611ca990919063ffffffff16565b61258382846002611cbe9092919063ffffffff16565b5033600a600084815260200190815260200160002060006101000a81548173ffffffffffffffffffffffffffffffffffffffff021916908373ffffffffffffffffffffffffffffffffffffffff160217905550806009600084815260200190815260200160002081905550818373ffffffffffffffffffffffffffffffffffffffff16600073ffffffffffffffffffffffffffffffffffffffff167fddf252ad1be2c89b69c2b068fc378daa952ba7f163c4a11628f55a4df523b3ef60405160405180910390a4505050565b600080836001016000848152602001908152602001600020549050600081146127fe5760006001826126819190613867565b90506000600186600001805490506126999190613867565b905060008660000182815481106126d9577f4e487b7100000000000000000000000000000000000000000000000000000000600052603260045260246000fd5b9060005260206000209060020201905080876000018481548110612726577f4e487b7100000000000000000000000000000000000000000000000000000000600052603260045260246000fd5b9060005260206000209060020201600082015481600001556001820154816001015590505060018361275891906137e0565b8760010160008360000154815260200190815260200160002081905550866000018054806127af577f4e487b7100000000000000000000000000000000000000000000000000000000600052603160045260246000fd5b6001900381819060005260206000209060020201600080820160009055600182016000905550509055866001016000878152602001908152602001600020600090556001945050505050612804565b60009150505b92915050565b6000808273ffffffffffffffffffffffffffffffffffffffff163b119050919050565b606061283c8484600085612868565b90509392505050565b600080836001016000848152602001908152602001600020541415905092915050565b6060823073ffffffffffffffffffffffffffffffffffffffff163110156128c4576040517f08c379a00000000000000000000000000000000000000000000000000000000081526004016128bb906134f0565b60405180910390fd5b6000808673ffffffffffffffffffffffffffffffffffffffff1685876040516128ed919061331a565b60006040518083038185875af1925050503d806000811461292a576040519150601f19603f3d011682016040523d82523d6000602084013e61292f565b606091505b50915091506129408783838761294c565b92505050949350505050565b606083156129af576000835114156129a7576129678561280a565b6129a6576040517f08c379a000000000000000000000000000000000000000000000000000000000815260040161299d906136d0565b60405180910390fd5b5b8290506129ba565b6129b983836129c2565b5b949350505050565b6000825111156129d55781518083602001fd5b806040517f08c379a0000000000000000000000000000000000000000000000000000000008152600401612a0991906133ee565b60405180910390fd5b828054612a1e90613963565b90600052602060002090601f016020900481019282612a405760008555612a87565b82601f10612a5957805160ff1916838001178555612a87565b82800160010185558215612a87579182015b82811115612a86578251825591602001919060010190612a6b565b5b509050612a949190612ad8565b5090565b508054612aa490613963565b6000825580601f10612ab65750612ad5565b601f016020900490600052602060002090810190612ad49190612ad8565b5b50565b5b80821115612af1576000816000905550600101612ad9565b5090565b6000612b08612b0384613730565b61370b565b905082815260208101848484011115612b2057600080fd5b612b2b848285613921565b509392505050565b6000612b46612b4184613761565b61370b565b905082815260208101848484011115612b5e57600080fd5b612b69848285613921565b509392505050565b600081359050612b80816140f6565b92915050565b600081359050612b958161410d565b92915050565b600081359050612baa81614124565b92915050565b600081519050612bbf81614124565b92915050565b600082601f830112612bd657600080fd5b8135612be6848260208601612af5565b91505092915050565b600082601f830112612c0057600080fd5b8135612c10848260208601612b33565b91505092915050565b600081359050612c288161413b565b92915050565b600060208284031215612c4057600080fd5b6000612c4e84828501612b71565b91505092915050565b60008060408385031215612c6a57600080fd5b6000612c7885828601612b71565b9250506020612c8985828601612b71565b9150509250929050565b600080600060608486031215612ca857600080fd5b6000612cb686828701612b71565b9350506020612cc786828701612b71565b9250506040612cd886828701612c19565b9150509250925092565b60008060008060808587031215612cf857600080fd5b6000612d0687828801612b71565b9450506020612d1787828801612b71565b9350506040612d2887828801612c19565b925050606085013567ffffffffffffffff811115612d4557600080fd5b612d5187828801612bc5565b91505092959194509250565b60008060408385031215612d7057600080fd5b6000612d7e85828601612b71565b9250506020612d8f85828601612b86565b9150509250929050565b60008060408385031215612dac57600080fd5b6000612dba85828601612b71565b9250506020612dcb85828601612c19565b9150509250929050565b600060208284031215612de757600080fd5b6000612df584828501612b9b565b91505092915050565b600060208284031215612e1057600080fd5b6000612e1e84828501612bb0565b91505092915050565b600060208284031215612e3957600080fd5b600082013567ffffffffffffffff811115612e5357600080fd5b612e5f84828501612bef565b91505092915050565b60008060408385031215612e7b57600080fd5b600083013567ffffffffffffffff811115612e9557600080fd5b612ea185828601612bef565b9250506020612eb285828601612c19565b9150509250929050565b600060208284031215612ece57600080fd5b6000612edc84828501612c19565b91505092915050565b612eee816138ad565b82525050565b612efd8161389b565b82525050565b612f0c816138bf565b82525050565b6000612f1d82613792565b612f2781856137a8565b9350612f37818560208601613930565b612f4081613afc565b840191505092915050565b6000612f5682613792565b612f6081856137b9565b9350612f70818560208601613930565b80840191505092915050565b6000612f878261379d565b612f9181856137c4565b9350612fa1818560208601613930565b612faa81613afc565b840191505092915050565b6000612fc08261379d565b612fca81856137d5565b9350612fda818560208601613930565b80840191505092915050565b6000612ff36022836137c4565b9150612ffe82613b0d565b604082019050919050565b60006130166032836137c4565b915061302182613b5c565b604082019050919050565b60006130396026836137c4565b915061304482613bab565b604082019050919050565b600061305c601c836137c4565b915061306782613bfa565b602082019050919050565b600061307f6010836137c4565b915061308a82613c23565b602082019050919050565b60006130a26024836137c4565b91506130ad82613c4c565b604082019050919050565b60006130c56019836137c4565b91506130d082613c9b565b602082019050919050565b60006130e86026836137c4565b91506130f382613cc4565b604082019050919050565b600061310b602c836137c4565b915061311682613d13565b604082019050919050565b600061312e6038836137c4565b915061313982613d62565b604082019050919050565b6000613151602a836137c4565b915061315c82613db1565b604082019050919050565b60006131746022836137c4565b915061317f82613e00565b604082019050919050565b60006131976020836137c4565b91506131a282613e4f565b602082019050919050565b60006131ba602c836137c4565b91506131c582613e78565b604082019050919050565b60006131dd602c836137c4565b91506131e882613ec7565b604082019050919050565b60006132006020836137c4565b915061320b82613f16565b602082019050919050565b60006132236029836137c4565b915061322e82613f3f565b604082019050919050565b6000613246602f836137c4565b915061325182613f8e565b604082019050919050565b60006132696019836137c4565b915061327482613fdd565b602082019050919050565b600061328c601a836137c4565b915061329782614006565b602082019050919050565b60006132af6021836137c4565b91506132ba8261402f565b604082019050919050565b60006132d26031836137c4565b91506132dd8261407e565b604082019050919050565b60006132f5601d836137c4565b9150613300826140cd565b602082019050919050565b61331481613917565b82525050565b60006133268284612f4b565b915081905092915050565b600061333d8284612fb5565b915081905092915050565b60006133548285612fb5565b91506133608284612fb5565b91508190509392505050565b60006020820190506133816000830184612ef4565b92915050565b600060808201905061339c6000830187612ee5565b6133a96020830186612ef4565b6133b6604083018561330b565b81810360608301526133c88184612f12565b905095945050505050565b60006020820190506133e86000830184612f03565b92915050565b600060208201905081810360008301526134088184612f7c565b905092915050565b6000602082019050818103600083015261342981612fe6565b9050919050565b6000602082019050818103600083015261344981613009565b9050919050565b600060208201905081810360008301526134698161302c565b9050919050565b600060208201905081810360008301526134898161304f565b9050919050565b600060208201905081810360008301526134a981613072565b9050919050565b600060208201905081810360008301526134c981613095565b9050919050565b600060208201905081810360008301526134e9816130b8565b9050919050565b60006020820190508181036000830152613509816130db565b9050919050565b60006020820190508181036000830152613529816130fe565b9050919050565b6000602082019050818103600083015261354981613121565b9050919050565b6000602082019050818103600083015261356981613144565b9050919050565b6000602082019050818103600083015261358981613167565b9050919050565b600060208201905081810360008301526135a98161318a565b9050919050565b600060208201905081810360008301526135c9816131ad565b9050919050565b600060208201905081810360008301526135e9816131d0565b9050919050565b60006020820190508181036000830152613609816131f3565b9050919050565b6000602082019050818103600083015261362981613216565b9050919050565b6000602082019050818103600083015261364981613239565b9050919050565b600060208201905081810360008301526136698161325c565b9050919050565b600060208201905081810360008301526136898161327f565b9050919050565b600060208201905081810360008301526136a9816132a2565b9050919050565b600060208201905081810360008301526136c9816132c5565b9050919050565b600060208201905081810360008301526136e9816132e8565b9050919050565b6000602082019050613705600083018461330b565b92915050565b6000613715613726565b90506137218282613995565b919050565b6000604051905090565b600067ffffffffffffffff82111561374b5761374a613acd565b5b61375482613afc565b9050602081019050919050565b600067ffffffffffffffff82111561377c5761377b613acd565b5b61378582613afc565b9050602081019050919050565b600081519050919050565b600081519050919050565b600082825260208201905092915050565b600081905092915050565b600082825260208201905092915050565b600081905092915050565b60006137eb82613917565b91506137f683613917565b9250827fffffffffffffffffffffffffffffffffffffffffffffffffffffffffffffffff0382111561382b5761382a613a40565b5b828201905092915050565b600061384182613917565b915061384c83613917565b92508261385c5761385b613a6f565b5b828204905092915050565b600061387282613917565b915061387d83613917565b9250828210156138905761388f613a40565b5b828203905092915050565b60006138a6826138f7565b9050919050565b60006138b8826138f7565b9050919050565b60008115159050919050565b60007fffffffff0000000000000000000000000000000000000000000000000000000082169050919050565b600073ffffffffffffffffffffffffffffffffffffffff82169050919050565b6000819050919050565b82818337600083830152505050565b60005b8381101561394e578082015181840152602081019050613933565b8381111561395d576000848401525b50505050565b6000600282049050600182168061397b57607f821691505b6020821081141561398f5761398e613a9e565b5b50919050565b61399e82613afc565b810181811067ffffffffffffffff821117156139bd576139bc613acd565b5b80604052505050565b60006139d182613917565b91507fffffffffffffffffffffffffffffffffffffffffffffffffffffffffffffffff821415613a0457613a03613a40565b5b600182019050919050565b6000613a1a82613917565b9150613a2583613917565b925082613a3557613a34613a6f565b5b828206905092915050565b7f4e487b7100000000000000000000000000000000000000000000000000000000600052601160045260246000fd5b7f4e487b7100000000000000000000000000000000000000000000000000000000600052601260045260246000fd5b7f4e487b7100000000000000000000000000000000000000000000000000000000600052602260045260246000fd5b7f4e487b7100000000000000000000000000000000000000000000000000000000600052604160045260246000fd5b6000601f19601f8301169050919050565b7f456e756d657261626c655365743a20696e646578206f7574206f6620626f756e60008201527f6473000000000000000000000000000000000000000000000000000000000000602082015250565b7f4552433732313a207472616e7366657220746f206e6f6e20455243373231526560008201527f63656976657220696d706c656d656e7465720000000000000000000000000000602082015250565b7f4f776e61626c653a206e6577206f776e657220697320746865207a65726f206160008201527f6464726573730000000000000000000000000000000000000000000000000000602082015250565b7f4552433732313a20746f6b656e20616c7265616479206d696e74656400000000600082015250565b7f63616c6c6572206e6f74206f776e657200000000000000000000000000000000600082015250565b7f4552433732313a207472616e7366657220746f20746865207a65726f2061646460008201527f7265737300000000000000000000000000000000000000000000000000000000602082015250565b7f4552433732313a20617070726f766520746f2063616c6c657200000000000000600082015250565b7f416464726573733a20696e73756666696369656e742062616c616e636520666f60008201527f722063616c6c0000000000000000000000000000000000000000000000000000602082015250565b7f4552433732313a206f70657261746f7220717565727920666f72206e6f6e657860008201527f697374656e7420746f6b656e0000000000000000000000000000000000000000602082015250565b7f4552433732313a20617070726f76652063616c6c6572206973206e6f74206f7760008201527f6e6572206e6f7220617070726f76656420666f7220616c6c0000000000000000602082015250565b7f4552433732313a2062616c616e636520717565727920666f7220746865207a6560008201527f726f206164647265737300000000000000000000000000000000000000000000602082015250565b7f456e756d657261626c654d61703a20696e646578206f7574206f6620626f756e60008201527f6473000000000000000000000000000000000000000000000000000000000000602082015250565b7f4552433732313a206d696e7420746f20746865207a65726f2061646472657373600082015250565b7f4552433732313a20617070726f76656420717565727920666f72206e6f6e657860008201527f697374656e7420746f6b656e0000000000000000000000000000000000000000602082015250565b7f4552433732314d657461646174613a2055524920736574206f66206e6f6e657860008201527f697374656e7420746f6b656e0000000000000000000000000000000000000000602082015250565b7f4f776e61626c653a2063616c6c6572206973206e6f7420746865206f776e6572600082015250565b7f4552433732313a207472616e73666572206f6620746f6b656e2074686174206960008201527f73206e6f74206f776e0000000000000000000000000000000000000000000000602082015250565b7f4552433732314d657461646174613a2055524920717565727920666f72206e6f60008201527f6e6578697374656e7420746f6b656e0000000000000000000000000000000000602082015250565b7f4552433732313a206e6f6e6578697374656e7420746f6b656e00000000000000600082015250565b7f4d696e74696e673a204475706c6963617465204d696e74696e67000000000000600082015250565b7f4552433732313a20617070726f76616c20746f2063757272656e74206f776e6560008201527f7200000000000000000000000000000000000000000000000000000000000000602082015250565b7f4552433732313a207472616e736665722063616c6c6572206973206e6f74206f60008201527f776e6572206e6f7220617070726f766564000000000000000000000000000000602082015250565b7f416464726573733a2063616c6c20746f206e6f6e2d636f6e7472616374000000600082015250565b6140ff8161389b565b811461410a57600080fd5b50565b614116816138bf565b811461412157600080fd5b50565b61412d816138cb565b811461413857600080fd5b50565b61414481613917565b811461414f57600080fd5b5056fe4552433732313a207472616e7366657220746f206e6f6e20455243373231526563656976657220696d706c656d656e7465724552433732313a206f776e657220717565727920666f72206e6f6e6578697374656e7420746f6b656ea2646970667358221220207cb1882b821a7e65b11279dcdf63a36273f4e4196fa82f40e9d4eacd99f5ed64736f6c6343000804003368747470733a2f2f676174657761792e70696e6174612e636c6f75642f697066732f",
  "immutableReferences": {},
  "source": "// SPDX-License-Identifier: MIT\r\n// OpenZeppelin Contracts (last updated v4.7.0) \r\n\r\npragma solidity ^0.8.4;\r\n\r\nimport \"./ERC721.sol\";\r\n\r\ncontract NFT is ERC721 {\r\n    \r\n    uint256 public tokenCounter;\r\n    address public owner;\r\n    mapping(uint256 => bool) private usedNonce;\r\n    mapping(string => bool) private tokenURIs;\r\n\r\n    event OwnershipTransferred(address indexed previousOwner, address indexed newOwner);\r\n\r\n    struct Sign {\r\n        uint8 v;\r\n        bytes32 r;\r\n        bytes32 s;\r\n        uint256 nonce;\r\n    }\r\n\r\n    constructor (string memory tokenName, string memory tokenSymbol) ERC721 (tokenName, tokenSymbol){\r\n        tokenCounter = 1;\r\n        owner = msg.sender;\r\n    }\r\n\r\n    modifier onlyOwner() {\r\n        require(owner == msg.sender, \"Ownable: caller is not the owner\");\r\n        _;\r\n    }\r\n\r\n    function transferOwnership(address newOwner) external onlyOwner returns(bool){\r\n        require(newOwner != address(0), \"Ownable: new owner is the zero address\");\r\n        owner = newOwner;\r\n        emit OwnershipTransferred(owner, newOwner);\r\n        return true;\r\n    }\r\n\r\n    function verifySign(string memory tokenURI, address caller, Sign memory sign) internal view {\r\n        bytes32 hash = keccak256(abi.encodePacked(this, caller, tokenURI, sign.nonce));\r\n        require(owner == ecrecover(keccak256(abi.encodePacked(\"\\x19Ethereum Signed Message:\\n32\", hash)), sign.v, sign.r, sign.s), \"Owner sign verification failed\");\r\n    }\r\n\r\n    \r\n    /**\r\n     * @dev Internal function to mint a new token.\r\n     * Reverts if the given token ID already exists.\r\n     * @param tokenURI string memory URI of the token to be minted.\r\n     * @param fee uint256 royalty of the token to be minted.\r\n     */\r\n\r\n    function createNFT(string memory tokenURI, uint256 fee) external returns (uint256) {\r\n      //  require(!usedNonce[sign.nonce], \"Nonce : Invalid Nonce\");\r\n        require(!tokenURIs[tokenURI],\"Minting: Duplicate Minting\");\r\n      //  usedNonce[sign.nonce] = true;\r\n        uint256 newItemId = tokenCounter;\r\n      //  verifySign(tokenURI, msg.sender, sign);\r\n        _safeMint(msg.sender, newItemId, fee);\r\n        _setTokenURI(newItemId, tokenURI);\r\n        tokenURIs[tokenURI] = true;\r\n        tokenCounter = tokenCounter + 1;\r\n        return newItemId;\r\n    }\r\n\r\n    function setBaseURI(string memory _baseURI) external onlyOwner{\r\n        _setBaseURI(_baseURI);\r\n    }\r\n    \r\n    function burn(uint256 tokenId) external {\r\n        require(_exists(tokenId), \"ERC721: nonexistent token\");\r\n        _burn(tokenId);\r\n    }\r\n}",
  "sourcePath": "C:\\Users\\91863\\Arevea\\contracts\\NFT.sol",
  "compiler": {
    "name": "solc",
    "version": "0.8.4+commit.c7e474f2.Emscripten.clang"
  },
  "schemaVersion": "3.4.8",
  "updatedAt": "2022-08-08T04:48:43.853Z",
  "devdoc": {
    "kind": "dev",
    "methods": {
      "balanceOf(address)": {
        "params": {
          "owner": "The address of the token holder"
        },
        "returns": {
          "_0": "The account's balance of the Token type requested"
        }
      },
      "createNFT(string,uint256)": {
        "details": "Internal function to mint a new token. Reverts if the given token ID already exists.",
        "params": {
          "fee": "uint256 royalty of the token to be minted.",
          "tokenURI": "string memory URI of the token to be minted."
        }
      },
      "isApprovedForAll(address,address)": {
        "params": {
          "operator": "Address of authorized operator",
          "owner": "The owner of the Tokens"
        },
        "returns": {
          "_0": "True if the operator is approved, false if not"
        }
      },
      "name()": {
        "details": "Returns the token collection name."
      },
      "ownerOf(uint256)": {
        "params": {
          "tokenId": "The tokenId of the token holder"
        },
        "returns": {
          "_0": "The current owner of the requested tokenId"
        }
      },
      "safeTransferFrom(address,address,uint256,bytes)": {
        "details": "Caller must be approved to manage the tokens being transferred out of the `_from` account (see \"Approval\" section of the standard). MUST revert if `_to` is the zero address. MUST revert if balance of holder for token `_id` is lower than the `_value` sent. MUST revert on any other error. MUST emit the `TransferSingle` event to reflect the balance change (see \"Safe Transfer Rules\" section of the standard). After the above conditions are met, this function MUST check if `_to` is a smart contract (e.g. code size > 0). If so, it MUST call `onERC721Received` on `_to` and act appropriately (see \"Safe Transfer Rules\" section of the standard).",
        "params": {
          "_data": "Additional data with no specified format, MUST be sent unaltered in call to `onERC721Received` on `_to`",
          "from": "Source address",
          "to": "Target address",
          "tokenId": "ID of the token type."
        }
      },
      "setApprovalForAll(address,bool)": {
        "details": "MUST emit the ApprovalForAll event on success.",
        "params": {
          "approved": "True if the operator is approved, false to revoke approval",
          "operator": "Address to add to the set of authorized operators"
        }
      },
      "supportsInterface(bytes4)": {
        "details": "Returns true if this contract implements the interface defined by `interfaceId`. See the corresponding https://eips.ethereum.org/EIPS/eip-165#how-interfaces-are-identified[EIP section] to learn more about how these ids are created. This function call must use less than 30 000 gas."
      },
      "symbol()": {
        "details": "Returns the token collection symbol."
      },
      "tokenByIndex(uint256)": {
        "details": "Returns a token ID at a given `index` of all the tokens stored by the contract. Use along with {totalSupply} to enumerate all tokens."
      },
      "tokenOfOwnerByIndex(address,uint256)": {
        "details": "Returns a token ID owned by `owner` at a given `index` of its token list. Use along with {balanceOf} to enumerate all of ``owner``'s tokens."
      },
      "tokenURI(uint256)": {
        "details": "Returns the Uniform Resource Identifier (URI) for `tokenId` token."
      },
      "totalSupply()": {
        "details": "Returns the total amount of tokens stored by the contract."
      }
    },
    "version": 1
  },
  "userdoc": {
    "kind": "user",
    "methods": {
      "balanceOf(address)": {
        "notice": "Get the Token balance of an account's."
      },
      "isApprovedForAll(address,address)": {
        "notice": "Queries the approval status of an operator for a given owner."
      },
      "ownerOf(uint256)": {
        "notice": "Get the owner of tokenId."
      },
      "safeTransferFrom(address,address,uint256,bytes)": {
        "notice": "Transfers `_value` amount of an `_id` from the `_from` address to the `_to` address specified (with safety call)."
      },
      "setApprovalForAll(address,bool)": {
        "notice": "Enable or disable approval for a third party (\"operator\") to manage all of the caller's tokens."
      }
    },
    "version": 1
  }
}