{
  "contractName": "NFT",
  "abi": [
    {
      "inputs": [
        {
          "internalType": "string",
          "name": "tokenName",
          "type": "string"
        },
        {
          "internalType": "string",
          "name": "tokenSymbol",
          "type": "string"
        }
      ],
      "stateMutability": "nonpayable",
      "type": "constructor"
    },
    {
      "anonymous": false,
      "inputs": [
        {
          "indexed": true,
          "internalType": "address",
          "name": "owner",
          "type": "address"
        },
        {
          "indexed": true,
          "internalType": "address",
          "name": "approved",
          "type": "address"
        },
        {
          "indexed": true,
          "internalType": "uint256",
          "name": "tokenId",
          "type": "uint256"
        }
      ],
      "name": "Approval",
      "type": "event"
    },
    {
      "anonymous": false,
      "inputs": [
        {
          "indexed": true,
          "internalType": "address",
          "name": "owner",
          "type": "address"
        },
        {
          "indexed": true,
          "internalType": "address",
          "name": "operator",
          "type": "address"
        },
        {
          "indexed": false,
          "internalType": "bool",
          "name": "approved",
          "type": "bool"
        }
      ],
      "name": "ApprovalForAll",
      "type": "event"
    },
    {
      "anonymous": false,
      "inputs": [
        {
          "indexed": true,
          "internalType": "address",
          "name": "previousOwner",
          "type": "address"
        },
        {
          "indexed": true,
          "internalType": "address",
          "name": "newOwner",
          "type": "address"
        }
      ],
      "name": "OwnershipTransferred",
      "type": "event"
    },
    {
      "anonymous": false,
      "inputs": [
        {
          "indexed": true,
          "internalType": "address",
          "name": "from",
          "type": "address"
        },
        {
          "indexed": true,
          "internalType": "address",
          "name": "to",
          "type": "address"
        },
        {
          "indexed": true,
          "internalType": "uint256",
          "name": "tokenId",
          "type": "uint256"
        }
      ],
      "name": "Transfer",
      "type": "event"
    },
    {
      "anonymous": false,
      "inputs": [
        {
          "indexed": false,
          "internalType": "string",
          "name": "value",
          "type": "string"
        },
        {
          "indexed": true,
          "internalType": "uint256",
          "name": "id",
          "type": "uint256"
        }
      ],
      "name": "URI",
      "type": "event"
    },
    {
      "anonymous": false,
      "inputs": [
        {
          "indexed": false,
          "internalType": "string",
          "name": "value",
          "type": "string"
        }
      ],
      "name": "tokenBaseURI",
      "type": "event"
    },
    {
      "inputs": [
        {
          "internalType": "address",
          "name": "to",
          "type": "address"
        },
        {
          "internalType": "uint256",
          "name": "tokenId",
          "type": "uint256"
        }
      ],
      "name": "approve",
      "outputs": [],
      "stateMutability": "nonpayable",
      "type": "function"
    },
    {
      "inputs": [
        {
          "internalType": "address",
          "name": "owner",
          "type": "address"
        }
      ],
      "name": "balanceOf",
      "outputs": [
        {
          "internalType": "uint256",
          "name": "",
          "type": "uint256"
        }
      ],
      "stateMutability": "view",
      "type": "function",
      "constant": true
    },
    {
      "inputs": [],
      "name": "baseURI",
      "outputs": [
        {
          "internalType": "string",
          "name": "",
          "type": "string"
        }
      ],
      "stateMutability": "view",
      "type": "function",
      "constant": true
    },
    {
      "inputs": [
        {
          "internalType": "uint256",
          "name": "tokenId",
          "type": "uint256"
        }
      ],
      "name": "getApproved",
      "outputs": [
        {
          "internalType": "address",
          "name": "",
          "type": "address"
        }
      ],
      "stateMutability": "view",
      "type": "function",
      "constant": true
    },
    {
      "inputs": [
        {
          "internalType": "uint256",
          "name": "tokenId",
          "type": "uint256"
        }
      ],
      "name": "getCreator",
      "outputs": [
        {
          "internalType": "address",
          "name": "",
          "type": "address"
        }
      ],
      "stateMutability": "view",
      "type": "function",
      "constant": true
    },
    {
      "inputs": [
        {
          "internalType": "address",
          "name": "owner",
          "type": "address"
        },
        {
          "internalType": "address",
          "name": "operator",
          "type": "address"
        }
      ],
      "name": "isApprovedForAll",
      "outputs": [
        {
          "internalType": "bool",
          "name": "",
          "type": "bool"
        }
      ],
      "stateMutability": "view",
      "type": "function",
      "constant": true
    },
    {
      "inputs": [],
      "name": "name",
      "outputs": [
        {
          "internalType": "string",
          "name": "",
          "type": "string"
        }
      ],
      "stateMutability": "view",
      "type": "function",
      "constant": true
    },
    {
      "inputs": [],
      "name": "owner",
      "outputs": [
        {
          "internalType": "address",
          "name": "",
          "type": "address"
        }
      ],
      "stateMutability": "view",
      "type": "function",
      "constant": true
    },
    {
      "inputs": [
        {
          "internalType": "uint256",
          "name": "tokenId",
          "type": "uint256"
        }
      ],
      "name": "ownerOf",
      "outputs": [
        {
          "internalType": "address",
          "name": "",
          "type": "address"
        }
      ],
      "stateMutability": "view",
      "type": "function",
      "constant": true
    },
    {
      "inputs": [
        {
          "internalType": "uint256",
          "name": "tokenId",
          "type": "uint256"
        }
      ],
      "name": "royaltyFee",
      "outputs": [
        {
          "internalType": "uint256",
          "name": "",
          "type": "uint256"
        }
      ],
      "stateMutability": "view",
      "type": "function",
      "constant": true
    },
    {
      "inputs": [
        {
          "internalType": "address",
          "name": "from",
          "type": "address"
        },
        {
          "internalType": "address",
          "name": "to",
          "type": "address"
        },
        {
          "internalType": "uint256",
          "name": "tokenId",
          "type": "uint256"
        }
      ],
      "name": "safeTransferFrom",
      "outputs": [],
      "stateMutability": "nonpayable",
      "type": "function"
    },
    {
      "inputs": [
        {
          "internalType": "address",
          "name": "from",
          "type": "address"
        },
        {
          "internalType": "address",
          "name": "to",
          "type": "address"
        },
        {
          "internalType": "uint256",
          "name": "tokenId",
          "type": "uint256"
        },
        {
          "internalType": "bytes",
          "name": "_data",
          "type": "bytes"
        }
      ],
      "name": "safeTransferFrom",
      "outputs": [],
      "stateMutability": "nonpayable",
      "type": "function"
    },
    {
      "inputs": [
        {
          "internalType": "address",
          "name": "operator",
          "type": "address"
        },
        {
          "internalType": "bool",
          "name": "approved",
          "type": "bool"
        }
      ],
      "name": "setApprovalForAll",
      "outputs": [],
      "stateMutability": "nonpayable",
      "type": "function"
    },
    {
      "inputs": [
        {
          "internalType": "bytes4",
          "name": "interfaceId",
          "type": "bytes4"
        }
      ],
      "name": "supportsInterface",
      "outputs": [
        {
          "internalType": "bool",
          "name": "",
          "type": "bool"
        }
      ],
      "stateMutability": "view",
      "type": "function",
      "constant": true
    },
    {
      "inputs": [],
      "name": "symbol",
      "outputs": [
        {
          "internalType": "string",
          "name": "",
          "type": "string"
        }
      ],
      "stateMutability": "view",
      "type": "function",
      "constant": true
    },
    {
      "inputs": [
        {
          "internalType": "uint256",
          "name": "index",
          "type": "uint256"
        }
      ],
      "name": "tokenByIndex",
      "outputs": [
        {
          "internalType": "uint256",
          "name": "",
          "type": "uint256"
        }
      ],
      "stateMutability": "view",
      "type": "function",
      "constant": true
    },
    {
      "inputs": [],
      "name": "tokenCounter",
      "outputs": [
        {
          "internalType": "uint256",
          "name": "",
          "type": "uint256"
        }
      ],
      "stateMutability": "view",
      "type": "function",
      "constant": true
    },
    {
      "inputs": [
        {
          "internalType": "address",
          "name": "owner",
          "type": "address"
        },
        {
          "internalType": "uint256",
          "name": "index",
          "type": "uint256"
        }
      ],
      "name": "tokenOfOwnerByIndex",
      "outputs": [
        {
          "internalType": "uint256",
          "name": "",
          "type": "uint256"
        }
      ],
      "stateMutability": "view",
      "type": "function",
      "constant": true
    },
    {
      "inputs": [
        {
          "internalType": "uint256",
          "name": "tokenId",
          "type": "uint256"
        }
      ],
      "name": "tokenURI",
      "outputs": [
        {
          "internalType": "string",
          "name": "",
          "type": "string"
        }
      ],
      "stateMutability": "view",
      "type": "function",
      "constant": true
    },
    {
      "inputs": [],
      "name": "totalSupply",
      "outputs": [
        {
          "internalType": "uint256",
          "name": "",
          "type": "uint256"
        }
      ],
      "stateMutability": "view",
      "type": "function",
      "constant": true
    },
    {
      "inputs": [
        {
          "internalType": "address",
          "name": "from",
          "type": "address"
        },
        {
          "internalType": "address",
          "name": "to",
          "type": "address"
        },
        {
          "internalType": "uint256",
          "name": "tokenId",
          "type": "uint256"
        }
      ],
      "name": "transferFrom",
      "outputs": [],
      "stateMutability": "nonpayable",
      "type": "function"
    },
    {
      "inputs": [
        {
          "internalType": "address",
          "name": "newOwner",
          "type": "address"
        }
      ],
      "name": "transferOwnership",
      "outputs": [
        {
          "internalType": "bool",
          "name": "",
          "type": "bool"
        }
      ],
      "stateMutability": "nonpayable",
      "type": "function"
    },
    {
      "inputs": [
        {
          "internalType": "string",
          "name": "tokenURI",
          "type": "string"
        },
        {
          "internalType": "uint256",
          "name": "fee",
          "type": "uint256"
        },
        {
          "components": [
            {
              "internalType": "uint8",
              "name": "v",
              "type": "uint8"
            },
            {
              "internalType": "bytes32",
              "name": "r",
              "type": "bytes32"
            },
            {
              "internalType": "bytes32",
              "name": "s",
              "type": "bytes32"
            },
            {
              "internalType": "uint256",
              "name": "nonce",
              "type": "uint256"
            }
          ],
          "internalType": "struct NFT.Sign",
          "name": "sign",
          "type": "tuple"
        }
      ],
      "name": "createNFT",
      "outputs": [
        {
          "internalType": "uint256",
          "name": "",
          "type": "uint256"
        }
      ],
      "stateMutability": "nonpayable",
      "type": "function"
    },
    {
      "inputs": [
        {
          "internalType": "string",
          "name": "_baseURI",
          "type": "string"
        }
      ],
      "name": "setBaseURI",
      "outputs": [],
      "stateMutability": "nonpayable",
      "type": "function"
    },
    {
      "inputs": [
        {
          "internalType": "uint256",
          "name": "tokenId",
          "type": "uint256"
        }
      ],
      "name": "burn",
      "outputs": [],
      "stateMutability": "nonpayable",
      "type": "function"
    }
  ],
  "bytecode": "0x608060405260405180606001604052806022815260200162004dfd60229139600b908051906020019062000035929190620002d8565b503480156200004357600080fd5b5060405162004e1f38038062004e1f8339818101604052810190620000699190620003fa565b8181620000a86301ffc9a77c010000000000000000000000000000000000000000000000000000000002620001e4640100000000026401000000009004565b8160069080519060200190620000c0929190620002d8565b508060079080519060200190620000d9929190620002d8565b50620001176380ac58cd7c010000000000000000000000000000000000000000000000000000000002620001e4640100000000026401000000009004565b62000154635b5e139f7c010000000000000000000000000000000000000000000000000000000002620001e4640100000000026401000000009004565b6200019163780e9d637c010000000000000000000000000000000000000000000000000000000002620001e4640100000000026401000000009004565b50506001600c8190555033600d60006101000a81548173ffffffffffffffffffffffffffffffffffffffff021916908373ffffffffffffffffffffffffffffffffffffffff160217905550505062000660565b63ffffffff7c010000000000000000000000000000000000000000000000000000000002817bffffffffffffffffffffffffffffffffffffffffffffffffffffffff191614156200026c576040517f08c379a0000000000000000000000000000000000000000000000000000000008152600401620002639062000494565b60405180910390fd5b6001600080837bffffffffffffffffffffffffffffffffffffffffffffffffffffffff19167bffffffffffffffffffffffffffffffffffffffffffffffffffffffff1916815260200190815260200160002060006101000a81548160ff02191690831515021790555050565b828054620002e6906200055c565b90600052602060002090601f0160209004810192826200030a576000855562000356565b82601f106200032557805160ff191683800117855562000356565b8280016001018555821562000356579182015b828111156200035557825182559160200191906001019062000338565b5b50905062000365919062000369565b5090565b5b80821115620003845760008160009055506001016200036a565b5090565b60006200039f6200039984620004df565b620004b6565b905082815260208101848484011115620003b857600080fd5b620003c584828562000526565b509392505050565b600082601f830112620003df57600080fd5b8151620003f184826020860162000388565b91505092915050565b600080604083850312156200040e57600080fd5b600083015167ffffffffffffffff8111156200042957600080fd5b6200043785828601620003cd565b925050602083015167ffffffffffffffff8111156200045557600080fd5b6200046385828601620003cd565b9150509250929050565b60006200047c601c8362000515565b9150620004898262000637565b602082019050919050565b60006020820190508181036000830152620004af816200046d565b9050919050565b6000620004c2620004d5565b9050620004d0828262000592565b919050565b6000604051905090565b600067ffffffffffffffff821115620004fd57620004fc620005f7565b5b620005088262000626565b9050602081019050919050565b600082825260208201905092915050565b60005b838110156200054657808201518184015260208101905062000529565b8381111562000556576000848401525b50505050565b600060028204905060018216806200057557607f821691505b602082108114156200058c576200058b620005c8565b5b50919050565b6200059d8262000626565b810181811067ffffffffffffffff82111715620005bf57620005be620005f7565b5b80604052505050565b7f4e487b7100000000000000000000000000000000000000000000000000000000600052602260045260246000fd5b7f4e487b7100000000000000000000000000000000000000000000000000000000600052604160045260246000fd5b6000601f19601f8301169050919050565b7f4552433136353a20696e76616c696420696e7465726661636520696400000000600082015250565b61478d80620006706000396000f3fe608060405234801561001057600080fd5b5060043610610190576000357c0100000000000000000000000000000000000000000000000000000000900480636c0360eb116100fb578063b88d4fde116100b4578063d082e3811161008e578063d082e3811461049f578063d48e638a146104bd578063e985e9c5146104ed578063f2fde38b1461051d57610190565b8063b88d4fde14610423578063c57dc2351461043f578063c87b56dd1461046f57610190565b80636c0360eb1461034d57806370a082311461036b5780638da5cb5b1461039b5780638e3aa96f146103b957806395d89b41146103e9578063a22cb4651461040757610190565b80632f745c591161014d5780632f745c591461026957806342842e0e1461029957806342966c68146102b55780634f6ccce7146102d157806355f804b3146103015780636352211e1461031d57610190565b806301ffc9a71461019557806306fdde03146101c5578063081812fc146101e3578063095ea7b31461021357806318160ddd1461022f57806323b872dd1461024d575b600080fd5b6101af60048036038101906101aa919061305f565b61054d565b6040516101bc91906137c3565b60405180910390f35b6101cd6105b4565b6040516101da9190613823565b60405180910390f35b6101fd60048036038101906101f89190613159565b610646565b60405161020a919061375c565b60405180910390f35b61022d60048036038101906102289190613023565b6106cb565b005b6102376107e3565b6040516102449190613b65565b60405180910390f35b61026760048036038101906102629190612f1d565b6107f4565b005b610283600480360381019061027e9190613023565b610854565b6040516102909190613b65565b60405180910390f35b6102b360048036038101906102ae9190612f1d565b6108af565b005b6102cf60048036038101906102ca9190613159565b6108cf565b005b6102eb60048036038101906102e69190613159565b610923565b6040516102f89190613b65565b60405180910390f35b61031b600480360381019061031691906130b1565b610946565b005b61033760048036038101906103329190613159565b6109e2565b604051610344919061375c565b60405180910390f35b610355610a19565b6040516103629190613823565b60405180910390f35b61038560048036038101906103809190612eb8565b610aab565b6040516103929190613b65565b60405180910390f35b6103a3610b6a565b6040516103b0919061375c565b60405180910390f35b6103d360048036038101906103ce91906130f2565b610b90565b6040516103e09190613b65565b60405180910390f35b6103f1610d11565b6040516103fe9190613823565b60405180910390f35b610421600480360381019061041c9190612fe7565b610da3565b005b61043d60048036038101906104389190612f6c565b610f24565b005b61045960048036038101906104549190613159565b610f86565b6040516104669190613b65565b60405180910390f35b61048960048036038101906104849190613159565b610fa3565b6040516104969190613823565b60405180910390f35b6104a7611116565b6040516104b49190613b65565b60405180910390f35b6104d760048036038101906104d29190613159565b61111c565b6040516104e4919061375c565b60405180910390f35b61050760048036038101906105029190612ee1565b611159565b60405161051491906137c3565b60405180910390f35b61053760048036038101906105329190612eb8565b6111ed565b60405161054491906137c3565b60405180910390f35b6000806000837bffffffffffffffffffffffffffffffffffffffffffffffffffffffff19167bffffffffffffffffffffffffffffffffffffffffffffffffffffffff1916815260200190815260200160002060009054906101000a900460ff169050919050565b6060600680546105c390613e13565b80601f01602080910402602001604051908101604052809291908181526020018280546105ef90613e13565b801561063c5780601f106106115761010080835404028352916020019161063c565b820191906000526020600020905b81548152906001019060200180831161061f57829003601f168201915b5050505050905090565b6000610651826113b5565b610690576040517f08c379a000000000000000000000000000000000000000000000000000000000815260040161068790613a05565b60405180910390fd5b6004600083815260200190815260200160002060009054906101000a900473ffffffffffffffffffffffffffffffffffffffff169050919050565b60006106d6826109e2565b90508073ffffffffffffffffffffffffffffffffffffffff168373ffffffffffffffffffffffffffffffffffffffff161415610747576040517f08c379a000000000000000000000000000000000000000000000000000000000815260040161073e90613ae5565b60405180910390fd5b8073ffffffffffffffffffffffffffffffffffffffff166107666113d2565b73ffffffffffffffffffffffffffffffffffffffff16148061079557506107948161078f6113d2565b611159565b5b6107d4576040517f08c379a00000000000000000000000000000000000000000000000000000000081526004016107cb90613965565b60405180910390fd5b6107de83836113da565b505050565b60006107ef6002611493565b905090565b6108056107ff6113d2565b826114a8565b610844576040517f08c379a000000000000000000000000000000000000000000000000000000000815260040161083b90613b05565b60405180910390fd5b61084f838383611586565b505050565b60006108a782600160008673ffffffffffffffffffffffffffffffffffffffff1673ffffffffffffffffffffffffffffffffffffffff16815260200190815260200160002061179b90919063ffffffff16565b905092915050565b6108ca83838360405180602001604052806000815250610f24565b505050565b6108d8816113b5565b610917576040517f08c379a000000000000000000000000000000000000000000000000000000000815260040161090e90613aa5565b60405180910390fd5b610920816117b6565b50565b60008061093a83600261195d90919063ffffffff16565b50905080915050919050565b3373ffffffffffffffffffffffffffffffffffffffff16600d60009054906101000a900473ffffffffffffffffffffffffffffffffffffffff1673ffffffffffffffffffffffffffffffffffffffff16146109d6576040517f08c379a00000000000000000000000000000000000000000000000000000000081526004016109cd90613a45565b60405180910390fd5b6109df8161198b565b50565b6000610a128260405180606001604052806029815260200161472f6029913960026119dc9092919063ffffffff16565b9050919050565b6060600b8054610a2890613e13565b80601f0160208091040260200160405190810160405280929190818152602001828054610a5490613e13565b8015610aa15780601f10610a7657610100808354040283529160200191610aa1565b820191906000526020600020905b815481529060010190602001808311610a8457829003601f168201915b5050505050905090565b60008073ffffffffffffffffffffffffffffffffffffffff168273ffffffffffffffffffffffffffffffffffffffff161415610b1c576040517f08c379a0000000000000000000000000000000000000000000000000000000008152600401610b1390613985565b60405180910390fd5b610b63600160008473ffffffffffffffffffffffffffffffffffffffff1673ffffffffffffffffffffffffffffffffffffffff1681526020019081526020016000206119fc565b9050919050565b600d60009054906101000a900473ffffffffffffffffffffffffffffffffffffffff1681565b6000600e60008360600151815260200190815260200160002060009054906101000a900460ff1615610bf7576040517f08c379a0000000000000000000000000000000000000000000000000000000008152600401610bee90613b45565b60405180910390fd5b600f84604051610c0791906136fb565b908152602001604051809103902060009054906101000a900460ff1615610c63576040517f08c379a0000000000000000000000000000000000000000000000000000000008152600401610c5a90613ac5565b60405180910390fd5b6001600e60008460600151815260200190815260200160002060006101000a81548160ff0219169083151502179055506000600c549050610ca5853385611a11565b610cb0338286611b5c565b610cba8186611b7c565b6001600f86604051610ccc91906136fb565b908152602001604051809103902060006101000a81548160ff0219169083151502179055506001600c54610d009190613c55565b600c81905550809150509392505050565b606060078054610d2090613e13565b80601f0160208091040260200160405190810160405280929190818152602001828054610d4c90613e13565b8015610d995780601f10610d6e57610100808354040283529160200191610d99565b820191906000526020600020905b815481529060010190602001808311610d7c57829003601f168201915b5050505050905090565b610dab6113d2565b73ffffffffffffffffffffffffffffffffffffffff168273ffffffffffffffffffffffffffffffffffffffff161415610e19576040517f08c379a0000000000000000000000000000000000000000000000000000000008152600401610e1090613905565b60405180910390fd5b8060056000610e266113d2565b73ffffffffffffffffffffffffffffffffffffffff1673ffffffffffffffffffffffffffffffffffffffff16815260200190815260200160002060008473ffffffffffffffffffffffffffffffffffffffff1673ffffffffffffffffffffffffffffffffffffffff16815260200190815260200160002060006101000a81548160ff0219169083151502179055508173ffffffffffffffffffffffffffffffffffffffff16610ed36113d2565b73ffffffffffffffffffffffffffffffffffffffff167f17307eab39ab6107e8899845ad3d59bd9653f200f220920489ca2b5937696c3183604051610f1891906137c3565b60405180910390a35050565b610f35610f2f6113d2565b836114a8565b610f74576040517f08c379a0000000000000000000000000000000000000000000000000000000008152600401610f6b90613b05565b60405180910390fd5b610f8084848484611c28565b50505050565b600060096000838152602001908152602001600020549050919050565b6060610fae826113b5565b610fed576040517f08c379a0000000000000000000000000000000000000000000000000000000008152600401610fe490613a85565b60405180910390fd5b600060086000848152602001908152602001600020805461100d90613e13565b80601f016020809104026020016040519081016040528092919081815260200182805461103990613e13565b80156110865780601f1061105b57610100808354040283529160200191611086565b820191906000526020600020905b81548152906001019060200180831161106957829003601f168201915b505050505090506000611097610a19565b90506000815114156110ad578192505050611111565b6000825111156110e25780826040516020016110ca929190613712565b60405160208183030381529060405292505050611111565b806110ec85611c84565b6040516020016110fd929190613712565b604051602081830303815290604052925050505b919050565b600c5481565b6000600a600083815260200190815260200160002060009054906101000a900473ffffffffffffffffffffffffffffffffffffffff169050919050565b6000600560008473ffffffffffffffffffffffffffffffffffffffff1673ffffffffffffffffffffffffffffffffffffffff16815260200190815260200160002060008373ffffffffffffffffffffffffffffffffffffffff1673ffffffffffffffffffffffffffffffffffffffff16815260200190815260200160002060009054906101000a900460ff16905092915050565b60003373ffffffffffffffffffffffffffffffffffffffff16600d60009054906101000a900473ffffffffffffffffffffffffffffffffffffffff1673ffffffffffffffffffffffffffffffffffffffff161461127f576040517f08c379a000000000000000000000000000000000000000000000000000000000815260040161127690613a45565b60405180910390fd5b600073ffffffffffffffffffffffffffffffffffffffff168273ffffffffffffffffffffffffffffffffffffffff1614156112ef576040517f08c379a00000000000000000000000000000000000000000000000000000000081526004016112e690613885565b60405180910390fd5b81600d60006101000a81548173ffffffffffffffffffffffffffffffffffffffff021916908373ffffffffffffffffffffffffffffffffffffffff1602179055508173ffffffffffffffffffffffffffffffffffffffff16600d60009054906101000a900473ffffffffffffffffffffffffffffffffffffffff1673ffffffffffffffffffffffffffffffffffffffff167f8be0079c531659141344cd1fd0a4f28419497f9722a3daafe3b4186f6b6457e060405160405180910390a360019050919050565b60006113cb826002611e5090919063ffffffff16565b9050919050565b600033905090565b816004600083815260200190815260200160002060006101000a81548173ffffffffffffffffffffffffffffffffffffffff021916908373ffffffffffffffffffffffffffffffffffffffff160217905550808273ffffffffffffffffffffffffffffffffffffffff1661144d836109e2565b73ffffffffffffffffffffffffffffffffffffffff167f8c5be1e5ebec7d5bd14f71427d1e84f3dd0314c0f7b2291e5b200ac8c7c3b92560405160405180910390a45050565b60006114a182600001611e6a565b9050919050565b60006114b3826113b5565b6114f2576040517f08c379a00000000000000000000000000000000000000000000000000000000081526004016114e990613945565b60405180910390fd5b60006114fd836109e2565b90508073ffffffffffffffffffffffffffffffffffffffff168473ffffffffffffffffffffffffffffffffffffffff16148061156c57508373ffffffffffffffffffffffffffffffffffffffff1661155484610646565b73ffffffffffffffffffffffffffffffffffffffff16145b8061157d575061157c8185611159565b5b91505092915050565b8273ffffffffffffffffffffffffffffffffffffffff166115a6826109e2565b73ffffffffffffffffffffffffffffffffffffffff16146115fc576040517f08c379a00000000000000000000000000000000000000000000000000000000081526004016115f390613a65565b60405180910390fd5b600073ffffffffffffffffffffffffffffffffffffffff168273ffffffffffffffffffffffffffffffffffffffff16141561166c576040517f08c379a0000000000000000000000000000000000000000000000000000000008152600401611663906138e5565b60405180910390fd5b611677838383611e7b565b6116826000826113da565b6116d381600160008673ffffffffffffffffffffffffffffffffffffffff1673ffffffffffffffffffffffffffffffffffffffff168152602001908152602001600020611e8090919063ffffffff16565b61172481600160008573ffffffffffffffffffffffffffffffffffffffff1673ffffffffffffffffffffffffffffffffffffffff168152602001908152602001600020611e9590919063ffffffff16565b61173a81836002611eaa9092919063ffffffff16565b50808273ffffffffffffffffffffffffffffffffffffffff168473ffffffffffffffffffffffffffffffffffffffff167fddf252ad1be2c89b69c2b068fc378daa952ba7f163c4a11628f55a4df523b3ef60405160405180910390a4505050565b60006117aa8360000183611edf565b60019004905092915050565b6117bf816109e2565b73ffffffffffffffffffffffffffffffffffffffff163373ffffffffffffffffffffffffffffffffffffffff161461182c576040517f08c379a0000000000000000000000000000000000000000000000000000000008152600401611823906138c5565b60405180910390fd5b6000611837826109e2565b905061184581600084611e7b565b6118506000836113da565b600060086000848152602001908152602001600020805461187090613e13565b905014611897576008600083815260200190815260200160002060006118969190612bfe565b5b6118e882600160008473ffffffffffffffffffffffffffffffffffffffff1673ffffffffffffffffffffffffffffffffffffffff168152602001908152602001600020611e8090919063ffffffff16565b6118fc826002611f7990919063ffffffff16565b5081600073ffffffffffffffffffffffffffffffffffffffff168273ffffffffffffffffffffffffffffffffffffffff167fddf252ad1be2c89b69c2b068fc378daa952ba7f163c4a11628f55a4df523b3ef60405160405180910390a45050565b6000806000806119708660000186611f93565b91509150816001900481600190049350935050509250929050565b80600b90805190602001906119a1929190612c3e565b507f5514cc7324ac64a875ba50a1849367d39c8b030fe0f563c3c7142984552bc306816040516119d19190613823565b60405180910390a150565b60006119ef846000018460010284612043565b6001900490509392505050565b6000611a0a8260000161210a565b9050919050565b60003083858460600151604051602001611a2e94939291906136b1565b604051602081830303815290604052805190602001209050600181604051602001611a599190613736565b6040516020818303038152906040528051906020012083600001518460200151856040015160405160008152602001604052604051611a9b94939291906137de565b6020604051602081039080840390855afa158015611abd573d6000803e3d6000fd5b5050506020604051035173ffffffffffffffffffffffffffffffffffffffff16600d60009054906101000a900473ffffffffffffffffffffffffffffffffffffffff1673ffffffffffffffffffffffffffffffffffffffff1614611b56576040517f08c379a0000000000000000000000000000000000000000000000000000000008152600401611b4d906139a5565b60405180910390fd5b50505050565b611b778383836040518060200160405280600081525061211b565b505050565b611b85826113b5565b611bc4576040517f08c379a0000000000000000000000000000000000000000000000000000000008152600401611bbb90613a25565b60405180910390fd5b80600860008481526020019081526020016000209080519060200190611beb929190612c3e565b50817f6bb7ff708619ba0610cba295a58592e0451dee2622938c8755667688daf3529b82604051611c1c9190613823565b60405180910390a25050565b611c33848484611586565b611c3f84848484612178565b611c7e576040517f08c379a0000000000000000000000000000000000000000000000000000000008152600401611c7590613865565b60405180910390fd5b50505050565b60606000821415611ccc576040518060400160405280600181526020017f30000000000000000000000000000000000000000000000000000000000000008152509050611e4b565b600082905060005b60008214611cfe578080611ce790613e76565b915050600a82611cf79190613cab565b9150611cd4565b60008167ffffffffffffffff811115611d40577f4e487b7100000000000000000000000000000000000000000000000000000000600052604160045260246000fd5b6040519080825280601f01601f191660200182016040528015611d725781602001600182028036833780820191505090505b5090505b60008514611e4457600182611d8b9190613cdc565b9150600a85611d9a9190613ef7565b6030611da69190613c55565b7f010000000000000000000000000000000000000000000000000000000000000002818381518110611e01577f4e487b7100000000000000000000000000000000000000000000000000000000600052603260045260246000fd5b60200101907effffffffffffffffffffffffffffffffffffffffffffffffffffffffffffff1916908160001a905350600a85611e3d9190613cab565b9450611d76565b8093505050505b919050565b6000611e628360000183600102612314565b905092915050565b600081600001805490509050919050565b505050565b611e908260000182600102612337565b505050565b611ea582600001826001026124c1565b505050565b6000611ed684600001846001028473ffffffffffffffffffffffffffffffffffffffff16600102612531565b90509392505050565b600081836000018054905011611f2a576040517f08c379a0000000000000000000000000000000000000000000000000000000008152600401611f2190613845565b60405180910390fd5b826000018281548110611f66577f4e487b7100000000000000000000000000000000000000000000000000000000600052603260045260246000fd5b9060005260206000200154905092915050565b6000611f8b8360000183600102612643565b905092915050565b60008082846000018054905011611fdf576040517f08c379a0000000000000000000000000000000000000000000000000000000008152600401611fd6906139c5565b60405180910390fd5b600084600001848154811061201d577f4e487b7100000000000000000000000000000000000000000000000000000000600052603260045260246000fd5b906000526020600020906002020190508060000154816001015492509250509250929050565b600080846001016000858152602001908152602001600020549050600081141583906120a5576040517f08c379a000000000000000000000000000000000000000000000000000000000815260040161209c9190613823565b60405180910390fd5b50846000016001826120b79190613cdc565b815481106120ee577f4e487b7100000000000000000000000000000000000000000000000000000000600052603260045260246000fd5b9060005260206000209060020201600101549150509392505050565b600081600001805490509050919050565b6121268484846127fe565b6121336000858584612178565b612172576040517f08c379a000000000000000000000000000000000000000000000000000000000815260040161216990613865565b60405180910390fd5b50505050565b60006121998473ffffffffffffffffffffffffffffffffffffffff166129f6565b6121a6576001905061230c565b600061228963150b7a027c0100000000000000000000000000000000000000000000000000000000026121d76113d2565b8887876040516024016121ed9493929190613777565b604051602081830303815290604052907bffffffffffffffffffffffffffffffffffffffffffffffffffffffff19166020820180517bffffffffffffffffffffffffffffffffffffffffffffffffffffffff83818316178352505050506040518060600160405280603281526020016146fd603291398773ffffffffffffffffffffffffffffffffffffffff16612a199092919063ffffffff16565b90506000818060200190518101906122a19190613088565b905063150b7a027c0100000000000000000000000000000000000000000000000000000000027bffffffffffffffffffffffffffffffffffffffffffffffffffffffff1916817bffffffffffffffffffffffffffffffffffffffffffffffffffffffff191614925050505b949350505050565b600080836001016000848152602001908152602001600020541415905092915050565b600080836001016000848152602001908152602001600020549050600081146124b55760006001826123699190613cdc565b90506000600186600001805490506123819190613cdc565b905060008660000182815481106123c1577f4e487b7100000000000000000000000000000000000000000000000000000000600052603260045260246000fd5b906000526020600020015490508087600001848154811061240b577f4e487b7100000000000000000000000000000000000000000000000000000000600052603260045260246000fd5b90600052602060002001819055506001836124269190613c55565b8760010160008381526020019081526020016000208190555086600001805480612479577f4e487b7100000000000000000000000000000000000000000000000000000000600052603160045260246000fd5b600190038181906000526020600020016000905590558660010160008781526020019081526020016000206000905560019450505050506124bb565b60009150505b92915050565b60006124cd8383612a31565b61252657826000018290806001815401808255809150506001900390600052602060002001600090919091909150558260000180549050836001016000848152602001908152602001600020819055506001905061252b565b600090505b92915050565b60008084600101600085815260200190815260200160002054905060008114156125d85784600001604051806040016040528086815260200185815250908060018154018082558091505060019003906000526020600020906002020160009091909190915060008201518160000155602082015181600101555050846000018054905085600101600086815260200190815260200160002081905550600191505061263c565b82856000016001836125ea9190613cdc565b81548110612621577f4e487b7100000000000000000000000000000000000000000000000000000000600052603260045260246000fd5b90600052602060002090600202016001018190555060009150505b9392505050565b600080836001016000848152602001908152602001600020549050600081146127f25760006001826126759190613cdc565b905060006001866000018054905061268d9190613cdc565b905060008660000182815481106126cd577f4e487b7100000000000000000000000000000000000000000000000000000000600052603260045260246000fd5b906000526020600020906002020190508087600001848154811061271a577f4e487b7100000000000000000000000000000000000000000000000000000000600052603260045260246000fd5b9060005260206000209060020201600082015481600001556001820154816001015590505060018361274c9190613c55565b8760010160008360000154815260200190815260200160002081905550866000018054806127a3577f4e487b7100000000000000000000000000000000000000000000000000000000600052603160045260246000fd5b60019003818190600052602060002090600202016000808201600090556001820160009055505090558660010160008781526020019081526020016000206000905560019450505050506127f8565b60009150505b92915050565b600073ffffffffffffffffffffffffffffffffffffffff168373ffffffffffffffffffffffffffffffffffffffff16141561286e576040517f08c379a0000000000000000000000000000000000000000000000000000000008152600401612865906139e5565b60405180910390fd5b612877826113b5565b156128b7576040517f08c379a00000000000000000000000000000000000000000000000000000000081526004016128ae906138a5565b60405180910390fd5b6128c360008484611e7b565b61291482600160008673ffffffffffffffffffffffffffffffffffffffff1673ffffffffffffffffffffffffffffffffffffffff168152602001908152602001600020611e9590919063ffffffff16565b61292a82846002611eaa9092919063ffffffff16565b5033600a600084815260200190815260200160002060006101000a81548173ffffffffffffffffffffffffffffffffffffffff021916908373ffffffffffffffffffffffffffffffffffffffff160217905550806009600084815260200190815260200160002081905550818373ffffffffffffffffffffffffffffffffffffffff16600073ffffffffffffffffffffffffffffffffffffffff167fddf252ad1be2c89b69c2b068fc378daa952ba7f163c4a11628f55a4df523b3ef60405160405180910390a4505050565b6000808273ffffffffffffffffffffffffffffffffffffffff163b119050919050565b6060612a288484600085612a54565b90509392505050565b600080836001016000848152602001908152602001600020541415905092915050565b6060823073ffffffffffffffffffffffffffffffffffffffff16311015612ab0576040517f08c379a0000000000000000000000000000000000000000000000000000000008152600401612aa790613925565b60405180910390fd5b6000808673ffffffffffffffffffffffffffffffffffffffff168587604051612ad9919061369a565b60006040518083038185875af1925050503d8060008114612b16576040519150601f19603f3d011682016040523d82523d6000602084013e612b1b565b606091505b5091509150612b2c87838387612b38565b92505050949350505050565b60608315612b9b57600083511415612b9357612b53856129f6565b612b92576040517f08c379a0000000000000000000000000000000000000000000000000000000008152600401612b8990613b25565b60405180910390fd5b5b829050612ba6565b612ba58383612bae565b5b949350505050565b600082511115612bc15781518083602001fd5b806040517f08c379a0000000000000000000000000000000000000000000000000000000008152600401612bf59190613823565b60405180910390fd5b508054612c0a90613e13565b6000825580601f10612c1c5750612c3b565b601f016020900490600052602060002090810190612c3a9190612cc4565b5b50565b828054612c4a90613e13565b90600052602060002090601f016020900481019282612c6c5760008555612cb3565b82601f10612c8557805160ff1916838001178555612cb3565b82800160010185558215612cb3579182015b82811115612cb2578251825591602001919060010190612c97565b5b509050612cc09190612cc4565b5090565b5b80821115612cdd576000816000905550600101612cc5565b5090565b6000612cf4612cef84613ba5565b613b80565b905082815260208101848484011115612d0c57600080fd5b612d17848285613dd1565b509392505050565b6000612d32612d2d84613bd6565b613b80565b905082815260208101848484011115612d4a57600080fd5b612d55848285613dd1565b509392505050565b600081359050612d6c81614672565b92915050565b600081359050612d8181614689565b92915050565b600081359050612d96816146a0565b92915050565b600081359050612dab816146b7565b92915050565b600081519050612dc0816146b7565b92915050565b600082601f830112612dd757600080fd5b8135612de7848260208601612ce1565b91505092915050565b600082601f830112612e0157600080fd5b8135612e11848260208601612d1f565b91505092915050565b600060808284031215612e2c57600080fd5b612e366080613b80565b90506000612e4684828501612ea3565b6000830152506020612e5a84828501612d87565b6020830152506040612e6e84828501612d87565b6040830152506060612e8284828501612e8e565b60608301525092915050565b600081359050612e9d816146ce565b92915050565b600081359050612eb2816146e5565b92915050565b600060208284031215612eca57600080fd5b6000612ed884828501612d5d565b91505092915050565b60008060408385031215612ef457600080fd5b6000612f0285828601612d5d565b9250506020612f1385828601612d5d565b9150509250929050565b600080600060608486031215612f3257600080fd5b6000612f4086828701612d5d565b9350506020612f5186828701612d5d565b9250506040612f6286828701612e8e565b9150509250925092565b60008060008060808587031215612f8257600080fd5b6000612f9087828801612d5d565b9450506020612fa187828801612d5d565b9350506040612fb287828801612e8e565b925050606085013567ffffffffffffffff811115612fcf57600080fd5b612fdb87828801612dc6565b91505092959194509250565b60008060408385031215612ffa57600080fd5b600061300885828601612d5d565b925050602061301985828601612d72565b9150509250929050565b6000806040838503121561303657600080fd5b600061304485828601612d5d565b925050602061305585828601612e8e565b9150509250929050565b60006020828403121561307157600080fd5b600061307f84828501612d9c565b91505092915050565b60006020828403121561309a57600080fd5b60006130a884828501612db1565b91505092915050565b6000602082840312156130c357600080fd5b600082013567ffffffffffffffff8111156130dd57600080fd5b6130e984828501612df0565b91505092915050565b600080600060c0848603121561310757600080fd5b600084013567ffffffffffffffff81111561312157600080fd5b61312d86828701612df0565b935050602061313e86828701612e8e565b925050604061314f86828701612e1a565b9150509250925092565b60006020828403121561316b57600080fd5b600061317984828501612e8e565b91505092915050565b61318b81613d22565b82525050565b61319a81613d10565b82525050565b6131b16131ac82613d10565b613ebf565b82525050565b6131c081613d34565b82525050565b6131cf81613d40565b82525050565b6131e66131e182613d40565b613ed1565b82525050565b60006131f782613c07565b6132018185613c1d565b9350613211818560208601613de0565b61321a81613fe4565b840191505092915050565b600061323082613c07565b61323a8185613c2e565b935061324a818560208601613de0565b80840191505092915050565b61326761326282613dad565b613ebf565b82525050565b600061327882613c12565b6132828185613c39565b9350613292818560208601613de0565b61329b81613fe4565b840191505092915050565b60006132b182613c12565b6132bb8185613c4a565b93506132cb818560208601613de0565b80840191505092915050565b60006132e4602283613c39565b91506132ef8261400e565b604082019050919050565b6000613307601c83613c4a565b91506133128261405d565b601c82019050919050565b600061332a603283613c39565b915061333582614086565b604082019050919050565b600061334d602683613c39565b9150613358826140d5565b604082019050919050565b6000613370601c83613c39565b915061337b82614124565b602082019050919050565b6000613393601083613c39565b915061339e8261414d565b602082019050919050565b60006133b6602483613c39565b91506133c182614176565b604082019050919050565b60006133d9601983613c39565b91506133e4826141c5565b602082019050919050565b60006133fc602683613c39565b9150613407826141ee565b604082019050919050565b600061341f602c83613c39565b915061342a8261423d565b604082019050919050565b6000613442603883613c39565b915061344d8261428c565b604082019050919050565b6000613465602a83613c39565b9150613470826142db565b604082019050919050565b6000613488601e83613c39565b91506134938261432a565b602082019050919050565b60006134ab602283613c39565b91506134b682614353565b604082019050919050565b60006134ce602083613c39565b91506134d9826143a2565b602082019050919050565b60006134f1602c83613c39565b91506134fc826143cb565b604082019050919050565b6000613514602c83613c39565b915061351f8261441a565b604082019050919050565b6000613537602083613c39565b915061354282614469565b602082019050919050565b600061355a602983613c39565b915061356582614492565b604082019050919050565b600061357d602f83613c39565b9150613588826144e1565b604082019050919050565b60006135a0601983613c39565b91506135ab82614530565b602082019050919050565b60006135c3601a83613c39565b91506135ce82614559565b602082019050919050565b60006135e6602183613c39565b91506135f182614582565b604082019050919050565b6000613609603183613c39565b9150613614826145d1565b604082019050919050565b600061362c601d83613c39565b915061363782614620565b602082019050919050565b600061364f601583613c39565b915061365a82614649565b602082019050919050565b61366e81613d96565b82525050565b61368561368082613d96565b613eed565b82525050565b61369481613da0565b82525050565b60006136a68284613225565b915081905092915050565b60006136bd8287613256565b6014820191506136cd82866131a0565b6014820191506136dd82856132a6565b91506136e98284613674565b60208201915081905095945050505050565b600061370782846132a6565b915081905092915050565b600061371e82856132a6565b915061372a82846132a6565b91508190509392505050565b6000613741826132fa565b915061374d82846131d5565b60208201915081905092915050565b60006020820190506137716000830184613191565b92915050565b600060808201905061378c6000830187613182565b6137996020830186613191565b6137a66040830185613665565b81810360608301526137b881846131ec565b905095945050505050565b60006020820190506137d860008301846131b7565b92915050565b60006080820190506137f360008301876131c6565b613800602083018661368b565b61380d60408301856131c6565b61381a60608301846131c6565b95945050505050565b6000602082019050818103600083015261383d818461326d565b905092915050565b6000602082019050818103600083015261385e816132d7565b9050919050565b6000602082019050818103600083015261387e8161331d565b9050919050565b6000602082019050818103600083015261389e81613340565b9050919050565b600060208201905081810360008301526138be81613363565b9050919050565b600060208201905081810360008301526138de81613386565b9050919050565b600060208201905081810360008301526138fe816133a9565b9050919050565b6000602082019050818103600083015261391e816133cc565b9050919050565b6000602082019050818103600083015261393e816133ef565b9050919050565b6000602082019050818103600083015261395e81613412565b9050919050565b6000602082019050818103600083015261397e81613435565b9050919050565b6000602082019050818103600083015261399e81613458565b9050919050565b600060208201905081810360008301526139be8161347b565b9050919050565b600060208201905081810360008301526139de8161349e565b9050919050565b600060208201905081810360008301526139fe816134c1565b9050919050565b60006020820190508181036000830152613a1e816134e4565b9050919050565b60006020820190508181036000830152613a3e81613507565b9050919050565b60006020820190508181036000830152613a5e8161352a565b9050919050565b60006020820190508181036000830152613a7e8161354d565b9050919050565b60006020820190508181036000830152613a9e81613570565b9050919050565b60006020820190508181036000830152613abe81613593565b9050919050565b60006020820190508181036000830152613ade816135b6565b9050919050565b60006020820190508181036000830152613afe816135d9565b9050919050565b60006020820190508181036000830152613b1e816135fc565b9050919050565b60006020820190508181036000830152613b3e8161361f565b9050919050565b60006020820190508181036000830152613b5e81613642565b9050919050565b6000602082019050613b7a6000830184613665565b92915050565b6000613b8a613b9b565b9050613b968282613e45565b919050565b6000604051905090565b600067ffffffffffffffff821115613bc057613bbf613fb5565b5b613bc982613fe4565b9050602081019050919050565b600067ffffffffffffffff821115613bf157613bf0613fb5565b5b613bfa82613fe4565b9050602081019050919050565b600081519050919050565b600081519050919050565b600082825260208201905092915050565b600081905092915050565b600082825260208201905092915050565b600081905092915050565b6000613c6082613d96565b9150613c6b83613d96565b9250827fffffffffffffffffffffffffffffffffffffffffffffffffffffffffffffffff03821115613ca057613c9f613f28565b5b828201905092915050565b6000613cb682613d96565b9150613cc183613d96565b925082613cd157613cd0613f57565b5b828204905092915050565b6000613ce782613d96565b9150613cf283613d96565b925082821015613d0557613d04613f28565b5b828203905092915050565b6000613d1b82613d76565b9050919050565b6000613d2d82613d76565b9050919050565b60008115159050919050565b6000819050919050565b60007fffffffff0000000000000000000000000000000000000000000000000000000082169050919050565b600073ffffffffffffffffffffffffffffffffffffffff82169050919050565b6000819050919050565b600060ff82169050919050565b6000613db882613dbf565b9050919050565b6000613dca82613d76565b9050919050565b82818337600083830152505050565b60005b83811015613dfe578082015181840152602081019050613de3565b83811115613e0d576000848401525b50505050565b60006002820490506001821680613e2b57607f821691505b60208210811415613e3f57613e3e613f86565b5b50919050565b613e4e82613fe4565b810181811067ffffffffffffffff82111715613e6d57613e6c613fb5565b5b80604052505050565b6000613e8182613d96565b91507fffffffffffffffffffffffffffffffffffffffffffffffffffffffffffffffff821415613eb457613eb3613f28565b5b600182019050919050565b6000613eca82613edb565b9050919050565b6000819050919050565b6000613ee682613ff5565b9050919050565b6000819050919050565b6000613f0282613d96565b9150613f0d83613d96565b925082613f1d57613f1c613f57565b5b828206905092915050565b7f4e487b7100000000000000000000000000000000000000000000000000000000600052601160045260246000fd5b7f4e487b7100000000000000000000000000000000000000000000000000000000600052601260045260246000fd5b7f4e487b7100000000000000000000000000000000000000000000000000000000600052602260045260246000fd5b7f4e487b7100000000000000000000000000000000000000000000000000000000600052604160045260246000fd5b6000601f19601f8301169050919050565b60006c0100000000000000000000000082029050919050565b7f456e756d657261626c655365743a20696e646578206f7574206f6620626f756e60008201527f6473000000000000000000000000000000000000000000000000000000000000602082015250565b7f19457468657265756d205369676e6564204d6573736167653a0a333200000000600082015250565b7f4552433732313a207472616e7366657220746f206e6f6e20455243373231526560008201527f63656976657220696d706c656d656e7465720000000000000000000000000000602082015250565b7f4f776e61626c653a206e6577206f776e657220697320746865207a65726f206160008201527f6464726573730000000000000000000000000000000000000000000000000000602082015250565b7f4552433732313a20746f6b656e20616c7265616479206d696e74656400000000600082015250565b7f63616c6c6572206e6f74206f776e657200000000000000000000000000000000600082015250565b7f4552433732313a207472616e7366657220746f20746865207a65726f2061646460008201527f7265737300000000000000000000000000000000000000000000000000000000602082015250565b7f4552433732313a20617070726f766520746f2063616c6c657200000000000000600082015250565b7f416464726573733a20696e73756666696369656e742062616c616e636520666f60008201527f722063616c6c0000000000000000000000000000000000000000000000000000602082015250565b7f4552433732313a206f70657261746f7220717565727920666f72206e6f6e657860008201527f697374656e7420746f6b656e0000000000000000000000000000000000000000602082015250565b7f4552433732313a20617070726f76652063616c6c6572206973206e6f74206f7760008201527f6e6572206e6f7220617070726f76656420666f7220616c6c0000000000000000602082015250565b7f4552433732313a2062616c616e636520717565727920666f7220746865207a6560008201527f726f206164647265737300000000000000000000000000000000000000000000602082015250565b7f4f776e6572207369676e20766572696669636174696f6e206661696c65640000600082015250565b7f456e756d657261626c654d61703a20696e646578206f7574206f6620626f756e60008201527f6473000000000000000000000000000000000000000000000000000000000000602082015250565b7f4552433732313a206d696e7420746f20746865207a65726f2061646472657373600082015250565b7f4552433732313a20617070726f76656420717565727920666f72206e6f6e657860008201527f697374656e7420746f6b656e0000000000000000000000000000000000000000602082015250565b7f4552433732314d657461646174613a2055524920736574206f66206e6f6e657860008201527f697374656e7420746f6b656e0000000000000000000000000000000000000000602082015250565b7f4f776e61626c653a2063616c6c6572206973206e6f7420746865206f776e6572600082015250565b7f4552433732313a207472616e73666572206f6620746f6b656e2074686174206960008201527f73206e6f74206f776e0000000000000000000000000000000000000000000000602082015250565b7f4552433732314d657461646174613a2055524920717565727920666f72206e6f60008201527f6e6578697374656e7420746f6b656e0000000000000000000000000000000000602082015250565b7f4552433732313a206e6f6e6578697374656e7420746f6b656e00000000000000600082015250565b7f4d696e74696e673a204475706c6963617465204d696e74696e67000000000000600082015250565b7f4552433732313a20617070726f76616c20746f2063757272656e74206f776e6560008201527f7200000000000000000000000000000000000000000000000000000000000000602082015250565b7f4552433732313a207472616e736665722063616c6c6572206973206e6f74206f60008201527f776e6572206e6f7220617070726f766564000000000000000000000000000000602082015250565b7f416464726573733a2063616c6c20746f206e6f6e2d636f6e7472616374000000600082015250565b7f4e6f6e6365203a20496e76616c6964204e6f6e63650000000000000000000000600082015250565b61467b81613d10565b811461468657600080fd5b50565b61469281613d34565b811461469d57600080fd5b50565b6146a981613d40565b81146146b457600080fd5b50565b6146c081613d4a565b81146146cb57600080fd5b50565b6146d781613d96565b81146146e257600080fd5b50565b6146ee81613da0565b81146146f957600080fd5b5056fe4552433732313a207472616e7366657220746f206e6f6e20455243373231526563656976657220696d706c656d656e7465724552433732313a206f776e657220717565727920666f72206e6f6e6578697374656e7420746f6b656ea26469706673582212205a83909ebfd4b8fd729345d2f1e911f27072c6b5fb3e96fcf29364ee78ed514364736f6c6343000804003368747470733a2f2f676174657761792e70696e6174612e636c6f75642f697066732f",
  "immutableReferences": {},
  "source": "// SPDX-License-Identifier: MIT\r\n// OpenZeppelin Contracts (last updated v4.7.0) \r\n\r\npragma solidity ^0.8.4;\r\n\r\nimport \"./ERC721.sol\";\r\n\r\ncontract NFT is ERC721 {\r\n    \r\n    uint256 public tokenCounter;\r\n    address public owner;\r\n    mapping(uint256 => bool) private usedNonce;\r\n    mapping(string => bool) private tokenURIs;\r\n\r\n    event OwnershipTransferred(address indexed previousOwner, address indexed newOwner);\r\n\r\n    struct Sign {\r\n        uint8 v;\r\n        bytes32 r;\r\n        bytes32 s;\r\n        uint256 nonce;\r\n    }\r\n\r\n    constructor (string memory tokenName, string memory tokenSymbol) ERC721 (tokenName, tokenSymbol){\r\n        tokenCounter = 1;\r\n        owner = msg.sender;\r\n    }\r\n\r\n    modifier onlyOwner() {\r\n        require(owner == msg.sender, \"Ownable: caller is not the owner\");\r\n        _;\r\n    }\r\n\r\n    function transferOwnership(address newOwner) external onlyOwner returns(bool){\r\n        require(newOwner != address(0), \"Ownable: new owner is the zero address\");\r\n        owner = newOwner;\r\n        emit OwnershipTransferred(owner, newOwner);\r\n        return true;\r\n    }\r\n\r\n    function verifySign(string memory tokenURI, address caller, Sign memory sign) internal view {\r\n        bytes32 hash = keccak256(abi.encodePacked(this, caller, tokenURI, sign.nonce));\r\n        require(owner == ecrecover(keccak256(abi.encodePacked(\"\\x19Ethereum Signed Message:\\n32\", hash)), sign.v, sign.r, sign.s), \"Owner sign verification failed\");\r\n    }\r\n\r\n    \r\n    /**\r\n     * @dev Internal function to mint a new token.\r\n     * Reverts if the given token ID already exists.\r\n     * @param sign struct combination of uint8, bytes32, bytes32 are v, r, s.\r\n     * @param tokenURI string memory URI of the token to be minted.\r\n     * @param fee uint256 royalty of the token to be minted.\r\n     */\r\n\r\n    function createNFT(string memory tokenURI, uint256 fee, Sign memory sign) external returns (uint256) {\r\n        require(!usedNonce[sign.nonce], \"Nonce : Invalid Nonce\");\r\n        require(!tokenURIs[tokenURI],\"Minting: Duplicate Minting\");\r\n        usedNonce[sign.nonce] = true;\r\n        uint256 newItemId = tokenCounter;\r\n        verifySign(tokenURI, msg.sender, sign);\r\n        _safeMint(msg.sender, newItemId, fee);\r\n        _setTokenURI(newItemId, tokenURI);\r\n        tokenURIs[tokenURI] = true;\r\n        tokenCounter = tokenCounter + 1;\r\n        return newItemId;\r\n    }\r\n\r\n    function setBaseURI(string memory _baseURI) external onlyOwner{\r\n        _setBaseURI(_baseURI);\r\n    }\r\n    \r\n    function burn(uint256 tokenId) external {\r\n        require(_exists(tokenId), \"ERC721: nonexistent token\");\r\n        _burn(tokenId);\r\n    }\r\n}",
  "sourcePath": "C:\\Users\\91863\\Arevea\\contracts\\NFT.sol",
  "compiler": {
    "name": "solc",
    "version": "0.8.4+commit.c7e474f2.Emscripten.clang"
  },
  "schemaVersion": "3.4.8",
  "updatedAt": "2022-07-21T08:05:20.611Z",
  "networkType": "ethereum",
  "devdoc": {
    "kind": "dev",
    "methods": {
      "balanceOf(address)": {
        "params": {
          "owner": "The address of the token holder"
        },
        "returns": {
          "_0": "The account's balance of the Token type requested"
        }
      },
      "createNFT(string,uint256,(uint8,bytes32,bytes32,uint256))": {
        "details": "Internal function to mint a new token. Reverts if the given token ID already exists.",
        "params": {
          "fee": "uint256 royalty of the token to be minted.",
          "sign": "struct combination of uint8, bytes32, bytes32 are v, r, s.",
          "tokenURI": "string memory URI of the token to be minted."
        }
      },
      "isApprovedForAll(address,address)": {
        "params": {
          "operator": "Address of authorized operator",
          "owner": "The owner of the Tokens"
        },
        "returns": {
          "_0": "True if the operator is approved, false if not"
        }
      },
      "name()": {
        "details": "Returns the token collection name."
      },
      "ownerOf(uint256)": {
        "params": {
          "tokenId": "The tokenId of the token holder"
        },
        "returns": {
          "_0": "The current owner of the requested tokenId"
        }
      },
      "safeTransferFrom(address,address,uint256,bytes)": {
        "details": "Caller must be approved to manage the tokens being transferred out of the `_from` account (see \"Approval\" section of the standard). MUST revert if `_to` is the zero address. MUST revert if balance of holder for token `_id` is lower than the `_value` sent. MUST revert on any other error. MUST emit the `TransferSingle` event to reflect the balance change (see \"Safe Transfer Rules\" section of the standard). After the above conditions are met, this function MUST check if `_to` is a smart contract (e.g. code size > 0). If so, it MUST call `onERC721Received` on `_to` and act appropriately (see \"Safe Transfer Rules\" section of the standard).",
        "params": {
          "_data": "Additional data with no specified format, MUST be sent unaltered in call to `onERC721Received` on `_to`",
          "from": "Source address",
          "to": "Target address",
          "tokenId": "ID of the token type."
        }
      },
      "setApprovalForAll(address,bool)": {
        "details": "MUST emit the ApprovalForAll event on success.",
        "params": {
          "approved": "True if the operator is approved, false to revoke approval",
          "operator": "Address to add to the set of authorized operators"
        }
      },
      "supportsInterface(bytes4)": {
        "details": "Returns true if this contract implements the interface defined by `interfaceId`. See the corresponding https://eips.ethereum.org/EIPS/eip-165#how-interfaces-are-identified[EIP section] to learn more about how these ids are created. This function call must use less than 30 000 gas."
      },
      "symbol()": {
        "details": "Returns the token collection symbol."
      },
      "tokenByIndex(uint256)": {
        "details": "Returns a token ID at a given `index` of all the tokens stored by the contract. Use along with {totalSupply} to enumerate all tokens."
      },
      "tokenOfOwnerByIndex(address,uint256)": {
        "details": "Returns a token ID owned by `owner` at a given `index` of its token list. Use along with {balanceOf} to enumerate all of ``owner``'s tokens."
      },
      "tokenURI(uint256)": {
        "details": "Returns the Uniform Resource Identifier (URI) for `tokenId` token."
      },
      "totalSupply()": {
        "details": "Returns the total amount of tokens stored by the contract."
      }
    },
    "version": 1
  },
  "userdoc": {
    "kind": "user",
    "methods": {
      "balanceOf(address)": {
        "notice": "Get the Token balance of an account's."
      },
      "isApprovedForAll(address,address)": {
        "notice": "Queries the approval status of an operator for a given owner."
      },
      "ownerOf(uint256)": {
        "notice": "Get the owner of tokenId."
      },
      "safeTransferFrom(address,address,uint256,bytes)": {
        "notice": "Transfers `_value` amount of an `_id` from the `_from` address to the `_to` address specified (with safety call)."
      },
      "setApprovalForAll(address,bool)": {
        "notice": "Enable or disable approval for a third party (\"operator\") to manage all of the caller's tokens."
      }
    },
    "version": 1
  }
}